:020000040800F2
:1000000000000220296700083D3B00083F3B000834
:10001000413B0008433B0008453B0008000000004E
:10002000000000000000000000000000473B000846
:10003000493B0008000000004B3B00084D3B000816
:100040007967000879670008796700087967000810
:100050007967000879670008796700087967000800
:1000600079670008796700087967000879670008F0
:1000700079670008796700087967000879670008E0
:1000800079670008796700087967000800000000B8
:10009000000000000000000000000000553B0008C8
:1000A00079670008796700087967000879670008B0
:1000B00079670008693B00087967000879670008DC
:1000C0007967000879670008796700087967000890
:1000D00079670008793B0008893B000800000000B0
:1000E000993B000879670008796700080000000064
:1000F0000000000000000000000000007967000818
:100100000000000079670008796700087967000837
:1001100000000000000000000000000000000000DF
:10012000796700087967000879670008796700082F
:1001300079670008000000000000000000000000D7
:1001400000000000000000000000000079670008C7
:1001500079670008796700087967000879670008FF
:1001600079670008796700080000000000000000BF
:10017000000000000000000000000000000000007F
:100180000000000079670008000000000000000087
:08019000796700087967000897
:1001A000034613F8012B002AFBD1181A01387047B7
:1001B00010F8012B11F8013B012A28BF9A42F7D011
:1001C000D01A70470000000000000000000000008E
:1001D00001F0FF01102A2BDB10F0070F08D010F8F8
:1001E000013B013A8B422DD010F0070F42B3F6D1FC
:1001F000F0B441EA012141EA014122F007047FF015
:1002000000070023F0E80256083C85EA010586EA6B
:10021000010685FA47F5A3FA87F586FA47F6A5FAA7
:1002200087F68EB9EED1F0BC01F0FF0102F00702B3
:1002300032B110F8013B013A83EA010313B1F8D15E
:100240000020704701387047002D06BF354603383F
:10025000073815F0010F07D1013015F4807F02BF78
:10026000013015F4C03F0130F0BC0138704700BFC9
:1002700081F0004102E000BF83F0004330B54FEA57
:1002800041044FEA430594EA050F08BF90EA020FC4
:100290001FBF54EA000C55EA020C7FEA645C7FEA57
:1002A000655C00F0E2804FEA5454D4EB5555B8BF7A
:1002B0006D420CDD2C4480EA020281EA030382EAEB
:1002C000000083EA010180EA020281EA0303362D7D
:1002D00088BF30BD11F0004F4FEA01314FF4801C50
:1002E0004CEA113102D0404261EB410113F0004F62
:1002F0004FEA03334CEA133302D0524263EB430319
:1003000094EA050F00F0A780A4F10104D5F1200EB6
:100310000DDB02FA0EFC22FA05F2801841F1000111
:1003200003FA0EF2801843FA05F359410EE0A5F1E5
:1003300020050EF1200E012A03FA0EFC28BF4CF016
:10034000020C43FA05F3C01851EBE37101F00045CC
:1003500007D54FF0000EDCF1000C7EEB00006EEBD9
:100360000101B1F5801F1BD3B1F5001F0CD3490863
:100370005FEA30004FEA3C0C04F101044FEA4452BA
:1003800012F5800F80F09A80BCF1004F08BF5FEA41
:10039000500C50F1000041EB045141EA050130BD21
:1003A0005FEA4C0C404141EB0101013C28BFB1F533
:1003B000801FE9D291F0000F04BF01460020B1FA7E
:1003C00081F308BF2033A3F10B03B3F120020CDA51
:1003D0000C3208DD02F1140CC2F10C0201FA0CF02F
:1003E00021FA02F10CE002F11402D8BFC2F1200C94
:1003F00001FA02F120FA0CFCDCBF41EA0C0190404A
:10040000E41AA2BF01EB0451294330BD6FEA040492
:100410001F3C1CDA0C340EDC04F11404C4F120027D
:1004200020FA04F001FA02F340EA030021FA04F38F
:1004300045EA030130BDC4F10C04C4F1200220FAE6
:1004400002F001FA04F340EA0300294630BD21FA24
:1004500004F0294630BD94F0000F83F4801306BFEA
:1004600081F480110134013D4EE77FEA645C18BFDE
:100470007FEA655C29D094EA050F08BF90EA020F75
:1004800005D054EA000C04BF1946104630BD91EA6D
:10049000030F1EBF0021002030BD5FEA545C05D170
:1004A0004000494128BF41F0004130BD14F58004AF
:1004B0003CBF01F5801130BD01F0004545F0FE4123
:1004C00041F470014FF0000030BD7FEA645C1ABF58
:1004D000194610467FEA655C1CBF0B46024650EA8F
:1004E000013406BF52EA033591EA030F41F40021BB
:1004F00030BD00BF90F0000F04BF0021704730B541
:100500004FF4806404F132044FF000054FF0000115
:1005100050E700BF90F0000F04BF0021704730B5D6
:100520004FF4806404F1320410F0004548BF4042AB
:100530004FF000013EE700BF42004FEAE2014FEA00
:1005400031014FEA02701FBF12F07F4393F07F4FDB
:1005500081F06051704732F07F4208BF704793F0DE
:100560007F4F04BF41F40021704730B54FF46074F1
:1005700001F0004521F000411CE700BF50EA0102F4
:1005800008BF704730B54FF000050AE050EA01029D
:1005900008BF704730B511F0004502D5404261EB0D
:1005A00041014FF4806404F132045FEA915C3FF44E
:1005B000D8AE4FF003025FEADC0C18BF03325FEAEB
:1005C000DC0C18BF033202EBDC02C2F1200300FA9C
:1005D00003FC20FA02F001FA03FE40EA0E0021FAC1
:1005E00002F11444BDE600BF70B54FF0FF0C4CF4AF
:1005F000E06C1CEA11541DBF1CEA135594EA0C0F61
:1006000095EA0C0F00F0DEF82C4481EA030621EA9B
:100610004C5123EA4C5350EA013518BF52EA0335D6
:1006200041F4801143F4801338D0A0FB02CE4FF088
:100630000005E1FB02E506F00042E0FB03E54FF0B8
:100640000006E1FB03569CF0000F18BF4EF0010EB0
:10065000A4F1FF04B6F5007F64F5407404D25FEAAC
:100660004E0E6D4146EB060642EAC62141EA55515F
:100670004FEAC52040EA5E504FEACE2EB4F1FD0CA1
:1006800088BFBCF5E06F1ED8BEF1004F08BF5FEA1F
:10069000500E50F1000041EB045170BD06F00046D1
:1006A00046EA010140EA020081EA0301B4EB5C047E
:1006B000C2BFD4EB0C0541EA045170BD41F4801176
:1006C0004FF0000E013C00F3AB8014F1360FDEBF9B
:1006D000002001F0004170BDC4F10004203C35DA77
:1006E0000C341BDC04F11404C4F1200500FA05F3FA
:1006F00020FA04F001FA05F240EA020001F000429B
:1007000021F0004110EBD37021FA04F642EB060110
:100710005EEA430E08BF20EAD37070BDC4F10C043A
:10072000C4F1200500FA04F320FA05F001FA04F2FE
:1007300040EA020001F0004110EBD37041F10001EA
:100740005EEA430E08BF20EAD37070BDC4F12005F5
:1007500000FA05F24EEA020E20FA04F301FA05F25D
:1007600043EA020321FA04F001F0004121FA04F205
:1007700020EA020000EBD3705EEA430E08BF20EAD5
:10078000D37070BD94F0000F0FD101F0004640000F
:1007900041EB010111F4801F08BF013CF7D041EA91
:1007A000060195F0000F18BF704703F00046520095
:1007B00043EB030313F4801F08BF013DF7D043EA66
:1007C0000603704794EA0C0F0CEA135518BF95EA1C
:1007D0000C0F0CD050EA410618BF52EA4306D1D1A3
:1007E00081EA030101F000414FF0000070BD50EAC2
:1007F000410606BF1046194652EA430619D094EA4C
:100800000C0F02D150EA013613D195EA0C0F05D135
:1008100052EA03361CBF104619460AD181EA030189
:1008200001F0004141F0FE4141F470014FF0000041
:1008300070BD41F0FE4141F4780170BD70B54FF0DC
:10084000FF0C4CF4E06C1CEA11541DBF1CEA13555C
:1008500094EA0C0F95EA0C0F00F0A7F8A4EB05043E
:1008600081EA030E52EA03354FEA013100F0888035
:100870004FEA03334FF0805545EA131343EA1263FE
:100880004FEA022245EA111545EA10654FEA0026B3
:100890000EF000419D4208BF964244F1FD0404F56C
:1008A000407402D25B084FEA3202B61A65EB0305C8
:1008B0005B084FEA32024FF480104FF4002CB6EB85
:1008C000020E75EB030E22BFB61A754640EA0C0005
:1008D0005B084FEA3202B6EB020E75EB030E22BF45
:1008E000B61A754640EA5C005B084FEA3202B6EB86
:1008F000020E75EB030E22BFB61A754640EA9C0045
:100900005B084FEA3202B6EB020E75EB030E22BF14
:10091000B61A754640EADC0055EA060E18D04FEAD2
:10092000051545EA16754FEA06164FEAC30343EA72
:1009300052734FEAC2025FEA1C1CC0D111F4801F3F
:100940000BD141EA00014FF000004FF0004CB6E738
:1009500011F4801F04BF01430020B4F1FD0C88BFD7
:10096000BCF5E06F3FF6AFAEB5EB030C04BFB6EBE2
:10097000020C5FEA500C50F1000041EB045170BDD5
:100980000EF0004E4EEA113114EB5C04C2BFD4EB02
:100990000C0541EA045170BD41F480114FF0000E86
:1009A000013C90E645EA060E8DE60CEA135594EA02
:1009B0000C0F08BF95EA0C0F3FF43BAF94EA0C0F05
:1009C0000AD150EA01347FF434AF95EA0C0F7FF47A
:1009D00025AF104619462CE795EA0C0F06D152EACE
:1009E00003353FF4FDAE1046194622E750EA4106B2
:1009F00018BF52EA43067FF4C5AE50EA41047FF4C3
:100A00000DAF52EA43057FF4EBAE12E74FF0FF3C27
:100A100006E000BF4FF0010C02E000BF4FF0010CF8
:100A20004DF804CD4FEA410C7FEA6C5C4FEA430C71
:100A300018BF7FEA6C5C1BD001B050EA410C0CBFC0
:100A400052EA430C91EA030F02BF90EA020F002022
:100A5000704710F1000F91EA030F58BF994208BF89
:100A600090422CBFD8176FEAE37040F00100704746
:100A70004FEA410C7FEA6C5C02D150EA013C07D19D
:100A80004FEA430C7FEA6C5CD6D152EA033CD3D0E8
:100A90005DF8040B704700BF8446104662468C46E2
:100AA0001946634600E000BF01B5FFF7B7FF002815
:100AB00048BF10F1000F01BD4DF808EDFFF7F4FF3E
:100AC0000CBF012000205DF808FB00BF4DF808EDC9
:100AD000FFF7EAFF34BF012000205DF808FB00BFEC
:100AE0004DF808EDFFF7E0FF94BF012000205DF80E
:100AF00008FB00BF4DF808EDFFF7CEFF94BF0120C3
:100B000000205DF808FB00BF4DF808EDFFF7C4FFBB
:100B100034BF012000205DF808FB00BF4FEA410C04
:100B20007FEA6C5C02D150EA013C0AD14FEA430CE7
:100B30007FEA6C5C02D152EA033C02D14FF0000024
:100B400070474FF0010070474FEA410212F5001262
:100B500015D211D56FF47873B3EB625212D94FEA04
:100B6000C12343F0004343EA505311F0004F23FAEE
:100B700002F018BF404270474FF00000704750EA43
:100B8000013005D111F0004008BF6FF00040704700
:100B90004FF00000704700BF4FEA4102B2F1E0435E
:100BA00024BFB3F5001CDCF1FE5C0DD901F0004C54
:100BB0004FEAC0024CEA5070B2F1004F40EB8300A4
:100BC00008BF20F00100704711F0804F21D113F1D0
:100BD0003872BCBF01F00040704741F480114FEA09
:100BE0005252C2F11802C2F1200C10FA0CF320FA92
:100BF00002F018BF40F001004FEAC1234FEAD323AF
:100C000003FA0CFC40EA0C0023FA02F34FEA430318
:100C1000CCE77FEA625307D150EA01331EBF4FF0A1
:100C2000FE4040F44000704701F0004040F0FE40BC
:100C300040F40000704700BF7BB972B90029BEBF05
:100C400000204FF0004106E008BF00281CBF6FF0F5
:100C500000414FF0FF3000F057B8ADF1080C6DE9DE
:100C600004CE002909DB002B1ADB09F091FCDDF82A
:100C700004E0DDE9022304B07047404261EB41012A
:100C8000002B1BDB09F084FCDDF804E0DDE9022326
:100C900004B0404261EB4101524263EB43037047B1
:100CA000524263EB430309F073FCDDF804E0DDE935
:100CB000022304B0404261EB41017047524263EBB2
:100CC000430309F065FCDDF804E0DDE9022304B02C
:100CD000524263EB4303704753B94AB9002908BF36
:100CE00000281CBF4FF0FF314FF0FF3000F00CB870
:100CF000ADF1080C6DE904CE09F04AFCDDF804E022
:100D0000DDE9022304B07047704700BF10B5054C01
:100D1000237833B9044B13B10448AFF300800123A7
:100D2000237010BD90000020000000004CA80008B7
:100D300008B5034B1BB103490348AFF3008008BD5E
:100D400000000000940000204CA8000840F2B112FE
:100D50000262072280F8242080F82520012280F8F2
:100D60002620FF2280F82A20642280F82B200822E7
:100D70000285002280F82C207047F8B504460E4604
:100D800017461D4600228188006803F035F94FF4AC
:100D9000FA633A463146A06904F0F3FAA06904F018
:100DA000A8FD0128FAD14FF4FA63BDF818202946AE
:100DB000A06904F0DEFCA06904F09BFD0128FAD1D3
:100DC0000122A188206803F017F9F8BDF8B50446A0
:100DD0000E4617461D4600228188006803F00CF974
:100DE0004FF4FA633A463146A06904F0CAFAA069A2
:100DF00004F07FFD0128FAD14FF4FA63BDF8182002
:100E00002946A06904F0BDFAA06904F072FD01282A
:100E1000FAD10122A188206803F0EEF8F8BD00B5F0
:100E200085B001F07F018DF80E10012200920DF1C6
:100E30000F030DF10E01FFF7A0FF9DF80F0005B0A5
:100E40005DF804FB00B585B061F07F018DF80E10F0
:100E50008DF80F20012200920DF10F030DF10E010C
:100E6000FFF7B4FF05B05DF804FB000038B5044699
:100E70000D460121FFF7D3FF024645B900F0F80205
:100E80000023E36101212046FFF7DCFF38BD013D6F
:100E9000052DF7D801A353F825F000BFB50E0008C3
:100EA000850E0008C50E0008850E0008D50E000846
:100EB000E50E000820F0070242F00102D2B2012341
:100EC000E361DFE720F0070242F00302D2B203231E
:100ED000E361D7E720F0070242F00502D2B2052312
:100EE000E361CFE720F0070242F00602D2B2062308
:100EF000E361C7E738B50446CA045511C2F3475247
:100F00000621FFF79FFF052002F0A8FE2A0AD2B2B1
:100F100007212046FFF796FF052002F09FFE0022E2
:100F200008212046FFF78EFF052002F097FE38BD0E
:100F300070B506460C2904DC0C46062902DC0724A1
:100F400000E00C241E213046FFF769FF05460A2009
:100F500002F084FE2201D2B205F00F052A44D2B27B
:100F60001E213046FFF76EFF0A2002F077FE70BDAB
:100F7000F8B5044690F82530092B06D8DFE803F0D1
:100F80001907090B0D0F11131517002512E0264D37
:100F900010E0264D0EE0264D0CE0264D0AE0264DD1
:100FA00008E0264D06E0264D04E0264D02E0264DE1
:100FB00000E0264D94F82400FFF79CFA41EC110B59
:100FC0009FED170B08F050FA57EC106B2846FFF70F
:100FD000B3FA32463B46FFF731FC02460B4600208F
:100FE0001B49FFF72BFCFFF7D7FD07EE100AF3EEC6
:100FF000007AB4EEE77AF1EE10FA08DD0822262135
:101000002046FFF71FFF012384F82C30F8BD002293
:1010100026212046FFF716FF002384F82C30F5E741
:101020000000000000000040666626419A99794160
:101030006666A6410000FA41CDCC264200007A4205
:101040000000FA4200007A430000FA439A99F940FE
:101050000000F03F08B50A460921FFF7F3FE0A2019
:1010600002F0FCFD08BD000008B52C290DD9F029BF
:101070000CD9F021F0291CD81E310F4B83FB012322
:10108000CA17C2EBA302D2B20AE02D217829F1D807
:101090002D39094B83FB0123CA17C2EB6302D2B27D
:1010A0002032D2B20B21FFF7CDFE0A2002F0D6FD8E
:1010B00008BD0022F4E700BF6766666610B5044607
:1010C0001E21FFF7ACFE40F00702D2B21E212046DF
:1010D000FFF7B8FE0A2002F0C1FD10BD70B582B066
:1010E000044615461E4661F07F018DF80710002268
:1010F0008188006802F080FF4FF4FA6301220DF14D
:101100000701A06904F03DF9A06904F0F2FB012891
:10111000FAD14FF4FA6332462946A06904F031F956
:10112000A06904F0E6FB0128FAD10122A188206819
:1011300002F062FF02B070BD012070472DE9F0415E
:1011400006460F4615461C46D0F81C800121FFF7C5
:101150008DFE0E213046FFF762FE02460D2130461D
:10116000FFF770FE2A4622213046FFF76BFE2B4622
:101170003A4600213046FFF7B1FF03213046FFF722
:1011800075FE0FE0FF2212213046FFF75BFE41465D
:101190003046FFF76BFE01252846BDE8F0810120AF
:1011A00002F05CFD12213046FFF739FE10F0080511
:1011B000E8D1013CA4B2002CF1D141463046FFF702
:1011C00055FEE9E738B50446FFF7B6FF10B940F21F
:1011D000F71038BD00212046FFF748FE0A2002F034
:1011E0003DFD01212046FFF71AFE05460A2002F0C8
:1011F00035FD65F07F02D2B201212046FFF722FEC5
:10120000642002F02BFD216A2046FFF773FE94F85C
:101210002A102046FFF71EFF94F82B102046FFF7F8
:1012200023FF23220C212046FFF70CFE2046FFF768
:1012300045FF94F824102046FFF77AFEFF221F2175
:101240002046FFF7FFFD94F825201201D2B294F852
:1012500026305B00DBB21A4402F0FE021D2120465C
:10126000FFF7F0FD228D120A20212046FFF7EAFD4C
:1012700094F8282021212046FFF7E4FD4021204654
:10128000FFF7CDFD40F03F02D2B240212046FFF7EC
:10129000D9FD2046FFF76CFE01212046FFF7E6FD51
:1012A0000123E3610A2002F0D9FC42212046FFF726
:1012B000B6FD122802D04FF4CA708AE7C82088E72A
:1012C00000B503884FEA430CCCEBE10CB0F902E027
:1012D0000EFB0CFCC3EB211101FB01F10913B0F96A
:1012E000043003FB01F0801300EBEC20106000EBF6
:1012F0008000803000125DF804FB2DE9F0410446C7
:10130000D317B2F5FA3243F1FF3302FB03F0A2FB2D
:1013100002C707EB4007B4F910004FEAE07E0CFB70
:101320000EFE00FB07EEACFB00608644B4F90E0035
:101330004FEAE07800FB03F502FB0855A0FB02082A
:1013400045446D0445EAD035400480194EEB050E46
:10135000B4F90C500EEBC50EB4F90A50EE170CFBA5
:1013600006F605FB0766ACFB05C52E444FEA1C2CB0
:101370004CEA066CB4F90850EF1705FB03F302FBC7
:101380000733A5FB025213441B0343EA15532D03F5
:101390001CEB050C43EB262303F50043E288ACFB72
:1013A00002C502FB03556A10EB1753EA650561D0CD
:1013B000C1F580156910ED072D1A61EB0E0E15EBC6
:1013C000050C4EEB0E011CEB050C4EEB01018801E8
:1013D00040EA9C604FEA8C161CEB060C41EB0001C6
:1013E000890041EA9C714FEA8C0C1CEB050C4EEB1A
:1013F0000101890041EA9C714FEA8C0040194EEBD3
:101400000101FFF719FC0346B4F916604FEAE67CC8
:10141000420B42EAC1424F1306FB07F502FB0C5593
:10142000A6FB026C654402FB05F506FB0755A2FB13
:1014300006263544520E42EAC512B4F914604FEA4A
:10144000E67C06FB01F70CFB0070A6FB0367384443
:10145000F60C46EA40369B1841EB65619B1941EB5F
:10146000E041180A40EA0160B4F9123000EB0310C1
:10147000BDE8F0810020FBE7A2F5963CB0F91E30F4
:101480001B05C3EB8133B0F920200CFB123303F5AD
:101490008043D91390F922300CFB03F39B12027F97
:1014A0000CFB02F2D21202F5004202FB03F39B1284
:1014B00003F50013B0F91A2002FB03F303F5005300
:1014C0009B1301FB03F3DA1302FB02F2D211017E3C
:1014D00001FB02F2A3EB221020EAE070B0F1C85F3A
:1014E000A8BF4FF0C8500013704710B584B08E46A7
:1014F000B0F824C04FEA4C0C1FFA8CF141F288344A
:1015000002940193009201237246806A03F064F909
:1015100000B1012004B010BD10B586B08C46144651
:10152000838C5B0099B241F28833029302230193CA
:1015300005AB009301236246806A03F04DF948B978
:101540009DF815209DF8143043EA022323800120E2
:1015500006B010BD0020FBE710B504460246882106
:10156000FFF7DAFF00B910BDA21C8A212046FFF761
:10157000D3FF0028F7D0221D8C212046FFF7CCFF97
:101580000028F0D0A21D8E212046FFF7C5FF0028BD
:10159000E9D004F1080290212046FFF7BDFF0028A2
:1015A000E1D004F10A0292212046FFF7B5FF00289E
:1015B000D9D004F10C0294212046FFF7ADFF00289A
:1015C000D1D004F10E0296212046FFF7A5FF002896
:1015D000C9D004F1100298212046FFF79DFF002892
:1015E000C1D004F112029A212046FFF795FF00288E
:1015F000B9D004F114029C212046FFF78DFF00288A
:10160000B1D004F116029E212046FFF785FFAAE71C
:1016100030B583B00446012300F11802A121FFF781
:1016200064FF18B10025284603B030BD04F11A024A
:10163000E1212046FFF770FF05460028F3D0012383
:1016400004F11C02E3212046FFF74FFF08B10025FB
:10165000E9E70DF10602E4212046FFF75DFF0546AC
:101660000028E0D001AAE5212046FFF755FF0546F6
:101670000028D8D0012304F12202E7212046FFF7F9
:1016800034FF08B10025CEE7BDF80620130103F4AE
:101690007F63C2F303221343E383BDF804301B09C5
:1016A0002384C0E700B587B08C468DF81720838C63
:1016B0005B0099B242F210730293012301930DF182
:1016C000170200926246806A02F0D4FF00B1012046
:1016D00007B05DF804FB032303700022427083709F
:1016E000C370037143717047F0B583B0838C763B50
:1016F0009BB2012B03D90025284603B0F0BD044658
:101700000E46012300F13202D021FFF7EEFE002841
:101710005CD194F83230582B01D0602B58D1B622CE
:10172000E0212046FFF7BEFF002853D101230DF131
:101730000702F3212046FFF7D8FE0028F6D19DF8D6
:10174000073013F0010FF1D12046FFF705FF0546E2
:101750000028D1D094F83230602B24D0737972787D
:10176000920042EA431202F0FC02F5212046FFF704
:1017700099FF88BB3378012B1CD0F278B3789B009B
:1017800043EA42135BB232781343DFB294F832304B
:10179000602B12D03A46F4212046FFF783FF002841
:1017A000AAD00025A8E72046FFF732FF0028D5D1B0
:1017B0000546A1E700233370DFE73279F2212046A6
:1017C000FFF770FF0028E5D0002595E7002593E797
:1017D000002591E700258FE700258DE72DE9F041F1
:1017E00084B00446884617461D4690F83230602B78
:1017F0000ED085B100232B601D46062302AAF721D7
:101800002046FFF772FE50B1002004B0BDE8F08121
:101810001DB10823F2E70623F0E70623EEE79DF863
:1018200008309DF80960360146EA03369DF80A3013
:1018300046EA13169DF80B209DF80C301B0143EA75
:1018400002339DF80D1001AA43EA11112046FFF75B
:1018500037FDC8F80000019A31462046FFF74DFDDC
:10186000386065B19DF80E109DF80F30019A43EA7B
:1018700001212046FFF700FE28600120C5E7012076
:10188000C3E7000070B584B00D4614461E4603B190
:1018900001AB02AA03A9FFF7A1FF08B904B070BD0C
:1018A000DDED037AF8EEE77ADFED0E6A87EEA67AD1
:1018B00085ED007ADDED027AF8EE677A9FED0A7A1F
:1018C00067EE877AC4ED007A002EE7D0DDED017A6D
:1018D000F8EE677A9FED057A67EE877AC6ED007AB3
:1018E000DCE700BF0000C8420000803B0000803AF7
:1018F00043680BB3154A934221DC154A934221DB1E
:101900000168642003FB00F091FBF0F200FB121170
:1019100007EE902AB8EEE70A07EE901AB8EEE77ADB
:10192000C3EB03139B0007EE903AF8EEE77AC7EE9D
:10193000276A30EE260A70479FED060A70479FED32
:10194000050A70479FED030A704700BF14AE4701B8
:10195000EC51B8FE0000C07F2DE9F04389B00024AF
:10196000039404940594069407940094414B1A6BD5
:1019700042F004021A631A6B02F004020092009A09
:1019800001941A6B42F001021A631A6B02F0010211
:101990000192019A02941A6B42F002021A631B6BC5
:1019A00003F002030293029BDFF8D48022464FF437
:1019B0000051404602F020FB2F4F012210213846F3
:1019C00002F01AFB2D4E01224FF48071304602F0D6
:1019D00013FB4FF40059CDF80C90012504950594A4
:1019E000069403A9404602F023FA102303930495BA
:1019F0000594069403A9384602F01AFA20230393AB
:101A00004FF40418CDF81080059503A9384602F06C
:101A10000FFACDF80C90CDF81080059503A930464B
:101A200002F006FA4FF4807303930495059406942C
:101A300003A9304602F0FCF94FF4007303934FF40E
:101A400088130493059403A9304602F0F1F9224665
:101A50002146172002F05CF9172002F069F92246AE
:101A60002146282002F054F9282002F061F909B03B
:101A7000BDE8F0830038024000000240000402404C
:101A800000080240000000002DE9F04194B04FF43E
:101A9000807200216A4805F06BF86A496A4805F0CF
:101AA0000BF848B10146694C204605F0C3F82146C1
:101AB00002A801F007FD30B94FF48072002162489E
:101AC00005F056F84AE05E4D2846FEF769FB049B98
:101AD0000093039B029A5E49284404F083FE284643
:101AE000FEF75EFB044607A8FFF702FF10EE100AA0
:101AF000FEF722FD06460F4609A8FFF7F9FE10EE95
:101B0000100A2C44FEF718FDCDE9000132463B4691
:101B10005049204604F066FECEE7494C2046FEF7C9
:101B20003FFB4D4D04EB000C05F1200E2C460FCC75
:101B3000CCF80000CCF80410CCF80820CCF80C301D
:101B400025460CF1100C7445F0D12068CCF800004B
:101B500023798CF804302422404B1A60404B414AD0
:101B600041494248FFF78EFE0028D6D03D4C94ED07
:101B7000007A3F4BD3ED007AC7EE277A17EE900A32
:101B8000FEF7DAFC9FED2A1B41EC100B07F06CFC12
:101B900053EC102B00203749FEF76EFB26A3D3E948
:101BA0000023FEF721FDFEF7F7FF334B1860DFF847
:101BB000DC80FEF7C1FC41EC100B4146062005F02D
:101BC0000DF82E4D2068FEF7B7FC41EC100B2946AE
:101BD000082005F003F82A4E234B1868FEF7ACFCEA
:101BE00041EC100B3146042004F0F8FF254F1C4B4C
:101BF0001868FEF7A1FC41EC100B3946042004F0F4
:101C0000EDFF0F4C2046FEF7CBFACDF8048000978D
:101C100033462A461C49204404F0E4FD2046FEF7E2
:101C2000BFFA80B214B0BDE8F08100BFAFF300800E
:101C30006C45D9CC955BC83F0000000040A5E5404D
:101C40003C0400206CBC00087C0500203C05002002
:101C5000B4BB0008C0BB0008CCBB0008AC0100202E
:101C6000B0030020B8030020B4030020BC03002010
:101C7000080000200000F03FF003002030030020A7
:101C8000B002002030020020F4BB0008B0010020A8
:101C90002DE9F0410446B0F5005F07D0202C77D045
:101CA000774B1A68774B1A60BDE8F08101F0D0FFDE
:101CB000734B1860734B1B68C01AC828EEDD724B5B
:101CC0001B78002BEAD1714F4FF4807842460021F7
:101CD000384604F04DFF3D466D4E0FCE0FC53368BC
:101CE0002B604FF47A73424639466A4804F0CFF9C4
:101CF00042460021384604F03BFF674B01221A7030
:101D0000664B1B68934221D0013B644F3B6000212E
:101D1000084601F0ABFD624D012395E806006148DD
:101D200001F08CFD2321002001F0A0FD5E4E3A68F9
:101D30005E49304604F056FD012395E80600304622
:101D400001F07CFD5A4801F02BFCA7E7534F3C23E0
:101D50003B600021084601F089FD514D012395E8C3
:101D60000600504801F06AFD2321002001F07EFDAD
:101D70004D4E3A684D49304604F034FD012395E854
:101D80000600304601F05AFD494801F009FC85E79C
:101D900001F05EFF3A4B18603A4B1B68C01AC82826
:101DA0007FF77EAF384B1B78002B7FF479AF374E2F
:101DB0004FF480773A460021304604F0D9FE34468D
:101DC0003C4D0FCD0FC495E8030044F8040B21707F
:101DD0004FF47A733A4631462E4804F058F93A46A1
:101DE0000021304604F0C4FE2B4B01221A702B4B0D
:101DF0001B683C2B21D00133284E3360002108465C
:101E000001F034FD264C012394E80600254801F03A
:101E100015FD2321002001F029FD234D32682349BF
:101E2000284604F0DFFC012394E80600284601F070
:101E300005FD1F4801F0B4FB32E7184F15463A6024
:101E40000021084601F012FD154C2B4694E80600CF
:101E5000144801F0F3FC2321002001F007FD124E8D
:101E60003A681249304604F0BDFC2B4694E806005F
:101E7000304601F0E3FC0E4801F092FB10E700BF92
:101E80000404002008040020F60300203C04002085
:101E900000BC00087C0600200C0000201000002080
:101EA0000000002014BC0008F80300201CBC00083F
:101EB000A407002028BC0008034B834200D07047D1
:101EC000024B01221A70FAE704070020F6030020F3
:101ED00072B6FEE708B50A480A4B03604FF4165382
:101EE000436000238360C36003610C22426183610D
:101EF000C36104F09DF800B908BDFFF7E9FF00BF1A
:101F0000C00600200010014008B50A480A4B0360D3
:101F10004FF4E133436000238360C36003610C220C
:101F200042618361C36104F083F800B908BDFFF723
:101F3000CFFF00BF7C0600200044004008B50A48DF
:101F40000A4B03600A4B436000238360C3604FF475
:101F50008042026143618361C361036202F0ACFAB3
:101F600000B908BDFFF7B4FFF80700200054004097
:101F7000A086010008B50D480D4B03604FF4827335
:101F8000436000238360C360036143614FF40072C8
:101F90008261C3610362436283620A23C36203F006
:101FA00091F900B908BDFFF793FF00BF4C0700206F
:101FB000003C004008B50A480A4B03600A4B4360E6
:101FC00000238360C3604FF48042026143618361F8
:101FD000C361036202F070FA00B908BDFFF778FF31
:101FE000A407002000580040A086010000B587B07B
:101FF00000230293039304930593009301931448E1
:10200000144A026043F67F624260836040F2E73226
:10201000C2600361836103F0EBFD90B94FF480531C
:10202000029302A90A4803F01CFE60B90023009342
:1020300001936946064803F093FE30B907B05DF896
:1020400004FBFFF745FFFFF743FFFFF741FF00BF2A
:10205000040700200004004000B595B030220021A4
:1020600008A804F085FD00230393049305930693C9
:1020700007930193184A116C41F080511164126C5E
:1020800002F080520192019A0293144A116841F4BD
:1020900040411160126802F440420292029A022208
:1020A000089201220B9210220C920E9308A802F0C3
:1020B00005FD68B90F230393002104910591069152
:1020C000079103A802F04AFF20B915B05DF804FBA0
:1020D000FFF7FEFEFFF7FCFE0038024000700040F4
:1020E00070B5AEB001F08EFDFFF7B6FFFFF734FC20
:1020F000FFF7F0FEFFF708FFFFF720FFFFF73AFFBB
:10210000FFF758FFFFF772FFA24803F025FCA24C2F
:102110002046FFF7E0FA772324F8083C9F4B44F869
:10212000043C15E09E4E34469E4D0FCD0FC495E8FD
:102130000F0007C423801D229B4B1A604FF47A7353
:1021400031469A4803F0A3FF4FF4FA6001F086FD90
:102150009149A1F12C00FFF7C7FA0028E2D0944B77
:1021600093F83230602B00F08C80924A8C4C92496C
:10217000204604F037FB16228B4B1A604FF47A731B
:1021800021468A4803F083FF8C4D02A8FEF7DEFD4E
:10219000AC4602AC0FCCACE80F000FCCACE80F00A3
:1021A00094E80F008CE80F00854B2B601023AB8068
:1021B000844BAB604FF48072AA812B614FF40073A3
:1021C000AB82814BAB6140F2B1132B62072385F8E0
:1021D0002430002685F82560012385F82630FF236A
:1021E00085F82A30642385F82B3008232B85284670
:1021F000FEF7E8FF04460E967C2231460FA804F055
:10220000B7FCC82C3FD02346704A80210EA804F0AA
:10221000B5FA0EA8FDF7C4FF634B186082B20EA991
:10222000624803F0A0FF6A4D284601F0E3F900215F
:10223000084601F01BFB674C012394E80600664842
:1022400001F0FCFA2321002001F010FB634E644BE7
:102250001A686449304604F0C5FA012394E8060080
:10226000304601F0EBFA284601F09AF94FF47A7300
:1022700000934FF480731A465B495C4803F09AFF61
:102280001DE05B4A72E70EAC5A4D0FCD0FC495E8C6
:10229000070003C422700EA8FDF782FF424C2060A5
:1022A0006423C2B20EA94548FEF748FF22880EA952
:1022B0003E4803F058FFB6E74F4B1B782BBB4FF45B
:1022C00080724949494804F0F6F94C4B1B78002BC1
:1022D000F2D0FFF7D9FB0446494B1880494D2846F8
:1022E000FDF75EFF304B186042F21073E2B22946F0
:1022F0003248FEF723FF4FF480720021284604F095
:1023000037FC3E4B00221A70D6E7354B1B68013B69
:102310003B2B00F29080DFE813F077009200A900D9
:10232000C100D900F1000901210138014F01670105
:102330007E019401AB01C201D901F0010702230221
:102340003902500268027F029702AF02C702DF0221
:10235000F7020F0326033D0355036C0384039C031C
:10236000B403CF03E703FF0316042E0446045D0401
:1023700075048D04A604BF04D804F10409052205E0
:102380003B0553056C058705A005B905D205EB058E
:10239000030600BF04070020E8030020F807002020
:1023A000AC00002050BC0008AC0100207C060020DE
:1023B000BC03002048BC000870BC00080C040020CE
:1023C00000000240000402404C070020A0BC0008AE
:1023D000A40700200000002014BC0008F80300201F
:1023E00010000020C8BC00087C050020C0060020AA
:1023F00040BC000884BC00080C000020F60300204C
:10240000F40300203C040020D34840F2B1130362DF
:10241000072380F82430002380F82530012380F83A
:102420002630FF2380F82A30642380F82B300823DD
:102430000385FEF7C7FEC94B00221A703FE7C64866
:1024400040F2B1130362072380F82430012380F89F
:10245000253080F82630FF2380F82A30642380F866
:102460002B3008230385FEF7ADFEE4E7BA4840F2BF
:10247000B1130362072380F82430022380F825304B
:10248000012380F82630FF2380F82A30642380F867
:102490002B3008230385FEF795FECCE7AE4840F2CB
:1024A000B1130362072380F82430032380F825301A
:1024B000012380F82630FF2380F82A30642380F837
:1024C0002B3008230385FEF77DFEB4E7A24840F2D7
:1024D000B1130362072380F82430042380F82530E9
:1024E000012380F82630FF2380F82A30642380F807
:1024F0002B3008230385FEF765FE9CE7964840F2E3
:10250000B1130362072380F82430052380F82530B7
:10251000012380F82630FF2380F82A30642380F8D6
:102520002B3008230385FEF74DFE84E78A4840F2EE
:10253000B1130362072380F82430062380F8253086
:10254000012380F82630FF2380F82A30642380F8A6
:102550002B3008230385FEF735FE6CE77E4840F2FA
:10256000B1130362072380F8243080F8253001235B
:1025700080F82630FF2380F82A30642380F82B303F
:1025800008230385FEF71EFE55E7734840F2B1139A
:102590000362072380F82430082380F825300122C5
:1025A00080F82620FF2280F82A20642280F82B2041
:1025B0000385FEF707FE3EE7674840F2B11303626A
:1025C000072380F82430092380F82530012380F880
:1025D0002630FF2380F82A30642380F82B3008232C
:1025E0000385FEF7EFFD26E75B4840F2B113036277
:1025F000082380F82430002280F82520012280F86A
:102600002620FF2280F82A20642280F82B200385D0
:10261000FEF7D8FD0FE7504840F2B11303620823DC
:1026200080F82430012280F8252080F82620FF221F
:1026300080F82A20642280F82B200385FEF7C2FD53
:10264000F9E6454840F2B1130362082380F82430CC
:10265000022280F82520012280F82620FF2280F81F
:102660002A20642280F82B200385FEF7ABFDE2E6EA
:10267000394840F2B1130362082380F82430032262
:1026800080F82520012280F82620FF2280F82A20C9
:10269000642280F82B200385FEF794FDCBE62E48BC
:1026A00040F2B1130362082380F82430042280F83A
:1026B0002520012280F82620FF2280F82A2064228B
:1026C00080F82B200385FEF77DFDB4E6224840F21A
:1026D000B1130362082380F82430052280F82520F6
:1026E000012280F82620FF2280F82A20642280F828
:1026F0002B200385FEF766FD9DE6174840F2B113D7
:102700000362082380F82430062280F82520012265
:1027100080F82620FF2280F82A20642280F82B20CF
:102720000385FEF74FFD86E60B4840F2B1130362C6
:10273000082380F82430072280F82520012280F821
:102740002620FF2280F82A20642280F82B2003858F
:10275000FEF738FD6FE600BF0C0400200C000020DF
:10276000D44840F2B1130362082380F8243080F883
:102770002530012280F82620FF2280F82A206422BA
:1027800080F82B200385FEF71DFD54E6C94840F272
:10279000B1130362082380F82430092280F8252031
:1027A000012280F82620FF2280F82A20642280F867
:1027B0002B200385FEF706FD3DE6BE4840F2B1132F
:1027C0000362092380F82430002380F82530012398
:1027D00080F82630FF2380F82A30642380F82B30DD
:1027E00008230385FEF7EEFC25E6B24840F2B1135C
:1027F0000362092380F82430012380F8253080F813
:102800002630FF2380F82A30642380F82B300823F9
:102810000385FEF7D7FC0EE6A64840F2B11303622B
:10282000092380F82430022380F82530012380F822
:102830002630FF2380F82A30642380F82B300823C9
:102840000385FEF7BFFCF6E59A4840F2B113036238
:10285000092380F82430032380F82530012380F8F1
:102860002630FF2380F82A30642380F82B30082399
:102870000385FEF7A7FCDEE58E4840F2B113036244
:10288000092380F82430042380F82530012380F8C0
:102890002630FF2380F82A30642380F82B30082369
:1028A0000385FEF78FFCC6E5824840F2B113036250
:1028B000092380F82430052380F82530012380F88F
:1028C0002630FF2380F82A30642380F82B30082339
:1028D0000385FEF777FCAEE5764840F2B11303625C
:1028E000092380F82430062380F82530012380F85E
:1028F0002630FF2380F82A30642380F82B30082309
:102900000385FEF75FFC96E56A4840F2B113036267
:10291000092380F82430072380F82530012380F82C
:102920002630FF2380F82A30642380F82B300823D8
:102930000385FEF747FC7EE55E4840F2B113036273
:10294000092380F82430082380F82530012280F8FC
:102950002620FF2280F82A20642280F82B2003857D
:10296000FEF730FC67E5534840F2B11303620923D8
:1029700080F8243080F82530012380F82630FF23AA
:1029800080F82A30642380F82B3008230385FEF773
:1029900019FC50E5474840F2B11303620A2380F85E
:1029A0002430002380F82530012380F82630FF23CF
:1029B00080F82A30642380F82B3008230385FEF743
:1029C00001FC38E53B4840F2B11303620A2380F86A
:1029D0002430012380F8253080F82630FF2380F84A
:1029E0002A30642380F82B3008230385FEF7EAFBA6
:1029F00021E5304840F2B11303620A2380F8243005
:102A0000022380F82530012380F82630FF2380F848
:102A10002A30642380F82B3008230385FEF7D2FB8D
:102A200009E5244840F2B11303620A2380F82430F8
:102A3000032380F82530012380F82630FF2380F817
:102A40002A30642380F82B3008230385FEF7BAFB75
:102A5000F1E4184840F2B11303620A2380F82430ED
:102A6000042380F82530012380F82630FF2380F8E6
:102A70002A30642380F82B3008230385FEF7A2FB5D
:102A8000D9E40C4840F2B11303620A2380F82430E1
:102A9000052380F82530012380F82630FF2380F8B5
:102AA0002A30642380F82B3008230385FEF78AFB45
:102AB000C1E400BF0C040020DA4840F2B113036205
:102AC0000A2380F82430062380F82530012380F87B
:102AD0002630FF2380F82A30642380F82B30082327
:102AE0000385FEF76FFBA6E4CE4840F2B113036204
:102AF0000A2380F82430072380F82530012380F84A
:102B00002630FF2380F82A30642380F82B300823F6
:102B10000385FEF757FB8EE4C24840F2B11303620F
:102B20000A2380F82430082380F82530012280F819
:102B30002620FF2280F82A20642280F82B2003859B
:102B4000FEF740FB77E4B74840F2B11303620A2373
:102B500080F82430092380F82530012380F82630BE
:102B6000FF2380F82A30642380F82B300823038564
:102B7000FEF728FB5FE4AB4840F2B11303620B237E
:102B800080F82430002380F82530012380F8263097
:102B9000FF2380F82A30642380F82B300823038534
:102BA000FEF710FB47E49F4840F2B11303620B238A
:102BB00080F82430012380F8253080F82630FF2368
:102BC00080F82A30642380F82B3008230385FEF731
:102BD000F9FA30E4934840F2B11303620B2380F812
:102BE0002430022380F82530012380F82630FF238B
:102BF00080F82A30642380F82B3008230385FEF701
:102C0000E1FA18E4874840F2B11303620B2380F81D
:102C10002430032380F82530012380F82630FF2359
:102C200080F82A30642380F82B3008230385FEF7D0
:102C3000C9FA00E47B4840F2B11303620B2380F829
:102C40002430042380F82530012380F82630FF2328
:102C500080F82A30642380F82B3008230385FEF7A0
:102C6000B1FAFFF7E8BB6F4840F2B11303620B23E0
:102C700080F82430052380F82530012380F82630A1
:102C8000FF2380F82A30642380F82B300823038543
:102C9000FEF798FAFFF7CFBB624840F2B113036228
:102CA0000B2380F82430062380F82530012380F898
:102CB0002630FF2380F82A30642380F82B30082345
:102CC0000385FEF77FFAFFF7B6BB564840F2B11313
:102CD00003620B2380F82430072380F8253001237A
:102CE00080F82630FF2380F82A30642380F82B30C8
:102CF00008230385FEF766FAFFF79DBB494840F2BB
:102D0000B11303620B2380F82430082380F82530A8
:102D1000012280F82620FF2280F82A20642280F8F1
:102D20002B200385FEF74EFAFFF785BB3D4840F2A6
:102D3000B11303620B2380F82430092380F8253077
:102D4000012380F82630FF2380F82A30642380F89E
:102D50002B3008230385FEF735FAFFF76CBB3148AB
:102D600040F2B11303620C2380F82430002380F872
:102D70002530012380F82630FF2380F82A30642391
:102D800080F82B3008230385FEF71CFAFFF753BBAE
:102D9000244840F2B11303620C2380F8243001234D
:102DA00080F8253080F82630FF2380F82A3064230D
:102DB00080F82B3008230385FEF704FAFFF73BBBAE
:102DC000184840F2B11303620C2380F82430022328
:102DD00080F82530012380F82630FF2380F82A3040
:102DE000642380F82B3008230385FEF7EBF9FFF707
:102DF00022BB0C4840F2B11303620C2380F824304C
:102E0000032380F82530012380F82630FF2380F843
:102E10002A30642380F82B3008230385FEF7D2F98B
:102E2000FFF709BB0C0400204A4840F2B1130362CB
:102E30000C2380F82430042380F82530012380F807
:102E40002630FF2380F82A30642380F82B300823B3
:102E50000385FEF7B7F9FFF7EEBA3E4840F2B1132B
:102E600003620C2380F82430052380F825300123E9
:102E700080F82630FF2380F82A30642380F82B3036
:102E800008230385FEF79EF9FFF7D5BA314840F2D3
:102E9000B11303620C2380F82430062380F8253018
:102EA000012380F82630FF2380F82A30642380F83D
:102EB0002B3008230385FEF785F9FFF7BCBA2548B8
:102EC00040F2B11303620C2380F82430072380F80A
:102ED0002530012380F82630FF2380F82A30642330
:102EE00080F82B3008230385FEF76CF9FFF7A3BAAF
:102EF000184840F2B11303620C2380F824300823F1
:102F000080F82530012280F82620FF2280F82A2030
:102F1000642280F82B200385FEF754F9FFF78BBA63
:102F20000C4840F2B11303620C2380F824300923CB
:102F300080F82530012380F82630FF2380F82A30DE
:102F4000642380F82B3008230385FEF73BF9FFF755
:102F500072BA00BF0C040020084B1B5C13F0970FE3
:102F600007D02C2807D02A2801D001207047002044
:102F70007047002070470020704700BFD6BD000892
:102F80000EB42DE9F04F84B00D9E08B9002083E205
:102F900004460EAB03930546002703E2002F40F0E2
:102FA0000A82384678E25DB12D782846FFF7D4FFD3
:102FB00000B90025039B1A1D03921B681D70E8E1F0
:102FC0000025F7E7FDB12D782846FFF7C5FFE0B1F2
:102FD000453D122D00F26582DFE815F01300630213
:102FE000630263026302630263026302630213000B
:102FF00063026302630263021E00630263026302F0
:103000001E00012102E0002100E00021039B1A1DA7
:1030100003921B681960BCE14FF0FF31F6E7002D09
:1030200040F083804FF0000A4FF0FF39D346BBF1E8
:10303000000F02D1BAF1000F7DD0B9F1FF3F00F0CF
:103040003A82BAF1000F7BD0BBF1000F01D00BFB2D
:1030500009F9039B1A1D03921B68C3F80090C3F87B
:1030600004A096E1BBF1000F33D1B9F1FF3F30D19D
:103070004FF0010B22E0BBF1000F2DD1B9F1FF3F62
:103080002AD1CB461AE04FF0000930E0BAF1000F28
:10309000CDD1002000E2B8F12E0F40D0B8F1200FC2
:1030A00040F00182BBF1000F40F0FF81B9F1FF3F1A
:1030B00040F0FD81BAF1000F40F0FB81013595F839
:1030C00000804046FFF748FF0028B0D0B8F12B0F32
:1030D000C8D0B8F12D0FCED0A94B13F8083013F09B
:1030E000040FD8D0A8F13008B9F1FF3FCBD06FF072
:1030F0000043A3EB0803A34A82FB0312DB17C3EBD5
:10310000A2034B45C2DB09EB890908EB4909BAF177
:10311000000FD3D00AEB8A0A4FEA4A0ACEE7BAF187
:10312000000FBBD14FF0010AC8E74FF0000A4FF083
:10313000FF39D346C3E7B9F1FF3F82D1D14683E7D8
:103140004FF0010A80E795B10A2202A9284603F050
:103150008BFC0546029B1878FFF7FEFE28B9039BFF
:103160001A1D03921B681D6013E1002094E10025E5
:10317000F5E7039B1A1D0392D3F800801DB90023C5
:1031800088F8003005E195F800904846FFF7E4FE26
:103190000028F4D00135434603F8019B9846F2E736
:1031A000002D00F08A812B78242B40F088814FF08D
:1031B0000008B8F1040F08DC08F1010815F8080050
:1031C000FFF7CAFE0028F4D166E1039B1A1D0392A3
:1031D0001B68D5F801201A606A791A7100225A71A9
:1031E000D7E0039B1A1D0392D3F80080002D48D02E
:1031F00095F800904846FFF7AFFE60B94FF0FF30FA
:1032000005468146C8F80090C8F80450C8F8080080
:10321000BFE0002040E10023052B07DCEA5C5849B1
:103220008A5C12F0040FF4D00133F5E78DF80090BA
:103230006B788DF801304FF0000A8DF802A0AB7862
:103240008DF80430EB788DF805308DF806A02B79D9
:103250008DF808306B798DF809308DF80AA00A22B4
:103260005146684603F000FC81460A22514601A8F7
:1032700003F0FAFB05460A22514602A803F0F4FBCC
:10328000C0E74FF0FF3005468146BBE7039B1A1DA0
:103290000392D3F80080002D6CD095F8009048463A
:1032A000FFF75AFE78B94FF0FF33184699469A4611
:1032B000C8F800A0C8F80490C8F80800C8F80C3096
:1032C00067E00020E8E00023052B07DCEA5C2C49DE
:1032D0008A5C12F0040FF4D00133F5E78DF800900A
:1032E0006B788DF801304FF0000B8DF802B0AB78A1
:1032F0008DF80430EB788DF805308DF806B02B7919
:103300008DF808306B798DF809308DF80AB00A22F3
:103310005946684603F0A8FB82460A22594601A88E
:1033200003F0A2FB81460A22594602A803F09CFB47
:1033300005F1070CAB792E2B19D05B46B8E703EBF0
:1033400083030CF1010C02EB4302A2F130030E4A9D
:10335000A2FB0112D1089CF80020094DAD5C15F0CC
:10336000040F01D00129EAD801FB03F3A0E70749C4
:103370000023F0E74FF0FF33184699469A4697E747
:10338000D6BD000867666666CDCCCCCC40420F0047
:10339000013425782846FFF7DFFD0028F8D12C2DD1
:1033A00072D000253378002B73D001363B2B6ED0C2
:1033B000002D3FF4F3AD443B302B6CD801A252F802
:1033C00023F000BFE3310008973400089734000869
:1033D00097340008973400089734000897340008A1
:1033E0009734000897340008973400089734000891
:1033F0009734000897340008973400089734000881
:10340000973400088D32000897340008973400087C
:103410009734000897340008973400089734000860
:103420009734000897340008973400089734000850
:103430009333000897340008973400089734000845
:10344000A72F0008C52F0008973400081F30000878
:103450009734000897340008473100089734000873
:103460009734000897340008973400089734000810
:103470009734000897340008973400089734000800
:1034800073310008A1310008013425468AE701277D
:1034900088E7012000E0002004B0BDE8F04F03B051
:1034A00070470020F8E70020F6E70020F4E700204E
:1034B000F2E70020F0E70020EEE70020ECE7002034
:1034C000EAE700BF30B591B0044608460AAB09935D
:1034D00004F14003089304F13403079304F12C032F
:1034E000069304F1240305930BAB049304F11C032E
:1034F00003930CAB029304F1140301930DF1370312
:10350000009323460EAA1349FFF73AFD0546D8B1AA
:1035100011490DF13A00FCF74BFEC0B99DF8373068
:10352000412B14BF00230123237462690C9B02FB0F
:1035300003F36361E2690B9B02FB03F3E361226C1B
:103540000A9B02FB03F32364284611B030BD00251B
:10355000FAE700BFF0BC0008E4BC000800B587B083
:103560008DF817100A230293012301930DF117021E
:1035700000920022782101F07DF807B05DF804FB8D
:10358000002303E0FF21054AD1540133B3F5806FD6
:1035900003D20028F6D10146F5E770475408002011
:1035A00030B585B0054600241DE0A4F15001C9B234
:1035B0002846FFF7D3FF00212846FFF7CFFF102151
:1035C0002846FFF7CBFF6423029380230193084B27
:1035D00003EBC4130093012340227821284601F015
:1035E00049F80134E4B2072CDFD905B030BD00BF83
:1035F0005408002038B50446642000F02FFBAE21AB
:103600002046FFF7ABFF054620212046FFF7A6FF27
:10361000054410212046FFF7A1FF0544B0212046B4
:10362000FFF79CFF0544C8212046FFF797FF05449C
:1036300000212046FFF792FF054410212046FFF7A6
:103640008DFF054440212046FFF788FF0544812176
:103650002046FFF783FF0544FF212046FFF77EFF4A
:103660000544A1212046FFF779FF0544A621204605
:10367000FFF774FF0544A8212046FFF76FFF0544BC
:103680003F212046FFF76AFF0544A4212046FFF7AB
:1036900065FF0544D3212046FFF760FF0544002164
:1036A0002046FFF75BFF0544D5212046FFF756FF74
:1036B0000544F0212046FFF751FF0544D92120465B
:1036C000FFF74CFF054422212046FFF747FF054442
:1036D000DA212046FFF742FF054412212046FFF77A
:1036E0003DFF0544DB212046FFF738FF054420213C
:1036F0002046FFF733FF05448D212046FFF72EFFBC
:10370000054414212046FFF729FF0544AF21204638
:10371000FFF724FFE84201D0012038BD0020FFF769
:103720002FFF2046FFF73CFF034B002018805880F6
:1037300001225A71F1E700BF4C08002010F0800F01
:1037400025D13F2923D810B4114B1B7913B1B2FAFC
:1037500082F25209012A0FD0CB0800EBC3100D4CA6
:10376000225C01F0070101238B40DB435BB2134075
:1037700023545DF8044B7047CB0800EBC310054C95
:10378000235C01F007018A4013432354F1E770479B
:103790004C080020540800202DE9F04782B08146F3
:1037A00002A800E906009846234B1B889DF800609C
:1037B00033447F2B3BDC204B5B889DF801A05344B6
:1037C0003F2B36DC00251FE01B4B18885988294405
:1037D0002044B8FA88F25209C9B2C0B2FFF7AEFF6E
:1037E0000134A6420FD907FA04F313F4004FEBD0CB
:1037F000114B18885988294420444246C9B2C0B2A6
:10380000FFF79CFFECE70135AA4508D9A9F1200391
:1038100003FB0A53019A32F813700024E1E7064AC9
:10382000138833441380484602B0BDE8F087002077
:10383000FAE70020F8E700BF4C08002030B583B05D
:10384000044602A800E906001D4600E00134207885
:1038500048B12B4602AA12E90600FFF79DFF024677
:1038600020788242F2D003B030BD0000014B1880B6
:10387000598070474C08002082B0002100910B4B0A
:103880005A6C42F480425A645A6C02F480420092AC
:10389000009A01911A6C42F080521A641B6C03F07A
:1038A00080530193019B02B0704700BF0038024073
:1038B0002DE9F0418AB000230593069307930893FE
:1038C000099303682F4A934205D02F4A934225D08B
:1038D0000AB0BDE8F081002501952C4C236B43F024
:1038E00002032363236B03F002030193019BC023B4
:1038F000059312230693032308930423099305A930
:10390000234800F095FA0295236C43F400132364D6
:10391000236C03F400130293029BD9E7002503955F
:103920001A4C236B43F002032363236B03F002035F
:103930000393039B4FF4806305934FF01208CDF877
:1039400018800327089704230993114E05A93046D0
:1039500000F06EFA08230593CDF8188007950897B4
:103960000923099305A9304600F062FA0495236CF7
:1039700043F480032364236C03F480030493049BC7
:10398000A6E700BF00540040005800400038024045
:1039900000040240F0B589B000230393049305931B
:1039A0000693079302681B4B9A4201D009B0F0BD01
:1039B0000024019403F5FE331A6C42F400421A64A9
:1039C0001A6C02F400420192019A02941A6B42F0BE
:1039D00002021A631B6B03F002030293029B4FF473
:1039E0008053039302270497032606960723079321
:1039F000094D03A9284600F01BFA302303930497CE
:103A0000059406960623079303A9284600F010FAAA
:103A1000CCE700BF003C00400004024002680E4BAF
:103A20009A4200D0704700B583B00022019203F59E
:103A30000D33196C41F0020119641B6C03F0020391
:103A40000193019B02211D2000F062F91D2000F06E
:103A50006FF903B05DF804FB0004004010B58AB0B4
:103A600000230593069307930893099303682F4A4D
:103A7000934204D02E4A93422DD00AB010BD0024A8
:103A800001942C4B5A6C42F010025A645A6C02F0AA
:103A900010020192019A02941A6B42F001021A6319
:103AA0001B6B03F001030293029B4FF4C063059369
:103AB00002230693032308930723099305A91E48AD
:103AC00000F0B6F922460121252000F021F9252039
:103AD00000F02EF9D1E700240394164B1A6C42F43F
:103AE00000321A641A6C02F400320392039A0494AE
:103AF0001A6B42F001021A631B6B03F0010304937B
:103B0000049B0C23059302230693032308930723A6
:103B1000099305A9084800F08BF922462146262082
:103B200000F0F6F8262000F003F9A6E700100140A7
:103B3000004400400038024000000240FEE7FEE77B
:103B4000FEE7FEE7FEE770477047704708B500F0F4
:103B500073F808BD08B5202000F054FA4FF4007047
:103B600000F050FA08BD000008B5024801F034FF2B
:103B700008BD00BF0407002008B5024802F040FC61
:103B800008BD00BFC006002008B5024802F038FC9E
:103B900008BD00BF7C06002008B54FF4005000F0BF
:103BA00031FA08BD034AD2F8883043F47003C2F8F2
:103BB0008830704700ED00E010B504460E4B1A78CF
:103BC0004FF47A73B3FBF2F30C4A1068B0FBF3F0D6
:103BD00000F0BCF868B90F2C01D901200AE00022DE
:103BE00021464FF0FF3000F093F8054B1C60002099
:103BF00000E0012010BD00BF1800002014000020CC
:103C00001C00002008B50B4B1A6842F400721A60C1
:103C10001A6842F480621A601A6842F480721A606C
:103C2000032000F063F80F20FFF7C6FFFFF724FE24
:103C3000002008BD003C0240034A1168034B1B787A
:103C40000B441360704700BF540C00201800002084
:103C5000014B1868704700BF540C002038B504466B
:103C6000FFF7F6FF0546B4F1FF3F02D0044B1B7887
:103C70001C44FFF7EDFF401BA042FAD338BD00BF44
:103C800018000020002808DB0901C9B200F16040DB
:103C900000F5614080F80013704700F00F00090143
:103CA000C9B2014B1954704714ED00E000B500F0A3
:103CB0000700C0F1070CBCF1040F28BF4FF0040C43
:103CC000031D062B0FD9C31E4FF0FF3E0EFA0CF05A
:103CD00021EA000199400EFA03FE22EA0E0241EAAF
:103CE00002005DF804FB0023EEE70000074AD368FA
:103CF00023F4E0631B041B0C000200F4E0600343A8
:103D000043F0BF6343F40033D360704700ED00E03D
:103D100010B50446054BD868C0F30220FFF7C6FF74
:103D200001462046FFF7AEFF10BD00BF00ED00E0EA
:103D3000002807DB00F01F02400901239340024ADC
:103D400042F82030704700BF00E100E00138B0F1D8
:103D5000807F0BD24FF0E0235861054AF02182F8B2
:103D600023100020986107221A61704701207047D4
:103D700000ED00E070B50446866DFFF769FF94F82A
:103D80003530DBB2022B06D080236365002384F834
:103D90003430012070BD05462268136823F01603F5
:103DA00013602268536923F080035361236CE3B1ED
:103DB0002268136823F0080313602268136823F055
:103DC0000103136023681B6813F0010F11D0FFF784
:103DD0003FFF431B052BF5D920236365032084F89F
:103DE0003500002384F83430D4E7A36C002BDFD1F6
:103DF000E3E7E26D3F239340B360012384F835305D
:103E0000002084F83400C5E790F83530DBB2022B8F
:103E100003D08023436501207047052380F83530A7
:103E20000268136823F0010313600020704700004C
:103E300000230F2B00F2D78070B582B065E0856853
:103E40004FEA430E032404FA0EF425EA0405CC6875
:103E500004FA0EF42C438460446824EA02044A689D
:103E6000C2F300129A40224342605CE0DC0808344E
:103E700050F8242003F00705AD004FF00F0E0EFAA6
:103E800005FE22EA0E0E0A69AA4042EA0E0240F836
:103E900024205CE0042200E0002202FA0EF22A4311
:103EA0000234514D45F82420504A94686FEA0C02C0
:103EB00024EA0C054E6816F4801F01D04CEA040574
:103EC0004A4CA560E46802EA04054E6816F4001F37
:103ED00001D04CEA0405454CE560646802EA04053B
:103EE0004E6816F4003F01D04CEA04053F4C656073
:103EF000246822404D6815F4803F01D04CEA04024A
:103F00003A4C226001330F2B6BD801229A400C6887
:103F100004EA020C32EA0404F4D14C6804F003040D
:103F2000013C012C8BD94A6802F00302032A09D014
:103F3000C4685D000322AA4024EA02048A68AA40F9
:103F40002243C2604A6802F00302022A8ED004684B
:103F50004FEA430E032202FA0EF224EA02044A68F0
:103F600002F0030202FA0EF2224302604A6812F4DF
:103F7000403FC7D0002201921D4A546C44F4804453
:103F80005464526C02F480420192019A9C08A51C70
:103F9000154A52F8255003F0030E4FEA8E0E0F22F9
:103FA00002FA0EF225EA0205124A90423FF474AF7B
:103FB00002F5806290420ED002F5806290420CD0F1
:103FC00002F5806290420AD002F5806290423FF48E
:103FD00061AF072261E701225FE702225DE703226A
:103FE0005BE702B070BD704700380140003C014003
:103FF00000380240000002400AB1816170470904A4
:104000008161704708B5054B5B69034200D108BD6B
:10401000024B5861FDF73CFEF9E700BF003C014050
:1040200003685A6912F4806F01D1002070476FF461
:1040300080625A6100230363202280F83D2080F8CB
:104040003E30026C42F00402026480F83C300120F1
:1040500070472DE9F04107460D4690461E4624E084
:10406000FFF7F6FD069BC01AB04200D8EEB9002358
:104070003B63202287F83D2087F83E303A6C42F0BF
:1040800020023A6487F83C3001201EE03B689C69BE
:1040900025EA040C1FFA8CFCBCFA8CFC4FEA5C1C71
:1040A000E04511D1B6F1FF3FDAD1C5F30743012B4B
:1040B000ECD13B685B6925EA030C1FFA8CFCBCFA67
:1040C0008CFC4FEA5C1CEBE70020BDE8F0812DE999
:1040D000F04105460E46174698463DE01A6842F400
:1040E00000721A602B686FF480625A6100232B63A0
:1040F000202285F83D2085F83E302A6C42F00402EB
:104100002A6485F83C30012034E0FFF7A1FDA0EBE4
:104110000800B84200D8FFB900232B63202285F89D
:104120003D2085F83E302A6C42F020022A6485F852
:104130003C3001201EE02B689C6926EA0404A4B2EE
:10414000003C18BF0124A4B12B685A6912F4806F97
:10415000C4D1B7F1FF3FD8D1C6F30743012BEAD151
:104160002B685C6926EA0404A4B2003C18BF012451
:10417000E9E70020BDE8F08170B504460D4616461B
:1041800023685B6913F0800F1CD12046FFF748FFBE
:10419000D0B9B5F1FF3FF3D0FFF75AFD801BA8421D
:1041A00001D8002DECD100232363202284F83D2088
:1041B00084F83E30226C42F02002226484F83C30C5
:1041C000012000E0002070BD0120FCE72DE9F04354
:1041D00085B004460D4691461F46DDF830800D9EA1
:1041E0000368196841F48071196000964346002203
:1041F0004FF00111FFF72DFF60B9236805F0FE05B0
:104200001D613346424626492046FFF760FF68B1EC
:10421000012008E023681B6813F4807F02D04FF46C
:1042200000732364032005B0BDE8F08300230393EB
:1042300023685A6903929B690393039B3246414664
:104240002046FFF799FF30B9012F0FD123685FFA9D
:1042500089F61E61E7E7236C042B01D00120E2E719
:104260002268136843F400731360F7E723684FEA8A
:1042700019221A61324641462046FFF77DFF20B9D8
:1042800023685FFA89F61E61CDE7236C042B01D009
:104290000120C8E72268136843F400731360F7E74E
:1042A000020001002DE9F04784B004460D46164691
:1042B00099460C9FDDF834800268136843F48063EC
:1042C00013600368196841F480711960CDF80080AB
:1042D0003B4600224FF00111FFF7BBFE70B95FFAB9
:1042E00085FA236805F0FE051D6143463A464149BB
:1042F0002046FFF7ECFE68B1012008E023681B6848
:1043000013F4807F02D04FF400732364032004B0C1
:10431000BDE8F0870023039323685A6903929B69E1
:104320000393039B424639462046FFF725FF80B999
:10433000B9F1010F18D12368F6B21E614246394621
:104340002046FFF719FF68B3236C042B24D001200B
:10435000DDE7236C042B01D00120D8E72268136825
:1043600043F400731360F7E72368320A1A61424688
:1043700039462046FFF700FF18B92368F6B21E61E0
:10438000DCE7236C042B01D00120C0E7226813680E
:1043900043F400731360F7E72268136843F4007373
:1043A0001360D4E72268136843F480731360CDF878
:1043B00000803B4600224FF001112046FFF749FEE6
:1043C00068B922684AF00103136143463A46094935
:1043D0002046FFF77CFE002899D0012097E723684C
:1043E0001B6813F4807F02D04FF400732364032012
:1043F0008DE700BF0200010070B504460D46164669
:1044000023685B6913F0040F1CD12046FFF708FEF8
:10441000D0B9B5F1FF3FF3D0FFF71AFC801BA842DB
:1044200001D8002DECD100232363202284F83D2005
:1044300084F83E30226C42F02002226484F83C3042
:10444000012000E0002070BD0120FCE770B50546AA
:104450000C4616462B68596911F0400F29D159694D
:1044600011F0100F15D1FFF7F3FB801BA04201D80C
:10447000002CEFD100232B63202285F83D2085F806
:104480003E302A6C42F020022A6485F83C3001203C
:1044900070BD6FF010025A6100232B63202285F853
:1044A0003D2085F83E302A6C2A6485F83C30012096
:1044B000EEE70020ECE70000002800F0CC8070B5AB
:1044C000044690F83D30002B77D0242384F83D300B
:1044D0002268136823F0010313602268136843F411
:1044E000004313602268136823F40043136000F054
:1044F000EBFD62685A4B9A4264D85A4B98428CBF83
:1045000000230123002B40F0A8805749A1FB003174
:104510008B0C25686A6822F03F0242EA91426A6089
:1045200021680A6A22F03F0266684D4DAE424FD8BC
:10453000013313430B622168CA6922F44F4222F00F
:10454000FF026568464B9D424CD8431E6D00B3FB8D
:10455000F5F3013340F6FC70034278D0C3F30B034C
:104560001A43CA6121680B6823F0C003E269206A1C
:10457000024313430B6021688B6823F4034323F049
:10458000FF032269E068024313438B602168CB6814
:1045900023F0FF036269A06902431343CB602268E2
:1045A000136843F00103136000202064202384F883
:1045B0003D30206384F83E0070BD80F83C30FFF74A
:1045C00077F982E7294B98428CBF0023012399E7B2
:1045D0004FF4967505FB03F3254DA5FB03539B098B
:1045E0000133A6E7A668BEB9431E05EB450CB3FB35
:1045F000FCF30133C3F30B03B3FA83F35B0943BB4F
:10460000C6B9431E05EB4505B3FBF5F30133C3F310
:104610000B0343F40043A3E7431E05EB850C0CEBAF
:104620008C0CB3FBFCF30133C3F30B03B3FA83F33A
:104630005B09E4E7431E05EB850505EB8505B3FB48
:10464000F5F30133C3F30B0343F4404388E704233A
:1046500086E7012384E7012070470120ACE700BF13
:10466000A08601007F841E0083DE1B43FF083D00FF
:10467000D34D62102DE9F04383B004460F469046B7
:1046800099460C9EFFF7E4FA054694F83D00C0B247
:10469000202803D0022003B0BDE8F0830095192341
:1046A00001224B492046FFF7D4FC002840F08980C6
:1046B00094F83C30012B00F08680012384F83C30D4
:1046C00023681A6812F0010F03D11A6842F0010240
:1046D0001A602268136823F400631360212384F8AE
:1046E0003D30402384F83E30002323640A9B6362FC
:1046F000BDF82C306385638D2385364BE3620195CD
:1047000000964B46424639462046FFF75FFD00289B
:104710005BD1238D002B35D02A4631462046FFF74A
:104720002BFD20BB626A236812781A61626A531CEF
:104730006362218D013989B22185638D9BB2013B72
:104740009BB263852368586910F0040FE1D00029FB
:10475000DFD052781A61636A01336362238D013BB3
:104760002385638D9BB2013B9BB26385D1E7236CAC
:10477000042B01D001208EE72268136843F40073F4
:104780001360F7E72A4631462046FFF735FE50B161
:10479000236C042B01D001207DE72268136843F4C9
:1047A00000731360F7E72268136843F40073136023
:1047B000202384F83D30002384F83E3084F83C30D8
:1047C00069E7022067E7022065E7012063E700BF91
:1047D000020010000000FFFF2DE9F04387B00446FF
:1047E0000F4690469946109EFFF732FA054694F818
:1047F0003D00C0B2202804D00227384607B0BDE8EB
:10480000F08300951923012288492046FFF721FCF7
:10481000002840F0438194F83C30012B00F04081A7
:10482000012384F83C3023681A6812F0010F03D189
:104830001A6842F001021A602268136823F40063C8
:104840001360222384F83D30402384F83E30002357
:1048500023640E9B6362BDF83C306385638D2385C2
:10486000734BE362019500964B464246394620461B
:10487000FFF718FD0746002840F01481238D5BB92F
:10488000029323685A6902929A690292029A1A68FC
:1048900042F400721A6075E0012B0AD0022B1AD084
:1048A0000023059323685A6905929B690593059B2C
:1048B00068E02268136823F4806313600023039385
:1048C00023685A6903929A690392039A1A6842F418
:1048D00000721A6056E02268136823F48063136044
:1048E0002268136843F40063136000230493236871
:1048F0005A6904929B690493049B43E02A4631461B
:104900002046FFF7A3FD002840F0CE8023681A69F7
:10491000636A1A70636A01336362238D013B2385E6
:10492000638D9BB2013B9BB263852BE000953346C0
:10493000002240492046FFF78CFB002840F0B6805B
:104940002268136843F40073136023681A69636A6A
:104950001A70626A531C6362238D013B2385638D49
:104960009BB2013B9BB2638523681B695370636AEA
:1049700001336362238D013B2385638D9BB2013B31
:104980009BB26385238D002B7FD0032B54D8012B42
:10499000B4D0022BCAD000953346002225492046C8
:1049A000FFF757FB002840F083802268136823F448
:1049B0008063136023681A69636A1A70636A01333B
:1049C0006362238D013B2385638D9BB2013B9BB2C8
:1049D000638500953346002216492046FFF739FBD0
:1049E000002867D12268136843F4007313602368BA
:1049F0001A69636A1A70626A531C6362238D013BF1
:104A00002385638D9BB2013B9BB2638523681B6941
:104A10005370636A01336362238D013B2385638D89
:104A20009BB2013B9BB26385ACE700BF0200100064
:104A30000000FFFF040001002A4631462046FFF730
:104A400005FD002838D123681A69636A1A70626A02
:104A5000531C6362238D013B2385638D9BB2013B15
:104A60009BB263852368596911F0040F8AD01B69D2
:104A70005370636A01336362238D013B2385638D29
:104A80009BB2013B9BB263857CE7202384F83D30D9
:104A9000002384F83E3084F83C30AEE60227ACE6D2
:104AA0000227AAE60127A8E60127A6E60127A4E631
:104AB0000127A2E60127A0E601279EE6002800F0D4
:104AC000E08170B582B00446036813F0010F3BD05B
:104AD0009F4B9B6803F00C03042B2CD09C4B9B68D2
:104AE00003F00C03082B21D06368B3F5803F4FD04F
:104AF000B3F5A02F52D0964B1A6822F480321A6078
:104B00001A6822F480221A606368002B50D0FFF7E5
:104B10009FF805468E4B1B6813F4003F14D1FFF736
:104B200097F8401B6428F5D90320B1E1884B5B68F6
:104B300013F4800FD8D0864B1B6813F4003F03D0CA
:104B40006368002B00F09F81236813F0020F54D09C
:104B50007F4B9B6813F00C0F3ED07D4B9B6803F09E
:104B60000C03082B33D0E368002B68D0794B01226B
:104B70001A60FFF76DF80546754B1B6813F0020FBE
:104B800054D1FFF765F8401B0228F5D903207FE1D7
:104B90006F4A136843F480331360B5E76C4B1A68AF
:104BA00042F480221A601A6842F480321A60ABE73D
:104BB000FFF74EF80546664B1B6813F4003FC3D061
:104BC000FFF746F8401B6428F5D9032060E1604BED
:104BD0005B6813F4800FC6D15D4B1B6813F0020FA6
:104BE00003D0E368012B40F05081594A136823F049
:104BF000F803216943EAC1031360236813F0080F27
:104C000042D063696BB3534B0122C3F8802EFFF788
:104C10001FF805464E4B5B6F13F0020F34D1FFF7C0
:104C200017F8401B0228F5D9032031E1484A1368E0
:104C300023F0F803216943EAC1031360DDE7454B24
:104C400000221A60FFF704F80546414B1B6813F079
:104C5000020FD2D0FEF7FCFF401B0228F5D903203B
:104C600016E13C4B0022C3F8802EFEF7F1FF05460B
:104C7000374B5B6F13F0020F06D0FEF7E9FF401BC6
:104C80000228F5D9032003E1236813F0040F77D03D
:104C90002F4B1B6C13F0805F33D1002301932C4BFF
:104CA0001A6C42F080521A641B6C03F0805301931B
:104CB000019B0125284B1B6813F4807F23D0A36838
:104CC000012B34D0052B38D0214B1A6F22F0010272
:104CD0001A671A6F22F004021A67A368002B3DD0EE
:104CE000FEF7B6FF06461A4B1B6F13F0020F46D1B4
:104CF000FEF7AEFF801B41F288339842F3D90320C0
:104D0000C6E00025D6E7144A136843F480731360A5
:104D1000FEF79EFF0646104B1B6813F4807FCED132
:104D2000FEF796FF801B0228F5D90320B0E0084A61
:104D3000136F43F001031367CFE7054B1A6F42F07F
:104D400004021A671A6F42F001021A67C5E700BF32
:104D5000003802400000474200700040FEF778FF34
:104D60000646524B1B6F13F0020F08D0FEF770FF80
:104D7000801B41F288339842F3D9032088E0EDB9D3
:104D8000A369002B00F08380484A926802F00C026D
:104D9000082A51D0022B17D0454B00221A66FEF785
:104DA00057FF0446414B1B6813F0007F42D0FEF7CB
:104DB0004FFF001B0228F5D9032069E03B4A136C22
:104DC00023F080531364DBE7394B00221A66FEF7A9
:104DD0003FFF0546354B1B6813F0007F06D0FEF7FA
:104DE00037FF401B0228F5D9032051E0E369226A0E
:104DF0001343626A43EA8213A26A5208013A43EA01
:104E00000243E26A43EA0263284A5360284B0122C4
:104E10001A66FEF71DFF0446244B1B6813F0007F43
:104E200006D1FEF715FF001B0228F5D903202FE05D
:104E300000202DE000202BE0012B2BD01B4B5B68CA
:104E400003F48001E269914226D103F03F02216A16
:104E50008A4223D1616A47F6C0721A40B2EB811FC1
:104E60001ED103F44031A26A5208013AB1EB024F5D
:104E700018D103F07063E26AB3EB026F14D1002023
:104E800006E001207047012002E0012000E0002040
:104E900002B070BD0120FBE70120F9E70120F7E730
:104EA0000120F5E70120F3E70120F1E70038024097
:104EB0000000474208B5264B9B6803F00C03042B07
:104EC00041D0082B41D1224B5A6802F03F025B6867
:104ED00013F4800F12D01E4B5968C1F388111D487E
:104EE0000023A1FB0001FBF7F7FE194B5B68C3F33E
:104EF000014301335B00B0FBF3F027E0144B58682B
:104F0000C0F388104FEA401CBCEB000C6EEB0E0E99
:104F10004FEA8E1343EA9C634FEA8C11B1EB0C010C
:104F200063EB0E03DB0043EA5173C90011EB000C85
:104F300043F10003990200234FEA8C2041EA9C517F
:104F4000FBF7CAFED1E7034800E0034808BD00BFF5
:104F50000038024040787D010024F400002800F071
:104F60009B8070B50D4604464F4B1B6803F007034A
:104F70008B4208D2CBB24C4A1370136803F007037C
:104F80008B4240F08B80236813F0020F17D013F090
:104F9000040F04D0454A936843F4E05393602368B8
:104FA00013F0080F04D0414A936843F460439360C0
:104FB0003E4A936823F0F003A1680B439360236893
:104FC00013F0010F32D06368012B21D09A1E012A01
:104FD00025D9364A126812F0020F61D033498A6827
:104FE00022F0030213438B60FEF732FE06462F4B7E
:104FF0009B6803F00C036268B3EB820F16D0FEF7D8
:1050000027FE801B41F288339842F0D9032042E00A
:10501000264A126812F4003FE0D101203BE0234A07
:10502000126812F0007FD9D1012034E01E4B1B68BA
:1050300003F00703AB4207D9EAB21B4B1A701B6897
:1050400003F00703AB422DD1236813F0040F06D001
:10505000164A936823F4E053E1680B439360236896
:1050600013F0080F07D0114A936823F460432169B5
:1050700043EAC1039360FFF71DFF0C4B9B68C3F32A
:1050800003130B4AD35CD8400A4B18600A4B1868CC
:10509000FEF792FD002070BD012070470120FAE765
:1050A0000120F8E70120F6E7003C0240003802400A
:1050B00008BD0008140000201C000020014B1868E7
:1050C000704700BF1400002008B5FFF7F7FF044B3E
:1050D0009B68C3F38223034AD35CD84008BD00BF5A
:1050E0000038024000BD000808B5FFF7E7FF044B99
:1050F0009B68C3F34233034AD35CD84008BD00BF6A
:105100000038024000BD00082DE9F04782B0054696
:10511000884617461E46FEF79BFD0A9B1B1A03EBAB
:105120000609FEF795FD8246284B1B68C3F3CB3377
:1051300009FB03F301932B689C6838EA04040CBF55
:1051400001230023BB423DD0B6F1FF3FF3D0FEF771
:105150007FFDA0EB0A00484507D2019A02B14A46FA
:10516000019B013B01939146E5E72A68536823F0D0
:10517000E00353606B68B3F5827F0BD0AB6AB3F585
:10518000005F14D0012385F85130002385F850309A
:10519000032018E0AB68B3F5004F02D0B3F5806F81
:1051A000ECD12A68136823F040031360E6E72A680D
:1051B000136823F4005313602A68136843F4005300
:1051C0001360DFE7002002B0BDE8F0871400002084
:1051D00010B584B00446164B1868164BA3FB00307C
:1051E000400D4FF47A7303FB00F003906368B3F54E
:1051F000827F0BD0039BBBB1039B013B03932368CE
:105200009B6813F0800FF5D100200EE000920B4652
:10521000002280212046FFF777FF30B1636D43F015
:1052200020036365032000E0002004B010BD00BF30
:1052300014000020819F5E1610B582B004460B4614
:105240004168B1F5827F14D06168B1F5827F2AD1BF
:10525000A168B1F5806F19D000920022802120460C
:10526000FFF752FF30B3636D43F020036365032003
:1052700020E08168B1F5004F02D0B1F5806FE3D135
:105280002068016821F040010160DDE70092002202
:1052900001212046FFF738FF60B1636D43F0200322
:1052A0006365032006E00092002201212046FFF7FB
:1052B0002BFF08B902B010BD636D43F02003636596
:1052C0000320F7E700285AD010B50446436A33B9E3
:1052D0004368B3F5827F05D00023C36102E0002359
:1052E000036143610023A36294F85130002B40D046
:1052F000022384F851302268136823F040031360BE
:10530000636803F48273A26802F404421343E26800
:1053100002F400621343226902F00202134362693D
:1053200002F001021343A26902F400721343E2691E
:1053300002F038021343226A02F080021343A26A89
:1053400002F40052216813430B60638B03F00403E3
:10535000626A02F01002216813434B602268D3692D
:1053600023F40063D36100206065012384F8513089
:1053700010BD84F850302046FEF70CFBB8E7012042
:1053800070472DE9F04383B01D4690F85030012B53
:1053900000F0D180044688469146012380F85030C1
:1053A000FEF756FC074694F85160F6B2012E40F025
:1053B000AF80B8F1000F00F0AC80B9F1000F00F041
:1053C000A880032384F8513000236365C4F830803B
:1053D000A4F83490A4F83690A363A387E3876364AA
:1053E0002364A368B3F5004F1ED023681A6812F037
:1053F000400F03D11A6842F040021A60E368B3F527
:10540000006F1CD0636813B1B9F1010F52D1226B48
:10541000236812781A73236B01332363E38E9BB2E4
:10542000013B9BB2E38645E02268136823F040030A
:1054300013602268136843F480431360D5E7636800
:1054400013B1B9F1010F16D1226B23681288DA600B
:10545000236B02332363E38E9BB2013B9BB2E38653
:1054600009E0FEF7F5FBC01BA84202D3B5F1FF3FF0
:1054700059D1002D59D0E38E9BB2002B33D0236835
:105480009A6812F0020FECD0226B1288DA60236B5C
:1054900002332363E38E9BB2013B9BB2E386EAE7D0
:1054A000FEF7D6FBC01BA84202D3B5F1FF3F3ED1A9
:1054B000002D3ED0E38E9BB2ABB123689A6812F008
:1054C000020FEDD0226B12781A73236B0133236322
:1054D000B4F836C01FFA8CFC0CF1FF3C1FFA8CFCB0
:1054E000A4F836C0E6E73A4629462046FFF770FEA4
:1054F00008B120236365A36833B901932368DA6890
:1055000001929B680193019B636D13B9002600E033
:105510000226012384F85130002384F850303046AD
:1055200003B0BDE8F0830326F3E70326F1E7032683
:10553000EFE70326EDE70226F1E72DE9F04383B01C
:105540001F460A9D90F85030012B00F01081044650
:1055500088469146012380F85030FEF779FB0646D5
:1055600094F85130DBB26268012B0AD0B2F5827F29
:1055700040F0E380A268002A40F0E980042B40F06C
:10558000E880B8F1000F00F0E680B9F1000F00F0FC
:10559000E480002F00F0E38094F85130DBB2042B5C
:1055A00002D0052384F8513000236365C4F8389095
:1055B000E787A787C4F83080E786A78623646364FB
:1055C00023681A6812F0400F03D11A6842F04002B3
:1055D0001A60E368B3F5006F11D063680BB1012F57
:1055E0000BD1226B236812781A73236B0133236368
:1055F000E38E9BB2013B9BB2E38601276BE06368BD
:105600000BB1012F0BD1226B23681288DA60236B58
:1056100002332363E38E9BB2013B9BB2E3860127F7
:105620001CE023689A6812F0010F0ED0E28F92B24C
:105630005AB1DA68A36B1A80A36B0233A363E38FBA
:105640009BB2013B9BB2E3870127FEF701FB801B66
:10565000A84203D3B5F1FF3F40F08380E38E9BB2B5
:105660001BB9E38F9BB2002B53D023689A6812F0CA
:10567000020FD6D0E28E92B2002AD2D0002FD0D024
:10568000226B1288DA60236B02332363E38E9BB2B2
:10569000013B9BB2E3860027C3E723689A6812F0B8
:1056A000010F0ED0E28F92B25AB1DA68A36B1A7072
:1056B000A36B0133A363E38F9BB2013B9BB2E387F0
:1056C0000127FEF7C5FA831BAB4202D3B5F1FF3FBA
:1056D00049D1002D49D0E38E9BB213B9E38F9BB221
:1056E000BBB123689A6812F0020FD6D0E28E92B254
:1056F000002AD2D0002FD0D0226B12781A73236BDD
:1057000001332363E38E9BB2013B9BB2E386002708
:10571000C3E7324629462046FFF75AFD48B9A36839
:1057200063B901932368DA6801929B680193019B36
:1057300004E020236365012000E00220012384F8B7
:105740005130002384F8503003B0BDE8F0830220CC
:10575000F4E70220F2E70120F0E70120EEE7012064
:10576000ECE70320EAE70320E8E70320E6E702206E
:10577000EAE72DE9F04383B00446884691461D468A
:105780004068B0F5827F38D094F85030012B00F09B
:10579000AE80012384F85030FEF75AFA074694F899
:1057A0005160F6B2012E40F08F80B8F1000F00F08A
:1057B0008C80B9F1000F00F08880042384F8513008
:1057C00000236365C4F83880A4F83C90A4F83E90A8
:1057D0002363A386E38623646364A368B3F5004F61
:1057E00019D023681A6812F0400F03D11A6842F0EA
:1057F00040021A60E3681BB341E0A368002BC3D1E9
:10580000042384F85130009513460A462046FFF7DA
:1058100094FE06465FE02268136823F0400313609D
:105820002268136823F480431360DAE7FEF710FA66
:10583000C01BA84202D3B5F1FF3F50D1002D50D07C
:10584000E38F9BB2002B33D023689A6812F0010FCC
:10585000ECD0A26B1B7B1370A36B0133A363E38FAC
:105860009BB2013B9BB2E387EAE7FEF7F1F9C01B6D
:10587000A84202D3B5F1FF3F35D1002D35D0E38FDB
:105880009BB2ABB123689A6812F0010FEDD0DA68D1
:10589000A36B1A80A36B0233A363B4F83EC01FFA54
:1058A0008CFC0CF1FF3C1FFA8CFCA4F83EC0E6E730
:1058B0003A4629462046FFF7BFFC08B1202363651E
:1058C000636D13B9002600E00226012384F85130ED
:1058D000002384F85030304603B0BDE8F08303263F
:1058E000F3E70326F1E70326EFE70326EDE70226B9
:1058F000F1E790F85100704710B4036A046A24F08D
:1059000001040462846924F0F00C4CEA021223F0D2
:105910000A030B43826103625DF8044B704710B4C5
:10592000036A23F0100303628469036A24F4704C51
:105930004CEA023223F0A00343EA011382610362BE
:105940005DF8044B7047836823F070030B4343F00A
:10595000070383607047000090F83D30DBB2012BF5
:105960002FD1022380F83D300268D36843F0010351
:10597000D3600368154A934218D0B3F1804F15D015
:10598000A2F57C42934211D002F5806293420DD081
:1059900002F58062934209D002F59A32934205D013
:1059A0001A6842F001021A60002070479A6802F0FB
:1059B0000702062A07D01A6842F001021A60002086
:1059C0007047012070470020704700BF0000014071
:1059D000704770477047704710B5044603681A69EE
:1059E00012F0020F11D0DA6812F0020F0DD06FF032
:1059F00002021A610123037703689B6913F0030F06
:105A000070D0FFF7E6FF0023237723681A6912F0AE
:105A1000040F12D0DA6812F0040F0ED06FF00402F7
:105A20001A610223237723689B6913F4407F5FD0B8
:105A30002046FFF7CEFF0023237723681A6912F070
:105A4000080F12D0DA6812F0080F0ED06FF00802BB
:105A50001A61042323772368DB6913F0030F4ED008
:105A60002046FFF7B6FF0023237723681A6912F058
:105A7000100F12D0DA6812F0100F0ED06FF0100273
:105A80001A61082323772368DB6913F4407F3DD034
:105A90002046FFF79EFF0023237723681A6912F040
:105AA000010F03D0DA6812F0010F36D123681A69AA
:105AB00012F0800F03D0DA6812F0800F34D123681F
:105AC0001A6912F0400F03D0DA6812F0400F32D199
:105AD00023681A6912F0200F03D0DA6812F0200F41
