:020000040800F2
:1000000000000220154C0008B9260008BB26000895
:10001000BD260008BF260008C12600080000000019
:10002000000000000000000000000000C3260008DF
:10003000C526000800000000C7260008C9260008E1
:10004000654C0008654C0008654C0008654C0008CC
:10005000654C0008654C0008654C0008654C0008BC
:10006000654C0008654C0008654C0008654C0008AC
:10007000654C0008654C0008654C0008654C00089C
:10008000654C0008654C0008654C00080000000045
:10009000000000000000000000000000D126000861
:1000A000654C0008654C0008654C0008654C00086C
:1000B000654C0008654C0008654C0008654C00085C
:1000C000654C0008654C0008654C0008654C00084C
:1000D000654C0008DD260008ED2600080000000041
:1000E000654C0008654C0008654C000800000000E5
:1000F000000000000000000000000000654C000847
:1001000000000000654C0008654C0008654C0008C4
:1001100000000000000000000000000000000000DF
:10012000654C0008654C0008654C0008654C0008EB
:10013000654C000800000000000000000000000006
:10014000000000000000000000000000654C0008F6
:10015000654C0008654C0008654C0008654C0008BB
:10016000654C0008654C000800000000000000001D
:10017000000000000000000000000000000000007F
:1001800000000000654C00080000000000000000B6
:08019000654C0008654C0008F5
:1001A000034613F8012B002AFBD1181A01387047B7
:1001B00010F8012B11F8013B012A28BF9A42F7D011
:1001C000D01A70470000000000000000000000008E
:1001D00001F0FF01102A2BDB10F0070F08D010F8F8
:1001E000013B013A8B422DD010F0070F42B3F6D1FC
:1001F000F0B441EA012141EA014122F007047FF015
:1002000000070023F0E80256083C85EA010586EA6B
:10021000010685FA47F5A3FA87F586FA47F6A5FAA7
:1002200087F68EB9EED1F0BC01F0FF0102F00702B3
:1002300032B110F8013B013A83EA010313B1F8D15E
:100240000020704701387047002D06BF354603383F
:10025000073815F0010F07D1013015F4807F02BF78
:10026000013015F4C03F0130F0BC0138704700BFC9
:1002700081F0004102E000BF83F0004330B54FEA57
:1002800041044FEA430594EA050F08BF90EA020FC4
:100290001FBF54EA000C55EA020C7FEA645C7FEA57
:1002A000655C00F0E2804FEA5454D4EB5555B8BF7A
:1002B0006D420CDD2C4480EA020281EA030382EAEB
:1002C000000083EA010180EA020281EA0303362D7D
:1002D00088BF30BD11F0004F4FEA01314FF4801C50
:1002E0004CEA113102D0404261EB410113F0004F62
:1002F0004FEA03334CEA133302D0524263EB430319
:1003000094EA050F00F0A780A4F10104D5F1200EB6
:100310000DDB02FA0EFC22FA05F2801841F1000111
:1003200003FA0EF2801843FA05F359410EE0A5F1E5
:1003300020050EF1200E012A03FA0EFC28BF4CF016
:10034000020C43FA05F3C01851EBE37101F00045CC
:1003500007D54FF0000EDCF1000C7EEB00006EEBD9
:100360000101B1F5801F1BD3B1F5001F0CD3490863
:100370005FEA30004FEA3C0C04F101044FEA4452BA
:1003800012F5800F80F09A80BCF1004F08BF5FEA41
:10039000500C50F1000041EB045141EA050130BD21
:1003A0005FEA4C0C404141EB0101013C28BFB1F533
:1003B000801FE9D291F0000F04BF01460020B1FA7E
:1003C00081F308BF2033A3F10B03B3F120020CDA51
:1003D0000C3208DD02F1140CC2F10C0201FA0CF02F
:1003E00021FA02F10CE002F11402D8BFC2F1200C94
:1003F00001FA02F120FA0CFCDCBF41EA0C0190404A
:10040000E41AA2BF01EB0451294330BD6FEA040492
:100410001F3C1CDA0C340EDC04F11404C4F120027D
:1004200020FA04F001FA02F340EA030021FA04F38F
:1004300045EA030130BDC4F10C04C4F1200220FAE6
:1004400002F001FA04F340EA0300294630BD21FA24
:1004500004F0294630BD94F0000F83F4801306BFEA
:1004600081F480110134013D4EE77FEA645C18BFDE
:100470007FEA655C29D094EA050F08BF90EA020F75
:1004800005D054EA000C04BF1946104630BD91EA6D
:10049000030F1EBF0021002030BD5FEA545C05D170
:1004A0004000494128BF41F0004130BD14F58004AF
:1004B0003CBF01F5801130BD01F0004545F0FE4123
:1004C00041F470014FF0000030BD7FEA645C1ABF58
:1004D000194610467FEA655C1CBF0B46024650EA8F
:1004E000013406BF52EA033591EA030F41F40021BB
:1004F00030BD00BF90F0000F04BF0021704730B541
:100500004FF4806404F132044FF000054FF0000115
:1005100050E700BF90F0000F04BF0021704730B5D6
:100520004FF4806404F1320410F0004548BF4042AB
:100530004FF000013EE700BF42004FEAE2014FEA00
:1005400031014FEA02701FBF12F07F4393F07F4FDB
:1005500081F06051704732F07F4208BF704793F0DE
:100560007F4F04BF41F40021704730B54FF46074F1
:1005700001F0004521F000411CE700BF50EA0102F4
:1005800008BF704730B54FF000050AE050EA01029D
:1005900008BF704730B511F0004502D5404261EB0D
:1005A00041014FF4806404F132045FEA915C3FF44E
:1005B000D8AE4FF003025FEADC0C18BF03325FEAEB
:1005C000DC0C18BF033202EBDC02C2F1200300FA9C
:1005D00003FC20FA02F001FA03FE40EA0E0021FAC1
:1005E00002F11444BDE600BF70B54FF0FF0C4CF4AF
:1005F000E06C1CEA11541DBF1CEA135594EA0C0F61
:1006000095EA0C0F00F0DEF82C4481EA030621EA9B
:100610004C5123EA4C5350EA013518BF52EA0335D6
:1006200041F4801143F4801338D0A0FB02CE4FF088
:100630000005E1FB02E506F00042E0FB03E54FF0B8
:100640000006E1FB03569CF0000F18BF4EF0010EB0
:10065000A4F1FF04B6F5007F64F5407404D25FEAAC
:100660004E0E6D4146EB060642EAC62141EA55515F
:100670004FEAC52040EA5E504FEACE2EB4F1FD0CA1
:1006800088BFBCF5E06F1ED8BEF1004F08BF5FEA1F
:10069000500E50F1000041EB045170BD06F00046D1
:1006A00046EA010140EA020081EA0301B4EB5C047E
:1006B000C2BFD4EB0C0541EA045170BD41F4801176
:1006C0004FF0000E013C00F3AB8014F1360FDEBF9B
:1006D000002001F0004170BDC4F10004203C35DA77
:1006E0000C341BDC04F11404C4F1200500FA05F3FA
:1006F00020FA04F001FA05F240EA020001F000429B
:1007000021F0004110EBD37021FA04F642EB060110
:100710005EEA430E08BF20EAD37070BDC4F10C043A
:10072000C4F1200500FA04F320FA05F001FA04F2FE
:1007300040EA020001F0004110EBD37041F10001EA
:100740005EEA430E08BF20EAD37070BDC4F12005F5
:1007500000FA05F24EEA020E20FA04F301FA05F25D
:1007600043EA020321FA04F001F0004121FA04F205
:1007700020EA020000EBD3705EEA430E08BF20EAD5
:10078000D37070BD94F0000F0FD101F0004640000F
:1007900041EB010111F4801F08BF013CF7D041EA91
:1007A000060195F0000F18BF704703F00046520095
:1007B00043EB030313F4801F08BF013DF7D043EA66
:1007C0000603704794EA0C0F0CEA135518BF95EA1C
:1007D0000C0F0CD050EA410618BF52EA4306D1D1A3
:1007E00081EA030101F000414FF0000070BD50EAC2
:1007F000410606BF1046194652EA430619D094EA4C
:100800000C0F02D150EA013613D195EA0C0F05D135
:1008100052EA03361CBF104619460AD181EA030189
:1008200001F0004141F0FE4141F470014FF0000041
:1008300070BD41F0FE4141F4780170BD70B54FF0DC
:10084000FF0C4CF4E06C1CEA11541DBF1CEA13555C
:1008500094EA0C0F95EA0C0F00F0A7F8A4EB05043E
:1008600081EA030E52EA03354FEA013100F0888035
:100870004FEA03334FF0805545EA131343EA1263FE
:100880004FEA022245EA111545EA10654FEA0026B3
:100890000EF000419D4208BF964244F1FD0404F56C
:1008A000407402D25B084FEA3202B61A65EB0305C8
:1008B0005B084FEA32024FF480104FF4002CB6EB85
:1008C000020E75EB030E22BFB61A754640EA0C0005
:1008D0005B084FEA3202B6EB020E75EB030E22BF45
:1008E000B61A754640EA5C005B084FEA3202B6EB86
:1008F000020E75EB030E22BFB61A754640EA9C0045
:100900005B084FEA3202B6EB020E75EB030E22BF14
:10091000B61A754640EADC0055EA060E18D04FEAD2
:10092000051545EA16754FEA06164FEAC30343EA72
:1009300052734FEAC2025FEA1C1CC0D111F4801F3F
:100940000BD141EA00014FF000004FF0004CB6E738
:1009500011F4801F04BF01430020B4F1FD0C88BFD7
:10096000BCF5E06F3FF6AFAEB5EB030C04BFB6EBE2
:10097000020C5FEA500C50F1000041EB045170BDD5
:100980000EF0004E4EEA113114EB5C04C2BFD4EB02
:100990000C0541EA045170BD41F480114FF0000E86
:1009A000013C90E645EA060E8DE60CEA135594EA02
:1009B0000C0F08BF95EA0C0F3FF43BAF94EA0C0F05
:1009C0000AD150EA01347FF434AF95EA0C0F7FF47A
:1009D00025AF104619462CE795EA0C0F06D152EACE
:1009E00003353FF4FDAE1046194622E750EA4106B2
:1009F00018BF52EA43067FF4C5AE50EA41047FF4C3
:100A00000DAF52EA43057FF4EBAE12E74FF0FF3C27
:100A100006E000BF4FF0010C02E000BF4FF0010CF8
:100A20004DF804CD4FEA410C7FEA6C5C4FEA430C71
:100A300018BF7FEA6C5C1BD001B050EA410C0CBFC0
:100A400052EA430C91EA030F02BF90EA020F002022
:100A5000704710F1000F91EA030F58BF994208BF89
:100A600090422CBFD8176FEAE37040F00100704746
:100A70004FEA410C7FEA6C5C02D150EA013C07D19D
:100A80004FEA430C7FEA6C5CD6D152EA033CD3D0E8
:100A90005DF8040B704700BF8446104662468C46E2
:100AA0001946634600E000BF01B5FFF7B7FF002815
:100AB00048BF10F1000F01BD4DF808EDFFF7F4FF3E
:100AC0000CBF012000205DF808FB00BF4DF808EDC9
:100AD000FFF7EAFF34BF012000205DF808FB00BFEC
:100AE0004DF808EDFFF7E0FF94BF012000205DF80E
:100AF00008FB00BF4DF808EDFFF7CEFF94BF0120C3
:100B000000205DF808FB00BF4DF808EDFFF7C4FFBB
:100B100034BF012000205DF808FB00BF4FEA410C04
:100B20007FEA6C5C02D150EA013C0AD14FEA430CE7
:100B30007FEA6C5C02D152EA033C02D14FF0000024
:100B400070474FF0010070474FEA410212F5001262
:100B500015D211D56FF47873B3EB625212D94FEA04
:100B6000C12343F0004343EA505311F0004F23FAEE
:100B700002F018BF404270474FF00000704750EA43
:100B8000013005D111F0004008BF6FF00040704700
:100B90004FF00000704700BF4FEA4102B2F1E0435E
:100BA00024BFB3F5001CDCF1FE5C0DD901F0004C54
:100BB0004FEAC0024CEA5070B2F1004F40EB8300A4
:100BC00008BF20F00100704711F0804F21D113F1D0
:100BD0003872BCBF01F00040704741F480114FEA09
:100BE0005252C2F11802C2F1200C10FA0CF320FA92
:100BF00002F018BF40F001004FEAC1234FEAD323AF
:100C000003FA0CFC40EA0C0023FA02F34FEA430318
:100C1000CCE77FEA625307D150EA01331EBF4FF0A1
:100C2000FE4040F44000704701F0004040F0FE40BC
:100C300040F40000704700BF7BB972B90029BEBF05
:100C400000204FF0004106E008BF00281CBF6FF0F5
:100C500000414FF0FF3000F057B8ADF1080C6DE9DE
:100C600004CE002909DB002B1ADB07F005FFDDF8B5
:100C700004E0DDE9022304B07047404261EB41012A
:100C8000002B1BDB07F0F8FEDDF804E0DDE90223B2
:100C900004B0404261EB4101524263EB43037047B1
:100CA000524263EB430307F0E7FEDDF804E0DDE9C1
:100CB000022304B0404261EB41017047524263EBB2
:100CC000430307F0D9FEDDF804E0DDE9022304B0B8
:100CD000524263EB4303704753B94AB9002908BF36
:100CE00000281CBF4FF0FF314FF0FF3000F00CB870
:100CF000ADF1080C6DE904CE07F0BEFEDDF804E0AE
:100D0000DDE9022304B07047704700BF10B5054C01
:100D1000237833B9044B13B10448AFF300800123A7
:100D2000237010BD8000002000000000348D0008FA
:100D300008B5034B1BB103490348AFF3008008BD5E
:100D40000000000084000020348D000840F2B11241
:100D50000262072280F8242080F82520012280F8F2
:100D60002620FF2280F82A20642280F82B200822E7
:100D700002857047F8B504460E4617461D46002208
:100D80008188006801F0E4FE4FF4FA633A46314688
:100D9000A06903F0A4F8A06903F059FB0128FAD177
:100DA0004FF4FA63BDF818202946A06903F08FFAC2
:100DB000A06903F04CFB0128FAD10122A188206828
:100DC00001F0C6FEF8BDF8B504460E4617461D46AE
:100DD00000228188006801F0BBFE4FF4FA633A46B6
:100DE0003146A06903F07BF8A06903F030FB0128CD
:100DF000FAD14FF4FA63BDF818202946A06903F030
:100E00006EF8A06903F023FB0128FAD10122A18822
:100E1000206801F09DFEF8BD00B585B001F07F01AE
:100E20008DF80E10012200920DF10F030DF10E014D
:100E3000FFF7A0FF9DF80F0005B05DF804FB00B5BB
:100E400085B061F07F018DF80E108DF80F20012222
:100E500000920DF10F030DF10E01FFF7B4FF05B085
:100E60005DF804FB38B504460D460121FFF7D4FFB9
:100E7000024645B900F0F8020023E3610121204653
:100E8000FFF7DDFF38BD013D052DF7D801A353F86D
:100E900025F000BFAD0E00087D0E0008BD0E000855
:100EA0007D0E0008CD0E0008DD0E000820F00702C0
:100EB00042F00102D2B20123E361DFE720F0070232
:100EC00042F00302D2B20323E361D7E720F0070226
:100ED00042F00502D2B20523E361CFE720F007021A
:100EE00042F00602D2B20623E361C7E738B50446F2
:100EF000CA045511C2F347520621FFF7A0FF05208F
:100F000001F058FC2A0AD2B207212046FFF797FFCA
:100F1000052001F04FFC002208212046FFF78FFF3B
:100F2000052001F047FC38BD70B506460C2904DCED
:100F30000C46062902DC072400E00C241E21304662
:100F4000FFF76AFF05460A2001F034FC2201D2B205
:100F500005F00F052A44D2B21E213046FFF76FFF7D
:100F60000A2001F027FC70BD08B50A460921FFF7E9
:100F700066FF0A2001F01EFC08BD000008B52C2900
:100F80000DD9F0290CD9F021F0291CD81E310F4BB6
:100F900083FB0123CA17C2EBA302D2B20AE02D21C0
:100FA0007829F1D82D39094B83FB0123CA17C2EBED
:100FB0006302D2B22032D2B20B21FFF740FF0A20E7
:100FC00001F0F8FB08BD0022F4E700BF6766666623
:100FD00010B504461E21FFF71FFF40F00702D2B2F2
:100FE0001E212046FFF72BFF0A2001F0E3FB10BD76
:100FF00070B582B0044615461E4661F07F018DF83B
:10100000071000228188006801F0A2FD4FF4FA6306
:1010100001220DF10701A06902F061FFA06903F050
:1010200016FA0128FAD14FF4FA6332462946A0692C
:1010300002F055FFA06903F00AFA0128FAD1012253
:10104000A188206801F084FD02B070BD01207047C6
:101050002DE9F04106460F4615461C46D0F81C8087
:101060000121FFF7FFFE0E213046FFF7D5FE0246B5
:101070000D213046FFF7E3FE2A4622213046FFF7D6
:10108000DEFE2B463A4600213046FFF7B1FF032132
:101090003046FFF7E7FE0FE0FF2212213046FFF750
:1010A000CEFE41463046FFF7DDFE01252846BDE86D
:1010B000F081012001F07EFB12213046FFF7ACFEEB
:1010C00010F00805E8D1013CA4B2002CF1D1414652
:1010D0003046FFF7C7FEE9E738B50446FFF7B6FF2D
:1010E00010B940F2F71038BD00212046FFF7BAFED4
:1010F0000A2001F05FFB01212046FFF78DFE054627
:101100000A2001F057FB65F07F02D2B20121204690
:10111000FFF795FE642001F04DFB216A2046FFF7A2
:10112000E5FE94F82A102046FFF71EFF94F82B10D6
:101130002046FFF723FF23220C212046FFF77FFEE6
:101140002046FFF745FF94F824102046FFF7ECFEF9
:10115000FF221F212046FFF772FE94F8252012017E
:10116000D2B294F826305B00DBB21A4402F0FE02E1
:101170001D212046FFF763FE228D120A2021204602
:10118000FFF75DFE94F8282021212046FFF757FE47
:1011900040212046FFF740FE40F03F02D2B24021FE
:1011A0002046FFF74CFE01212046FFF75BFE01239E
:1011B000E3610A2001F0FEFA42212046FFF72CFEEF
:1011C000122802D04FF4CA708DE7C8208BE700B513
:1011D00003884FEA430CCCEBE10CB0F902E00EFBC4
:1011E0000CFCC3EB211101FB01F10913B0F9043030
:1011F00003FB01F0801300EBEC20106000EB80009B
:10120000803000125DF804FB2DE9F0410446D3174D
:10121000B2F5FA3243F1FF3302FB03F0A2FB02C73F
:1012200007EB4007B4F910004FEAE07E0CFB0EFE1E
:1012300000FB07EEACFB00608644B4F90E004FEAF9
:10124000E07800FB03F502FB0855A0FB02084544CB
:101250006D0445EAD035400480194EEB050EB4F913
:101260000C500EEBC50EB4F90A50EE170CFB06F647
:1012700005FB0766ACFB05C52E444FEA1C2C4CEA67
:10128000066CB4F90850EF1705FB03F302FB0733B4
:10129000A5FB025213441B0343EA15532D031CEB19
:1012A000050C43EB262303F50043E288ACFB02C5A3
:1012B00002FB03556A10EB1753EA650561D0C1F5CF
:1012C00080156910ED072D1A61EB0E0E15EB050C5C
:1012D0004EEB0E011CEB050C4EEB0101880140EAC0
:1012E0009C604FEA8C161CEB060C41EB0001890058
:1012F00041EA9C714FEA8C0C1CEB050C4EEB010192
:10130000890041EA9C714FEA8C0040194EEB0101C3
:10131000FFF792FC0346B4F916604FEAE67C420BF5
:1013200042EAC1424F1306FB07F502FB0C55A6FB30
:10133000026C654402FB05F506FB0755A2FB062679
:101340003544520E42EAC512B4F914604FEAE67C05
:1013500006FB01F70CFB0070A6FB03673844F60C94
:1013600046EA40369B1841EB65619B1941EBE04131
:10137000180A40EA0160B4F9123000EB0310BDE82E
:10138000F0810020FBE7A2F5963CB0F91E301B056A
:10139000C3EB8133B0F920200CFB123303F58043FB
:1013A000D91390F922300CFB03F39B12027F0CFB44
:1013B00002F2D21202F5004202FB03F39B1203F584
:1013C0000013B0F91A2002FB03F303F500539B133B
:1013D00001FB03F3DA1302FB02F2D211017E01FBDF
:1013E00002F2A3EB221020EAE070B0F1C85FA8BFC0
:1013F0004FF0C8500013704710B584B08E46B0F857
:1014000024C04FEA4C0C1FFA8CF141F2883402944C
:101410000193009201237246806A01F08BFF00B1B4
:10142000012004B010BD10B586B08C461446838CE4
:101430005B0099B241F2883302930223019305AB1A
:10144000009301236246806A01F074FF48B99DF859
:1014500015209DF8143043EA02232380012006B0B2
:1014600010BD0020FBE710B5044602468821FFF7B7
:10147000DAFF00B910BDA21C8A212046FFF7D3FF76
:101480000028F7D0221D8C212046FFF7CCFF002832
:10149000F0D0A21D8E212046FFF7C5FF0028E9D01D
:1014A00004F1080290212046FFF7BDFF0028E1D09B
:1014B00004F10A0292212046FFF7B5FF0028D9D097
:1014C00004F10C0294212046FFF7ADFF0028D1D093
:1014D00004F10E0296212046FFF7A5FF0028C9D08F
:1014E00004F1100298212046FFF79DFF0028C1D08B
:1014F00004F112029A212046FFF795FF0028B9D087
:1015000004F114029C212046FFF78DFF0028B1D082
:1015100004F116029E212046FFF785FFAAE730B5A9
:1015200083B00446012300F11802A121FFF764FFF4
:1015300018B10025284603B030BD04F11A02E1219C
:101540002046FFF770FF05460028F3D0012304F181
:101550001C02E3212046FFF74FFF08B10025E9E711
:101560000DF10602E4212046FFF75DFF0546002845
:10157000E0D001AAE5212046FFF755FF05460028E7
:10158000D8D0012304F12202E7212046FFF734FFDF
:1015900008B10025CEE7BDF80620130103F47F63F0
:1015A000C2F303221343E383BDF804301B092384F1
:1015B000C0E700B587B08C468DF81720838C5B00A0
:1015C00099B242F210730293012301930DF11702B5
:1015D00000926246806A01F0FBFD00B1012007B075
:1015E0005DF804FB03230370002242708370C37014
:1015F000037143717047F0B583B0838C763B9BB227
:10160000012B03D90025284603B0F0BD04460E4641
:10161000012300F13202D021FFF7EEFE00285CD159
:1016200094F83230582B01D0602B58D1B622E021EB
:101630002046FFF7BEFF002853D101230DF107021A
:10164000F3212046FFF7D8FE0028F6D19DF8073099
:1016500013F0010FF1D12046FFF705FF05460028E2
:10166000D1D094F83230602B24D073797278920004
:1016700042EA431202F0FC02F5212046FFF799FFEF
:1016800088BB3378012B1CD0F278B3789B0043EAF7
:1016900042135BB232781343DFB294F83230602BDE
:1016A00012D03A46F4212046FFF783FF0028AAD043
:1016B0000025A8E72046FFF732FF0028D5D10546D0
:1016C000A1E700233370DFE73279F2212046FFF7EC
:1016D00070FF0028E5D0002595E7002593E7002559
:1016E00091E700258FE700258DE72DE9F04184B0D3
:1016F0000446884617461D4690F83230602B0ED0BF
:1017000085B100232B601D46062302AAF72120463F
:10171000FFF772FE50B1002004B0BDE8F0811DB1AA
:101720000823F2E70623F0E70623EEE79DF80830EA
:101730009DF80960360146EA03369DF80A3046EA0C
:1017400013169DF80B209DF80C301B0143EA023361
:101750009DF80D1001AA43EA11112046FFF737FD4D
:10176000C8F80000019A31462046FFF74DFD386069
:1017700065B19DF80E109DF80F30019A43EA0121E2
:101780002046FFF700FE28600120C5E70120C3E7DF
:1017900070B584B00D4614461E4603B101AB02AAD3
:1017A00003A9FFF7A2FF08B904B070BDDDED037A0D
:1017B000F8EEE77ADFED0E6A87EEA67A85ED007A1D
:1017C000DDED027AF8EE677A9FED0A7A67EE877AA6
:1017D000C4ED007A002EE7D0DDED017AF8EE677AED
:1017E0009FED057A67EE877AC6ED007ADCE700BFE9
:1017F0000000C8420000803B0000803A0346406879
:10180000F0B1884215D0884215DD1A68D30F002A3E
:10181000D4BF5B42C3F1010300FB03F393FBF1F37D
:1018200003EBD37302EB630290FBF1F092FBF0F059
:101830007047186870471B6891FBF0F003FB00F0DD
:10184000704700002DE9F04188B00024039404940F
:101850000594069407940094334B1A6B42F00402EB
:101860001A631A6B02F004020092009A01941A6B38
:1018700042F001021A631A6B02F001020192019A0E
:1018800002941A6B42F002021A631B6B03F002030C
:101890000293029BDFF89C8022464FF400514046A1
:1018A00001F056F9214F01221021384601F050F97C
:1018B0001F4D22464FF48071284601F049F94FF43C
:1018C00000530393012604960594069403A9404609
:1018D00001F05AF81023039304960594069403A983
:1018E000384601F051F84FF4807303930496059441
:1018F000069403A9284601F047F84FF400730393B8
:101900004FF488130493059403A9284601F03CF88A
:1019100022462146172000F0A7FF172000F0B4FF51
:1019200008B0BDE8F08100BF00380240000002406E
:1019300000040240000802402DE9F04194B06C4BD5
:1019400001221A704FF4807200216A4803F086FB6E
:1019500069496A4803F026FB48B10146684C2046B5
:1019600003F0DEFB214602A800F052FD30B94FF42F
:1019700000720021614803F071FB42E05D4C20469B
:10198000FEF70EFC049B0093039B029A5D492044E2
:1019900003F09EF92046FEF703FC05464FF47A71EA
:1019A00007A8FFF72BFF06464FF47A7109A8FFF747
:1019B00025FF034632465449601903F089F9D6E7FA
:1019C0004C4C2046FEF7ECFB504D04EB000C05F1AF
:1019D000200E2C460FCCCCF80000CCF80410CCF82C
:1019E0000820CCF80C3025460CF1100C7445F0D1D1
:1019F0002068CCF8000023798CF80430444B242272
:101A00001A80444B444A45494548FFF7C1FE002827
:101A1000D6D0414C94ED007A424BD3ED007AC7EE1C
:101A2000277A17EE900AFEF787FD9FED2D1B41ECFC
:101A3000100B05F08DFF53EC102B00203A49FEF7F8
:101A40001BFC29A3D3E90023FEF7CEFDFFF7A4F882
:101A5000364B1860DFF8EC80FEF76EFD41EC100BA2
:101A60004146062003F030FB314D2068FEF764FD4F
:101A700041EC100B2946082003F026FB2D4E274B86
:101A80001868FEF759FD41EC100B3146042003F0B5
:101A90001BFB294F1F4B1868FEF74EFD41EC100B46
:101AA0003946042003F010FB124C2046FEF778FB69
:101AB000CDF80480009733462A462049204403F09D
:101AC00007F9134B18804FF47A734FF48072214654
:101AD0001B4802F016FE14B0BDE8F081AFF30080A1
:101AE0006C45D9CC955BC83F0000000040A5E5409F
:101AF0001007002010040020C88D000814070020E3
:101B000010050020508D00085C8D0008688D0008CD
:101B10009C010020A0030020A8030020A4030020B3
:101B2000AC030020000000200000F03FE003002094
:101B300020030020A002002020020020908D000839
:101B400014090020A001002072B6FEE708B50A487B
:101B50000A4B03604FF41653436000238360C36055
:101B600003610C2242618361C36102F09BFD00B9F5
:101B700008BDFFF7E9FF00BF580900200010014031
:101B800008B50A480A4B03604FF4613343600023F1
:101B90008360C36003610C2242618361C36102F010
:101BA00081FD00B908BDFFF7CFFF00BF1409002079
:101BB0000044004008B50A480A4B03600A4B4360E2
:101BC00000238360C3604FF48042026143618361FC
:101BD000C361036201F01EFA00B908BDFFF7B4FF4C
:101BE000F409002000540040A086010008B50D480B
:101BF0000D4B03604FF48273436000238360C36026
:101C0000036143614FF400728261C3610362436206
:101C100083620A23C36202F003F900B908BDFFF72B
:101C200093FF00BF9C090020003C004000B595B028
:101C30003022002108A803F011FA00230393049333
:101C40000593069307930193184A116C41F0805154
:101C50001164126C02F080520192019A0293144AAC
:101C6000116841F440411160126802F4404202924E
:101C7000029A0222089201220B9210220C920E93D9
:101C800008A801F0C9FC68B90F230393002104914F
:101C900005910691079103A801F00EFF20B915B038
:101CA0005DF804FBFFF750FFFFF74EFF00380240DE
:101CB0000070004070B5ACB000F050FDFFF7B6FF0B
:101CC000FFF7C0FDFFF742FFFFF75AFFFFF772FF74
:101CD000FFF78CFF5E4C2046FFF784FC772324F847
:101CE000083C5C4B44F8043C15E05B4D2C465B4ED5
:101CF0000FCE0FC496E80F0007C423801D22584B57
:101D00001A804FF47A732946564802F0FAFC4FF4D1
:101D1000FA6000F04FFD4E49A1F12C00FFF76BFC7B
:101D20000028E2D0504B93F83230602B78D04F4AE5
:101D3000494C4F49204602F0CBFF1622484B1A80EF
:101D40004FF47A732146474802F0DBFC494D684660
:101D5000FEF7FCFFAC466C460FCCACE80F000FCC96
:101D6000ACE80F0094E807008CE80700424B2B60BA
:101D70001023AB80414BAB604FF48072AA812B6182
:101D80004FF40073AB823E4BAB612846FFF7A4F9DA
:101D9000044600210C917C220DA803F05FF9C82CA9
:101DA00040D02346374A80210CA802F05DFF4FF453
:101DB0007A7380220CA92B4802F0A3FC2D4B40F231
:101DC000B1121A62072283F82420082283F8252002
:101DD000012183F82610FF2183F82A10642183F85B
:101DE0002B101A85284B1B78002BFBD04FF4007268
:101DF0002649274802F0D5FE264B1B78012BF1D14E
:101E0000254C6423712221461A48FFF721F900214D
:101E1000204B19704FF48072204603F01FF9E1E760
:101E20001E4A85E70CAC1E4D0FCD0FC495E8070088
:101E300003C42270642378220CA90E48FFF708F926
:101E40004FF47A7380220CA9064802F05AFCB5E7D9
:101E5000D8030020F40900209C000020AC8D00086D
:101E60009C01002014090020AC030020A48D000870
:101E7000CC8D0008E4030020000002400004024072
:101E80009C090020FC8D000804000020140700209D
:101E90005809002010070020100400209C8D000825
:101EA000E08D0008084B1B5C13F0970F07D02C281F
:101EB00007D02A2801D00120704700207047002059
:101EC00070470020704700BF2E8F00080EB42DE928
:101ED000F04F84B00D9E08B9002083E204460EAB9B
:101EE00003930546002703E2002F40F00A8238469C
:101EF00078E25DB12D782846FFF7D4FF00B90025C0
:101F0000039B1A1D03921B681D70E8E10025F7E78B
:101F1000FDB12D782846FFF7C5FFE0B1453D122DF4
:101F200000F26582DFE815F01300630263026302CA
:101F300063026302630263026302130063026302CB
:101F4000630263021E006302630263021E0001213A
:101F500002E0002100E00021039B1A1D03921B6890
:101F60001960BCE14FF0FF31F6E7002D40F08380AF
:101F70004FF0000A4FF0FF39D346BBF1000F02D1FA
:101F8000BAF1000F7DD0B9F1FF3F00F03A82BAF10B
:101F9000000F7BD0BBF1000F01D00BFB09F9039BB5
:101FA0001A1D03921B68C3F80090C3F804A096E1C1
:101FB000BBF1000F33D1B9F1FF3F30D14FF0010B2E
:101FC00022E0BBF1000F2DD1B9F1FF3F2AD1CB4662
:101FD0001AE04FF0000930E0BAF1000FCDD1002037
:101FE00000E2B8F12E0F40D0B8F1200F40F001828E
:101FF000BBF1000F40F0FF81B9F1FF3F40F0FD81E0
:10200000BAF1000F40F0FB81013595F800804046A1
:10201000FFF748FF0028B0D0B8F12B0FC8D0B8F1B7
:102020002D0FCED0A94B13F8083013F0040FD8D0E1
:10203000A8F13008B9F1FF3FCBD06FF00043A3EB1C
:102040000803A34A82FB0312DB17C3EBA2034B4531
:10205000C2DB09EB890908EB4909BAF1000FD3D0BB
:102060000AEB8A0A4FEA4A0ACEE7BAF1000FBBD15F
:102070004FF0010AC8E74FF0000A4FF0FF39D3468E
:10208000C3E7B9F1FF3F82D1D14683E74FF0010AA0
:1020900080E795B10A2202A9284602F05BFF0546B7
:1020A000029B1878FFF7FEFE28B9039B1A1D0392C6
:1020B0001B681D6013E1002094E10025F5E7039BF8
:1020C0001A1D0392D3F800801DB9002388F8003050
:1020D00005E195F800904846FFF7E4FE0028F4D0AB
:1020E0000135434603F8019B9846F2E7002D00F0C6
:1020F0008A812B78242B40F088814FF00008B8F1BA
:10210000040F08DC08F1010815F80800FFF7CAFE03
:102110000028F4D166E1039B1A1D03921B68D5F8D1
:1021200001201A606A791A7100225A71D7E0039B64
:102130001A1D0392D3F80080002D48D095F8009026
:102140004846FFF7AFFE60B94FF0FF3005468146C5
:10215000C8F80090C8F80450C8F80800BFE0002094
:1021600040E10023052B07DCEA5C58498A5C12F049
:10217000040FF4D00133F5E78DF800906B788DF8FB
:1021800001304FF0000A8DF802A0AB788DF80430D2
:10219000EB788DF805308DF806A02B798DF8083096
:1021A0006B798DF809308DF80AA00A2251466846ED
:1021B00002F0D0FE81460A22514601A802F0CAFE72
:1021C00005460A22514602A802F0C4FEC0E74FF0BD
:1021D000FF3005468146BBE7039B1A1D0392D3F8E7
:1021E0000080002D6CD095F800904846FFF75AFE0D
:1021F00078B94FF0FF33184699469A46C8F800A0C0
:10220000C8F80490C8F80800C8F80C3067E000204F
:10221000E8E00023052B07DCEA5C2C498A5C12F01D
:10222000040FF4D00133F5E78DF800906B788DF84A
:1022300001304FF0000B8DF802B0AB788DF8043010
:10224000EB788DF805308DF806B02B798DF80830D5
:102250006B798DF809308DF80AB00A225946684624
:1022600002F078FE82460A22594601A802F072FE68
:1022700081460A22594602A802F06CFE05F1070CBD
:10228000AB792E2B19D05B46B8E703EB83030CF137
:10229000010C02EB4302A2F130030E4AA2FB011231
:1022A000D1089CF80020094DAD5C15F0040F01D059
:1022B0000129EAD801FB03F3A0E707490023F0E76F
:1022C0004FF0FF33184699469A4697E72E8F00083D
:1022D00067666666CDCCCCCC40420F0001342578D1
:1022E0002846FFF7DFFD0028F8D12C2D72D00025FD
:1022F0003378002B73D001363B2B6ED0002D3FF48A
:10230000F3AD443B302B6CD801A252F823F000BF50
:102310002F210008E3230008E3230008E32300083B
:10232000E3230008E3230008E3230008E323000875
:10233000E3230008E3230008E3230008E323000865
:10234000E3230008E3230008E3230008E323000855
:10235000D9210008E3230008E3230008E323000851
:10236000E3230008E3230008E3230008E323000835
:10237000E3230008E3230008E3230008DF2200082A
:10238000E3230008E3230008E3230008F31E00080A
:10239000111F0008E32300086B1F0008E323000857
:1023A000E323000893200008E3230008E323000848
:1023B000E3230008E3230008E3230008E3230008E5
:1023C000E3230008E3230008E3230008BF200008FC
:1023D000ED200008013425468AE7012788E701201F
:1023E00000E0002004B0BDE8F04F03B070470020CB
:1023F000F8E70020F6E70020F4E70020F2E70020ED
:10240000F0E70020EEE70020ECE70020EAE700BF5D
:1024100030B591B0044608460AAB099304F1400375
:10242000089304F13403079304F12C03069304F199
:10243000240305930BAB049304F11C0303930CAB2F
:10244000029304F1140301930DF137030093234623
:102450000EAA1349FFF73AFD0546D8B111490DF10F
:102460003A00FDF7A5FEC0B99DF83730412B14BFE7
:1024700000230123237462690C9B02FB03F3636155
:10248000E2690B9B02FB03F3E361226C0A9B02FBF4
:1024900003F32364284611B030BD0025FAE700BFDE
:1024A000488E00083C8E000882B0002100910B4B42
:1024B0005A6C42F480425A645A6C02F48042009290
:1024C000009A01911A6C42F080521A641B6C03F05E
:1024D00080530193019B02B0704700BF0038024057
:1024E00030B589B0002303930493059306930793B3
:1024F0000268144B9A4201D009B030BD0025019505
:10250000114C236B43F002032363236B03F002039C
:102510000193019BC0230393122304930323069387
:102520000423079303A9094800F02EFA0295236CAF
:1025300043F400132364236C03F400130293029BFF
:10254000DAE700BF005400400038024000040240B7
:10255000F0B589B000230393049305930693079382
:1025600002681B4B9A4201D009B0F0BD00240194CF
:1025700003F5FE331A6C42F400421A641A6C02F43A
:1025800000420192019A02941A6B42F002021A630D
:102590001B6B03F002030293029B4FF480530393DF
:1025A000022704970326069607230793094D03A9DC
:1025B000284600F0E9F93023039304970594069622
:1025C0000623079303A9284600F0DEF9CCE700BFF5
:1025D000003C00400004024010B58AB0002305937F
:1025E000069307930893099303682F4A934204D0F4
:1025F0002E4A93422DD00AB010BD002401942C4BDA
:102600005A6C42F010025A645A6C02F010020192A5
:10261000019A02941A6B42F001021A631B6B03F0D9
:1026200001030293029B4FF4C063059302230693B8
:10263000032308930723099305A91E4800F0A4F972
:1026400022462146252000F00FF9252000F01CF934
:10265000D1E700240394164B1A6C42F400321A643A
:102660001A6C02F400320392039A04941A6B42F03B
:1026700001021A631B6B03F001030493049B0C23F8
:10268000059302230693032308930723099305A9BF
:10269000084800F079F922462146262000F0E4F8A7
:1026A000262000F0F1F8A6E70010014000440040A9
:1026B0000038024000000240FEE7FEE7FEE7FEE7CA
:1026C000FEE770477047704708B500F061F808BD35
:1026D00008B54FF4007000F043FA08BD08B5024891
:1026E00002F004F908BD00BF5809002008B50248EF
:1026F00002F0FCF808BD00BF14090020034AD2F81C
:10270000883043F47003C2F88830704700ED00E071
:1027100010B504460E4B1A784FF47A73B3FBF2F3FC
:102720000C4A1068B0FBF3F000F0BCF868B90F2C4D
:1027300001D901200AE0002221464FF0FF3000F0CD
:1027400093F8054B1C60002000E0012010BD00BF85
:102750000C000020080000201000002008B50B4BE2
:102760001A6842F400721A601A6842F480621A60B1
:102770001A6842F480721A60032000F063F80F2098
:10278000FFF7C6FFFFF790FE002008BD003C0240A7
:10279000034A1168034B1B780B441360704700BF5A
:1027A000480A00200C000020014B1868704700BF49
:1027B000480A002038B50446FFF7F6FF0546B4F195
:1027C000FF3F02D0044B1B781C44FFF7EDFF401B7A
:1027D000A042FAD338BD00BF0C000020002808DB5F
:1027E0000901C9B200F1604000F5614080F80013B2
:1027F000704700F00F000901C9B2014B195470472E
:1028000014ED00E000B500F00700C0F1070CBCF1CA
:10281000040F28BF4FF0040C031D062B0FD9C31E55
:102820004FF0FF3E0EFA0CF021EA000199400EFA3B
:1028300003FE22EA0E0241EA02005DF804FB0023D7
:10284000EEE70000074AD36823F4E0631B041B0C87
:10285000000200F4E060034343F0BF6343F400333D
:10286000D360704700ED00E010B50446054BD86812
:10287000C0F30220FFF7C6FF01462046FFF7AEFF78
:1028800010BD00BF00ED00E0002807DB00F01F02D4
:10289000400901239340024A42F82030704700BFAC
:1028A00000E100E00138B0F1807F0BD24FF0E0236F
:1028B0005861054AF02182F8231000209861072210
:1028C0001A6170470120704700ED00E070B50446C2
:1028D000866DFFF769FF94F83530DBB2022B06D026
:1028E00080236365002384F83430012070BD0546E1
:1028F0002268136823F0160313602268536923F0DB
:1029000080035361236CE3B12268136823F008034A
:1029100013602268136823F00103136023681B68A7
:1029200013F0010F11D0FFF73FFF431B052BF5D923
:1029300020236365032084F83500002384F83430B5
:10294000D4E7A36C002BDFD1E3E7E26D3F23934094
:10295000B360012384F83530002084F83400C5E7E3
:1029600090F83530DBB2022B03D080234365012081
:102970007047052380F835300268136823F001039F
:10298000136000207047000000230F2B00F2D78057
:1029900070B582B065E085684FEA430E032404FAFF
:1029A0000EF425EA0405CC6804FA0EF42C43846086
:1029B000446824EA02044A68C2F300129A4022439F
:1029C00042605CE0DC08083450F8242003F007057E
:1029D000AD004FF00F0E0EFA05FE22EA0E0E0A6948
:1029E000AA4042EA0E0240F824205CE0042200E003
:1029F000002202FA0EF22A430234514D45F82420F7
:102A0000504A94686FEA0C0224EA0C054E6816F4EA
:102A1000801F01D04CEA04054A4CA560E46802EA34
:102A200004054E6816F4001F01D04CEA0405454C1D
:102A3000E560646802EA04054E6816F4003F01D0C0
:102A40004CEA04053F4C6560246822404D6815F44B
:102A5000803F01D04CEA04023A4C226001330F2B34
:102A60006BD801229A400C6804EA020C32EA040492
:102A7000F4D14C6804F00304013C012C8BD94A6862
:102A800002F00302032A09D0C4685D000322AA40B1
:102A900024EA02048A68AA402243C2604A6802F01B
:102AA0000302022A8ED004684FEA430E032202FA80
:102AB0000EF224EA02044A6802F0030202FA0EF25D
:102AC000224302604A6812F4403FC7D000220192BC
:102AD0001D4A546C44F480445464526C02F48042A5
:102AE0000192019A9C08A51C154A52F8255003F042
:102AF000030E4FEA8E0E0F2202FA0EF225EA0205AD
:102B0000124A90423FF474AF02F5806290420ED0B8
:102B100002F5806290420CD002F5806290420AD0A9
:102B200002F5806290423FF461AF072261E7012223
:102B30005FE702225DE703225BE702B070BD7047EA
:102B400000380140003C01400038024000000240D3
:102B50000AB18161704709048161704770470000C4
:102B600008B5054B5B69034200D108BD024B5861B3
:102B7000FFF7F4FFF9E700BF003C014003685A6922
:102B800012F4806F01D1002070476FF480625A61A7
:102B900000230363202280F83D2080F83E30026C41
:102BA00042F00402026480F83C30012070472DE9B5
:102BB000F04107460D4690461E4624E0FFF7F4FD1F
:102BC000069BC01AB04200D8EEB900233B63202216
:102BD00087F83D2087F83E303A6C42F020023A6494
:102BE00087F83C3001201EE03B689C6925EA040C14
:102BF0001FFA8CFCBCFA8CFC4FEA5C1CE04511D13E
:102C0000B6F1FF3FDAD1C5F30743012BECD13B68A6
:102C10005B6925EA030C1FFA8CFCBCFA8CFC4FEABA
:102C20005C1CEBE70020BDE8F0812DE9F041054692
:102C30000E46174698463DE01A6842F400721A6044
:102C40002B686FF480625A6100232B63202285F881
:102C50003D2085F83E302A6C42F004022A6485F853
:102C60003C30012034E0FFF79FFDA0EB0800B842A4
:102C700000D8FFB900232B63202285F83D2085F87A
:102C80003E302A6C42F020022A6485F83C30012054
:102C90001EE02B689C6926EA0404A4B2003C18BF1D
:102CA0000124A4B12B685A6912F4806FC4D1B7F122
:102CB000FF3FD8D1C6F30743012BEAD12B685C69EB
:102CC00026EA0404A4B2003C18BF0124E9E700206E
:102CD000BDE8F08170B504460D46164623685B6971
:102CE00013F0800F1CD12046FFF748FFD0B9B5F193
:102CF000FF3FF3D0FFF758FD801BA84201D8002DFD
:102D0000ECD100232363202284F83D2084F83E3058
:102D1000226C42F02002226484F83C30012000E062
:102D2000002070BD0120FCE72DE9F04385B004468A
:102D30000D4691461F46DDF830800D9E03681968E8
:102D400041F4807119600096434600224FF0011152
:102D5000FFF72DFF60B9236805F0FE051D613346BE
:102D6000424626492046FFF760FF68B1012008E08F
:102D700023681B6813F4807F02D04FF40073236430
:102D8000032005B0BDE8F0830023039323685A694C
:102D900003929B690393039B324641462046FFF70B
:102DA00099FF30B9012F0FD123685FFA89F61E61B0
:102DB000E7E7236C042B01D00120E2E722681368C7
:102DC00043F400731360F7E723684FEA19221A618E
:102DD000324641462046FFF77DFF20B923685FFA5F
:102DE00089F61E61CDE7236C042B01D00120C8E7D2
:102DF0002268136843F400731360F7E702000100D0
:102E00002DE9F04784B004460D46164699460C9FBE
:102E1000DDF834800268136843F48063136003684C
:102E2000196841F480711960CDF800803B4600229A
:102E30004FF00111FFF7BBFE70B95FFA85FA236806
:102E400005F0FE051D6143463A4641492046FFF71D
:102E5000ECFE68B1012008E023681B6813F4807F52
:102E600002D04FF400732364032004B0BDE8F08760
:102E70000023039323685A6903929B690393039B7E
:102E8000424639462046FFF725FF80B9B9F1010FC8
:102E900018D12368F6B21E61424639462046FFF734
:102EA00019FF68B3236C042B24D00120DDE7236CC9
:102EB000042B01D00120D8E72268136843F4007383
:102EC0001360F7E72368320A1A6142463946204602
:102ED000FFF700FF18B92368F6B21E61DCE7236C28
:102EE000042B01D00120C0E72268136843F400736B
:102EF0001360F7E72268136843F400731360D4E7A4
:102F00002268136843F480731360CDF800803B4659
:102F100000224FF001112046FFF749FE68B92268F0
:102F20004AF00103136143463A4609492046FFF738
:102F30007CFE002899D0012097E723681B6813F4D2
:102F4000807F02D04FF40073236403208DE700BF1D
:102F50000200010070B504460D46164623685B6901
:102F600013F0040F1CD12046FFF708FED0B9B5F1CD
:102F7000FF3FF3D0FFF718FC801BA84201D8002DBB
:102F8000ECD100232363202284F83D2084F83E30D6
:102F9000226C42F02002226484F83C30012000E0E0
:102FA000002070BD0120FCE770B505460C461646B2
:102FB0002B68596911F0400F29D1596911F0100F90
:102FC00015D1FFF7F1FB801BA04201D8002CEFD1F7
:102FD00000232B63202285F83D2085F83E302A6CA3
:102FE00042F020022A6485F83C30012070BD6FF069
:102FF00010025A6100232B63202285F83D2085F8BA
:103000003E302A6C2A6485F83C300120EEE700202F
:10301000ECE70000002800F0CC8070B5044690F882
:103020003D30002B77D0242384F83D30226813688C
:1030300023F0010313602268136843F40043136014
:103040002268136823F40043136000F0EBFD62680C
:103050005A4B9A4264D85A4B98428CBF00230123A2
:10306000002B40F0A8805749A1FB00318B0C25684C
:103070006A6822F03F0242EA91426A6021680A6A65
:1030800022F03F0266684D4DAE424FD801331343E4
:103090000B622168CA6922F44F4222F0FF02656880
:1030A000464B9D424CD8431E6D00B3FBF5F30133F4
:1030B00040F6FC70034278D0C3F30B031A43CA6195
:1030C00021680B6823F0C003E269206A02431343BE
:1030D0000B6021688B6823F4034323F0FF0322690C
:1030E000E068024313438B602168CB6823F0FF0341
:1030F0006269A06902431343CB602268136843F0FE
:103100000103136000202064202384F83D302063F5
:1031100084F83E0070BD80F83C30FFF7E1F982E7AB
:10312000294B98428CBF0023012399E74FF49675F1
:1031300005FB03F3254DA5FB03539B090133A6E7CC
:10314000A668BEB9431E05EB450CB3FBFCF3013387
:10315000C3F30B03B3FA83F35B0943BBC6B9431E46
:1031600005EB4505B3FBF5F30133C3F30B0343F460
:103170000043A3E7431E05EB850C0CEB8C0CB3FB63
:10318000FCF30133C3F30B03B3FA83F35B09E4E706
:10319000431E05EB850505EB8505B3FBF5F3013310
:1031A000C3F30B0343F4404388E7042386E701237A
:1031B00084E7012070470120ACE700BFA086010032
:1031C0007F841E0083DE1B43FF083D00D34D621049
:1031D0002DE9F04383B004460F46904699460C9E75
:1031E000FFF7E2FA054694F83D00C0B2202803D06C
:1031F000022003B0BDE8F0830095192301224B495A
:103200002046FFF7D4FC002840F0898094F83C3039
:10321000012B00F08680012384F83C3023681A6873
:1032200012F0010F03D11A6842F001021A602268FD
:10323000136823F400631360212384F83D30402396
:1032400084F83E30002323640A9B6362BDF82C306F
:103250006385638D2385364BE362019500964B466B
:10326000424639462046FFF75FFD00285BD1238D9B
:10327000002B35D02A4631462046FFF72BFD20BBD8
:10328000626A236812781A61626A531C6362218D34
:10329000013989B22185638D9BB2013B9BB2638565
:1032A0002368586910F0040FE1D00029DFD052786C
:1032B0001A61636A01336362238D013B2385638D49
:1032C0009BB2013B9BB26385D1E7236C042B01D0F9
:1032D00001208EE72268136843F400731360F7E758
:1032E0002A4631462046FFF735FE50B1236C042BA9
:1032F00001D001207DE72268136843F40073136056
:10330000F7E72268136843F400731360202384F8FE
:103310003D30002384F83E3084F83C3069E70220D9
:1033200067E7022065E7012063E700BF02001000A5
:103330000000FFFF2DE9F04387B004460F4690469A
:103340009946109EFFF730FA054694F83D00C0B24A
:10335000202804D00227384607B0BDE8F083009546
:103360001923012288492046FFF721FC002840F05C
:10337000438194F83C30012B00F04081012384F814
:103380003C3023681A6812F0010F03D11A6842F02A
:1033900001021A602268136823F400631360222379
:1033A00084F83D30402384F83E30002323640E9B94
:1033B0006362BDF83C306385638D2385734BE362A4
:1033C000019500964B46424639462046FFF718FDC8
:1033D0000746002840F01481238D5BB902932368CF
:1033E0005A6902929A690292029A1A6842F4007229
:1033F0001A6075E0012B0AD0022B1AD00023059326
:1034000023685A6905929B690593059B68E02268C9
:10341000136823F4806313600023039323685A69BD
:1034200003929A690392039A1A6842F400721A602E
:1034300056E02268136823F48063136022681368DF
:1034400043F4006313600023049323685A690492D1
:103450009B690493049B43E02A4631462046FFF7CC
:10346000A3FD002840F0CE8023681A69636A1A70B1
:10347000636A01336362238D013B2385638D9BB2B5
:10348000013B9BB263852BE0009533460022404907
:103490002046FFF78CFB002840F0B68022681368B6
:1034A00043F40073136023681A69636A1A70626ACE
:1034B000531C6362238D013B2385638D9BB2013BCB
:1034C0009BB2638523681B695370636A013363622F
:1034D000238D013B2385638D9BB2013B9BB26385AA
:1034E000238D002B7FD0032B54D8012BB4D0022B7B
:1034F000CAD000953346002225492046FFF757FBE6
:10350000002840F083802268136823F480631360EE
:1035100023681A69636A1A70636A01336362238DD0
:10352000013B2385638D9BB2013B9BB26385009574
:103530003346002216492046FFF739FB002867D1A1
:103540002268136843F40073136023681A69636A7E
:103550001A70626A531C6362238D013B2385638D5D
:103560009BB2013B9BB2638523681B695370636AFE
:1035700001336362238D013B2385638D9BB2013B45
:103580009BB26385ACE700BF020010000000FFFFA4
:10359000040001002A4631462046FFF705FD0028B9
:1035A00038D123681A69636A1A70626A531C6362AD
:1035B000238D013B2385638D9BB2013B9BB26385C9
:1035C0002368596911F0040F8AD01B695370636A2C
:1035D00001336362238D013B2385638D9BB2013BE5
:1035E0009BB263857CE7202384F83D30002384F878
:1035F0003E3084F83C30AEE60227ACE60227AAE66D
:103600000127A8E60127A6E60127A4E60127A2E6EE
:103610000127A0E601279EE6002800F0E08170B5B2
:1036200082B00446036813F0010F3BD09F4B9B68A8
:1036300003F00C03042B2CD09C4B9B6803F00C0371
:10364000082B21D06368B3F5803F4FD0B3F5A02F8E
:1036500052D0964B1A6822F480321A601A6822F40B
:1036600080221A606368002B50D0FFF79DF8054652
:103670008E4B1B6813F4003F14D1FFF795F8401BE5
:103680006428F5D90320B1E1884B5B6813F4800FFF
:10369000D8D0864B1B6813F4003F03D06368002B1F
:1036A00000F09F81236813F0020F54D07F4B9B687A
:1036B00013F00C0F3ED07D4B9B6803F00C03082BDE
:1036C00033D0E368002B68D0794B01221A60FFF7F2
:1036D0006BF80546754B1B6813F0020F54D1FFF7CA
:1036E00063F8401B0228F5D903207FE16F4A136875
:1036F00043F480331360B5E76C4B1A6842F48022C0
:103700001A601A6842F480321A60ABE7FFF74CF88F
:103710000546664B1B6813F4003FC3D0FFF744F81F
:10372000401B6428F5D9032060E1604B5B6813F40B
:10373000800FC6D15D4B1B6813F0020F03D0E36806
:10374000012B40F05081594A136823F0F803216996
:1037500043EAC1031360236813F0080F42D0636982
:103760006BB3534B0122C3F8802EFFF71DF80546BB
:103770004E4B5B6F13F0020F34D1FFF715F8401B6F
:103780000228F5D9032031E1484A136823F0F803F1
:10379000216943EAC1031360DDE7454B00221A604B
:1037A000FFF702F80546414B1B6813F0020FD2D019
:1037B000FEF7FAFF401B0228F5D9032016E13C4B27
:1037C0000022C3F8802EFEF7EFFF0546374B5B6FF4
:1037D00013F0020F06D0FEF7E7FF401B0228F5D9D1
:1037E000032003E1236813F0040F77D02F4B1B6CE9
:1037F00013F0805F33D1002301932C4B1A6C42F0FD
:1038000080521A641B6C03F080530193019B0125C5
:10381000284B1B6813F4807F23D0A368012B34D07E
:10382000052B38D0214B1A6F22F001021A671A6F4C
:1038300022F004021A67A368002B3DD0FEF7B4FF04
:1038400006461A4B1B6F13F0020F46D1FEF7ACFF72
:10385000801B41F288339842F3D90320C6E000254B
:10386000D6E7144A136843F480731360FEF79CFF95
:103870000646104B1B6813F4807FCED1FEF794FFF1
:10388000801B0228F5D90320B0E0084A136F43F0EB
:1038900001031367CFE7054B1A6F42F004021A6762
:1038A0001A6F42F001021A67C5E700BF00380240F4
:1038B0000000474200700040FEF776FF0646524B7C
:1038C0001B6F13F0020F08D0FEF76EFF801B41F252
:1038D00088339842F3D9032088E0EDB9A369002B1F
:1038E00000F08380484A926802F00C02082A51D006
:1038F000022B17D0454B00221A66FEF755FF0446EF
:10390000414B1B6813F0007F42D0FEF74DFF001BB8
:103910000228F5D9032069E03B4A136C23F0805359
:103920001364DBE7394B00221A66FEF73DFF0546BC
:10393000354B1B6813F0007F06D0FEF735FF401BA8
:103940000228F5D9032051E0E369226A1343626A31
:1039500043EA8213A26A5208013A43EA0243E26A46
:1039600043EA0263284A5360284B01221A66FEF795
:103970001BFF0446244B1B6813F0007F06D1FEF7A3
:1039800013FF001B0228F5D903202FE000202DE0B3
:1039900000202BE0012B2BD01B4B5B6803F4800134
:1039A000E269914226D103F03F02216A8A4223D183
:1039B000616A47F6C0721A40B2EB811F1ED103F450
:1039C0004031A26A5208013AB1EB024F18D103F01C
:1039D0007063E26AB3EB026F14D1002006E00120AD
:1039E0007047012002E0012000E0002002B070BD1D
:1039F0000120FBE70120F9E70120F7E70120F5E7C7
:103A00000120F3E70120F1E70038024000004742BF
:103A100008B5264B9B6803F00C03042B41D0082B00
:103A200041D1224B5A6802F03F025B6813F4800FC9
:103A300012D01E4B5968C1F388111D480023A1FB09
:103A40000001FDF749F9194B5B68C3F301430133EA
:103A50005B00B0FBF3F027E0144B5868C0F388100C
:103A60004FEA401CBCEB000C6EEB0E0E4FEA8E13BF
:103A700043EA9C634FEA8C11B1EB0C0163EB0E033C
:103A8000DB0043EA5173C90011EB000C43F1000362
:103A9000990200234FEA8C2041EA9C51FDF71CF962
:103AA000D1E7034800E0034808BD00BF00380240EA
:103AB00040787D010024F400002800F09B8070B560
:103AC0000D4604464F4B1B6803F007038B4208D298
:103AD000CBB24C4A1370136803F007038B4240F0DB
:103AE0008B80236813F0020F17D013F0040F04D05B
:103AF000454A936843F4E0539360236813F0080F3A
:103B000004D0414A936843F4604393603E4A93680B
:103B100023F0F003A1680B439360236813F0010FB7
:103B200032D06368012B21D09A1E012A25D9364A4A
:103B3000126812F0020F61D033498A6822F0030242
:103B400013438B60FEF730FE06462F4B9B6803F055
:103B50000C036268B3EB820F16D0FEF725FE801BC4
:103B600041F288339842F0D9032042E0264A126895
:103B700012F4003FE0D101203BE0234A126812F02A
:103B8000007FD9D1012034E01E4B1B6803F00703EE
:103B9000AB4207D9EAB21B4B1A701B6803F007034C
:103BA000AB422DD1236813F0040F06D0164A936858
:103BB00023F4E053E1680B439360236813F0080F8C
:103BC00007D0114A936823F46043216943EAC10393
:103BD0009360FFF71DFF0C4B9B68C3F303130B4A65
:103BE000D35CD8400A4B18600A4B1868FEF790FD6A
:103BF000002070BD012070470120FAE70120F8E79E
:103C00000120F6E7003C024000380240608E0008C8
:103C10000800002010000020014B1868704700BF0A
:103C20000800002008B5FFF7F7FF044B9B68C3F3BB
:103C30008223034AD35CD84008BD00BF003802404D
:103C4000588E000808B5FFF7E7FF044B9B68C3F3E5
:103C50004233034AD35CD84008BD00BF003802405D
:103C6000588E00082DE9F04782B005468846174671
:103C70001E46FEF799FD0A9B1B1A03EB0609FEF789
:103C800093FD8246284B1B68C3F3CB3309FB03F338
:103C900001932B689C6838EA04040CBF01230023BD
:103CA000BB423DD0B6F1FF3FF3D0FEF77DFDA0EB68
:103CB0000A00484507D2019A02B14A46019B013BDE
:103CC00001939146E5E72A68536823F0E0035360C7
:103CD0006B68B3F5827F0BD0AB6AB3F5005F14D08D
:103CE000012385F85130002385F85030032018E077
:103CF000AB68B3F5004F02D0B3F5806FECD12A6802
:103D0000136823F040031360E6E72A68136823F47E
:103D1000005313602A68136843F400531360DFE70D
:103D2000002002B0BDE8F0870800002010B584B084
:103D30000446164B1868164BA3FB0030400D4FF499
:103D40007A7303FB00F003906368B3F5827F0BD0B6
:103D5000039BBBB1039B013B039323689B6813F058
:103D6000800FF5D100200EE000920B46002280214A
:103D70002046FFF777FF30B1636D43F020036365A2
:103D8000032000E0002004B010BD00BF08000020A8
:103D9000819F5E1610B582B004460B464168B1F5AE
:103DA000827F14D06168B1F5827F2AD1A168B1F514
:103DB000806F19D00092002280212046FFF752FF29
:103DC00030B3636D43F020036365032020E0816816
:103DD000B1F5004F02D0B1F5806FE3D120680168E2
:103DE00021F040010160DDE7009200220121204620
:103DF000FFF738FF60B1636D43F020036365032074
:103E000006E00092002201212046FFF72BFF08B9AF
:103E100002B010BD636D43F0200363650320F7E734
:103E200000285AD010B50446436A33B94368B3F545
:103E3000827F05D00023C36102E000230361436158
:103E40000023A36294F85130002B40D0022384F861
:103E500051302268136823F040031360636803F451
:103E60008273A26802F404421343E26802F400621F
:103E70001343226902F002021343626902F0010255
:103E80001343A26902F400721343E26902F038029C
:103E90001343226A02F080021343A26A02F4005222
:103EA000216813430B60638B03F00403626A02F022
:103EB0001002216813434B602268D36923F4006326
:103EC000D36100206065012384F8513010BD84F86F
:103ED00050302046FEF73CFBB8E7012070472DE943
:103EE000F04383B01D4690F85030012B00F0D18094
:103EF000044688469146012380F85030FEF754FC72
:103F0000074694F85160F6B2012E40F0AF80B8F148
:103F1000000F00F0AC80B9F1000F00F0A88003237F
:103F200084F8513000236365C4F83080A4F83490DD
:103F3000A4F83690A363A387E38763642364A3682C
:103F4000B3F5004F1ED023681A6812F0400F03D15A
:103F50001A6842F040021A60E368B3F5006F1CD0A3
:103F6000636813B1B9F1010F52D1226B2368127843
:103F70001A73236B01332363E38E9BB2013B9BB225
:103F8000E38645E02268136823F04003136022684B
:103F9000136843F480431360D5E7636813B1B9F144
:103FA000010F16D1226B23681288DA60236B02336B
:103FB0002363E38E9BB2013B9BB2E38609E0FEF7ED
:103FC000F3FBC01BA84202D3B5F1FF3F59D1002D2E
:103FD00059D0E38E9BB2002B33D023689A6812F03D
:103FE000020FECD0226B1288DA60236B023323635A
:103FF000E38E9BB2013B9BB2E386EAE7FEF7D4FB7C
:10400000C01BA84202D3B5F1FF3F3ED1002D3ED0E8
:10401000E38E9BB2ABB123689A6812F0020FEDD029
:10402000226B12781A73236B01332363B4F836C002
:104030001FFA8CFC0CF1FF3C1FFA8CFCA4F836C074
:10404000E6E73A4629462046FFF770FE08B12023EE
:104050006365A36833B901932368DA6801929B68AA
:104060000193019B636D13B9002600E00226012332
:1040700084F85130002384F85030304603B0BDE856
:10408000F0830326F3E70326F1E70326EFE7032691
:10409000EDE70226F1E72DE9F04383B01F460A9DC4
:1040A00090F85030012B00F010810446884691466C
:1040B000012380F85030FEF777FB064694F8513024
:1040C000DBB26268012B0AD0B2F5827F40F0E38058
:1040D000A268002A40F0E980042B40F0E880B8F1A3
:1040E000000F00F0E680B9F1000F00F0E480002F2F
:1040F00000F0E38094F85130DBB2042B02D00523AA
:1041000084F8513000236365C4F83890E787A787A7
:10411000C4F83080E786A7862364636423681A683E
:1041200012F0400F03D11A6842F040021A60E368AF
:10413000B3F5006F11D063680BB1012F0BD1226B67
:10414000236812781A73236B01332363E38E9BB2C7
:10415000013B9BB2E38601276BE063680BB1012F43
:104160000BD1226B23681288DA60236B023323633E
:10417000E38E9BB2013B9BB2E38601271CE02368E0
:104180009A6812F0010F0ED0E28F92B25AB1DA683B
:10419000A36B1A80A36B0233A363E38F9BB2013B33
:1041A0009BB2E3870127FEF7FFFA801BA84203D3E7
:1041B000B5F1FF3F40F08380E38E9BB21BB9E38FE4
:1041C0009BB2002B53D023689A6812F0020FD6D00E
:1041D000E28E92B2002AD2D0002FD0D0226B128869
:1041E000DA60236B02332363E38E9BB2013B9BB205
:1041F000E3860027C3E723689A6812F0010F0ED008
:10420000E28F92B25AB1DA68A36B1A70A36B0133D2
:10421000A363E38F9BB2013B9BB2E3870127FEF7C9
:10422000C3FA831BAB4202D3B5F1FF3F49D1002D46
:1042300049D0E38E9BB213B9E38F9BB2BBB1236825
:104240009A6812F0020FD6D0E28E92B2002AD2D033
:10425000002FD0D0226B12781A73236B01332363A3
:10426000E38E9BB2013B9BB2E3860027C3E7324655
:1042700029462046FFF75AFD48B9A36863B9019360
:104280002368DA6801929B680193019B04E0202374
:104290006365012000E00220012384F851300023EF
:1042A00084F8503003B0BDE8F0830220F4E7022028
:1042B000F2E70120F0E70120EEE70120ECE7032020
:1042C000EAE70320E8E70320E6E70220EAE72DE932
:1042D000F04383B00446884691461D464068B0F5D9
:1042E000827F38D094F85030012B00F0AE8001234B
:1042F00084F85030FEF758FA074694F85160F6B249
:10430000012E40F08F80B8F1000F00F08C80B9F1E1
:10431000000F00F08880042384F851300023636587
:10432000C4F83880A4F83C90A4F83E902363A38698
:10433000E38623646364A368B3F5004F19D0236850
:104340001A6812F0400F03D11A6842F040021A6056
:10435000E3681BB341E0A368002BC3D1042384F8B6
:104360005130009513460A462046FFF794FE064654
:104370005FE02268136823F040031360226813682B
:1043800023F480431360DAE7FEF70EFAC01BA8425D
:1043900002D3B5F1FF3F50D1002D50D0E38F9BB237
:1043A000002B33D023689A6812F0010FECD0A26B77
:1043B0001B7B1370A36B0133A363E38F9BB2013BA1
:1043C0009BB2E387EAE7FEF7EFF9C01BA84202D3EE
:1043D000B5F1FF3F35D1002D35D0E38F9BB2ABB1A6
:1043E00023689A6812F0010FEDD0DA68A36B1A8087
:1043F000A36B0233A363B4F83EC01FFA8CFC0CF12C
:10440000FF3C1FFA8CFCA4F83EC0E6E73A4629467A
:104410002046FFF7BFFC08B120236365636D13B925
:10442000002600E00226012384F85130002384F89E
:104430005030304603B0BDE8F0830326F3E703268F
:10444000F1E70326EFE70326EDE70226F1E790F810
:1044500051007047026802F10C0353E8003F23F457
:1044600090730C3242E800310029F3D1026802F166
:10447000140353E8003F23F00103143242E80031F3
:104480000029F3D1036B012B05D0202380F83E30A7
:10449000002303637047026802F10C0353E8003FF6
:1044A00023F010030C3242E800310029F3D1ECE78D
:1044B00090F83D30DBB2212B01D002207047836899
:1044C000B3F5805F17D0036A5A1C02621A7803683A
:1044D0005A60C38C9BB2013B9BB2C3844BB9026848
:1044E000D36823F08003D3600268D36843F04003AD
:1044F000D360002070470369002BE4D1036A1B8856
:104500000268C3F308035360036A02330362E0E7FF
:1045100010B504460268136923F44053C1680B4385
:104520001361836802691A4343691A43C3691A43D2
:104530000168CB6823F4164323F00C031343CB60CC
:104540000268536923F4407381690B435361036824
:10455000314A934206D002F58062934202D0FFF7BF
:1045600061FB01E0FFF76EFBE369B3F5004F29D073
:104570000021031849411B1841F10001C90041EA1B
:104580005371DB00181863684FEA83024FEA937394
:1045900041F10001FCF7A0FB204AA2FB00314909D0
:1045A000642303FB11031B013233A2FB03235B09CA
:1045B00003F0F00202EB011203F00F032168134431
:1045C0008B6010BD0023021843EB0301121841F168
:1045D0000001C90041EA5271D200101841F10001F6
:1045E000626892185B41FCF777FB0C4AA2FB003132
:1045F0004909642303FB1103DB003233A2FB0323CD
:104600005B095A0002F4F87202EB011203F007038F
:10461000216813448B60D4E7001001401F85EB51E3
:104620002DE9F84305460F4616469946DDF82080E9
:104630002B681C6837EA04040CBF01240024B44230
:104640002DD1B8F1FF3FF3D0B8F1000F05D0FEF740
:10465000ABF8A0EB09004045EAD92A6802F10C0347
:1046600053E8003F23F4D0730C3242E800310029B4
:10467000F3D12A6802F1140353E8003F23F0010349
:10468000143242E800310029F3D1202385F83D306F
:1046900085F83E30002385F83C30032000E0002000
:1046A000BDE8F88358B310B5044690F83D300BB31D
:1046B000242384F83D302268D36823F40053D36068
:1046C0002046FFF725FF2268136923F49043136106
:1046D0002268536923F02A0353612268D36843F4A4
:1046E0000053D36000202064202384F83D3084F8F8
:1046F0003E3010BD80F83C30FDF76EFFD8E701205A
:1047000070472DE9F04182B01E4690F83D30DBB293
:10471000202B54D104460D469046002953D0002A40
:1047200053D090F83C30012B51D0012380F83C301D
:1047300000230364212380F83D30FEF735F8074657
:10474000A4F82480A4F82680A368B3F5805F05D080
:104750004FF00008002384F83C3012E0236913B1C5
:104760004FF00008F6E7A8460025F3E738F8023BCB
:104770002268C3F308035360E28C92B2013A92B20A
:10478000E284E38C9BB273B100963B460022802109
:104790002046FFF745FFE0B9002DE7D015F8012BC3
:1047A00023685A60E8E700963B46002240212046F5
:1047B000FFF736FF78B9202384F83D3000E002206F
:1047C00002B0BDE8F0810120FAE70120F8E70220FD
:1047D000F6E70320F4E70320F2E7704708B5016825
:1047E000CA6822F04002CA60202280F83D20FFF70C
:1047F000F4FF002008BD7047704708B5806B0023A8
:10480000C385C384FFF7F8FF08BD90F83E30DBB2E4
:10481000222B67D18368B3F5805F4DD0826AB3F5F0
:10482000805F04D0002B54D10369002B51D1036861
:104830005B681370836A01338362C38D9BB2013B53
:104840009BB2C385002B4FD100B583B00268D368FB
:1048500023F02003D3600268D36823F48073D3600D
:104860000268536923F001035361202380F83E302E
:10487000036B012B33D100230363026802F10C03A5
:1048800053E8003F23F010030C3242E800310029C6
:10489000F3D103681A6812F0100F06D000220192BB
:1048A0001A6801925B680193019B818DFDF744F8C2
:1048B000002003B05DF804FB0269002AAED1826AD1
:1048C00003685B68C3F308031380836A023383625F
:1048D000B3E703685B6803F07F031370AAE7FFF791
:1048E0008AFFE5E7022070470020704710B582B0CC
:1048F000044602681368D068516913F00F0F09D19C
:1049000013F0200F0CD010F0200F09D02046FFF735
:104910007CFF16E011F0010115D110F4907F12D147
:10492000216B012979D013F0800F03D010F0800F94
:1049300040F0108113F0400F03D010F0400F40F012
:104940000D8102B010BD13F0010F06D010F4807F6E
:1049500003D0226C42F00102226413F0040F04D051
:1049600019B1226C42F00202226413F0020F04D04B
:1049700019B1226C42F00402226413F0080F07D030
:1049800010F0200F00D119B1226C42F0080222640D
:10499000226C002AD5D013F0200F02D010F0200F87
:1049A00029D123685B6903F04003226C12F0080FE1
:1049B00000D163B32046FFF74DFD23685B6913F018
:1049C000400F20D0226802F1140353E8003F23F087
:1049D0004003143242E800310029F3D1A36B73B1D4
:1049E000604A1A65A06BFDF7BBFF0028A9D0A06B39
:1049F000036D9847A5E72046FFF707FFD1E720465C
:104A0000FFF7FAFE9DE72046FFF7F6FE99E72046FE
:104A1000FFF7F2FE0023236493E713F0100F82D018
:104A200010F0100F3FF47FAF002301931368019340
:104A300053680193019B536913F0400F50D0A26B50
:104A400013685B689BB2002B3FF47BAFA18D99424A
:104A50007FF677AFE385D369B3F5807F37D02268DF
:104A600002F10C0353E8003F23F480730C3242E858
:104A700000310029F3D1226802F1140353E8003F0A
:104A800023F00103143242E800310029F3D12268F7
:104A900002F1140353E8003F23F04003143242E8CC
:104AA00000310029F3D1202384F83E300023236312
:104AB000226802F10C0353E8003F23F010030C328C
:104AC00042E800310029F3D1A06BFDF7FFFEA18D74
:104AD000E38D9BB2C91A89B22046FCF72DFF30E75F
:104AE000A18DE38D9BB2C91A89B2E38D9BB2002BD5
:104AF0003FF427AF00293FF424AF226802F10C03F2
:104B000053E8003F23F490730C3242E80030002851
:104B1000F3D1226802F1140353E8003F23F00103AC
:104B2000143242E800300028F3D1202384F83E30CC
:104B300000232363226802F10C0353E8003F23F0B3
:104B400010030C3242E800300028F3D12046FCF775
:104B5000F3FEF6E62046FFF7ABFCF2E62046FFF751
:104B60003DFEEEE6FB47000881628285C285002398
:104B70000364222280F83E2080F83C30036923B190
:104B80000268D36843F48073D3600268536943F0CA
:104B9000010353610268D36843F02003D36000200F
:104BA000704790F83E30DBB2202B29D110B582B08F
:104BB000044639B342B390F83C30012B27D001238F
:104BC00080F83C300363FFF7CFFFF0B9236B012B74
:104BD00001D0012019E00023019323681A68019293
:104BE0005B680193019B226802F10C0353E8003FCC
:104BF00043F010030C3242E800310029F3D104E005
:104C000002207047012000E0012002B010BD022008
:104C1000FBE70000DFF834D00D480E490E4A0023B0
:104C200002E0D458C4500433C4188C42F9D30B4A60
:104C30000B4C002301E013600432A242FBD3FDF7CA
:104C40005DFD00F019FAFDF735F87047000002200D
:104C50000000002080000020189300088000002041
:104C60009C0B0020FEE700000CB430B5174B0C1E67
:104C70001D689DB008DA8B232B604FF0FF301DB00C
:104C8000BDE8304002B070474FF40273ADF8143005
:104C900014BF04F1FF332346049307934FF6FF73C9
:104CA00002900690ADF81630209A21AB02A9284652
:104CB000019300F0B7FA431CBCBF8B232B60002C80
:104CC000DDD0029B00221A70D9E700BF200000202F
:104CD0000EB400B59CB01DAB029006906FF0004181
:104CE000094807910491094953F8042B059100687C
:104CF000019302A900F096FA029B00221A701CB0E0
:104D00005DF804EB03B07047200000200802FFFFAD
:104D1000002310B50446C0E90033C0E904338360C2
:104D200081814366C2818361194608225C3000F0AC
:104D300095F90D4B63620D4BA3620D4BE3620D4B76
:104D400023630D4B24629C4206D003F16802944217
:104D500002D0D0339C4205D104F15800BDE8104088
:104D600000F0AEB910BD00BF155A0008375A000850
:104D70006F5A0008935A00084C0A0020024A03495F
:104D8000034800F0F1B800BF14000020AD5900083E
:104D90002400002041680C4B994210B5044601D014
:104DA00000F004FEA168094B994202D0204600F0B1
:104DB000FDFDE168064B994204D02046BDE8104055
:104DC00000F0F4BD10BD00BF4C0A0020B40A002062
:104DD0001C0B002010B50B4B0B4C0C4A1A602046E4
:104DE00000220421FFF794FF04F168000122092149
:104DF000FFF78EFF04F1D0000222BDE8104012211F
:104E0000FFF786BF840B00204C0A00207D4D000870
:104E1000014800F056B900BF890B0020014800F09E
:104E200051B900BF890B002010B50446FFF7F0FF11
:104E3000236A1BB1BDE81040FFF7F0BF044B2362AB
:104E4000044B1B68002BF5D1FFF7C4FFF2E700BF4E
:104E5000954D0008840B0020242B2DE9F047864651
:104E6000904601D8012B06D100F000F9162303600B
:104E70000020BDE8F08736480D462A4615F8014B5C
:104E8000065D16F00806F8D12D2C24D12C780126C9
:104E9000951C2BBB302C30D00A2306F1004C0CF1B2
:104EA000FF3C0022BCFBF3F9104603FB19CAA4F136
:104EB0003007092F28D83C46A34234DD571C07D0C1
:104EC00081452DD301D1A2452ADB00FB03400122FD
:104ED00015F8014BEBE72B2C04BF2C78951CD8E779
:104EE000102BDAD1302CD8D12A7802F0DF02582AE0
:104EF000D3D16C7810230235CFE72B7803F0DF0392
:104F0000582BF6D00823C8E7A4F14107192F01D880
:104F1000373CD1E7A4F16107192F04D8573CCBE700
:104F20004FF0FF32D4E7531C08D12223CEF80030D3
:104F30006046B8F1000F9CD0691E06E006B1404201
:104F4000B8F1000F95D0002AF6D1C8F8001090E70C
:104F50002E8F000813460A46014602480068FFF7F4
:104F60007BBF00BF200000202DE9F843074688469C
:104F700014460026D4E90195B9F1010905D5246844
:104F8000002CF7D13046BDE8F883AB89012B07D957
:104F9000B5F90E30013303D029463846C0470643E1
:104FA0006835E9E7164B2DE9F0411F687C6C054632
:104FB0000E46ECB9502000F031FA0246786420B970
:104FC000104B11485B2100F0B3F8C0E90044C0E980
:104FD0000244C0E90444C0E90A44C0E90C44C0E901
:104FE0000E44C0E91044C0E912448461047744626D
:104FF0007A6C314628460123BDE8F04100F006B83E
:1050000020000020708E0008878E0008F0B504464E
:1050100008B9146844B1204614F8015B0F4617F82C
:10502000016B1EB965B91560002005E0B542F6D1E7
:10503000002BF0D114600370F0BD1C460CE015B9D4
:1050400014F8013B0E4616F8015BAB42F7D1002B7A
:10505000F3D0002304F8013C1460EDE7024403465A
:10506000934200D1704703F8011BF9E7014B186820
:10507000704700BF2000002070B50D4D0D4C641B23
:10508000A4100026A64209D10B4D0C4C03F052FE91
:10509000641BA4100026A64205D170BD55F8043B40
:1050A00098470136EEE755F8043B98470136F2E79A
:1050B0001093000810930008109300081493000840
:1050C000704770477047000030B52DED028BB0EE91
:1050D000408AF0EE608A0C46002283B00546002329
:1050E00051EC100BFBF7F2FC224618B12D2302F80D
:1050F000013B013D00230948009329466723B0EE98
:10510000480AF0EE680A006800F0EAFD002818BFBF
:10511000204603B0BDEC028B30BD00BF2000002054
:10512000034611F8012B03F8012B002AF9D170472F
:105130001FB514461A46094B1B680546D86854B972
:10514000074B1C46CDE9013400912B46054900F080
:10515000A5FC00F097FE044BF4E700BF2000002000
:10516000699000083B9000082E9000082DE9F04758
:105170008E681F46BE420B6882460C4690462DD86C
:10518000B1F90C2012F4906F26D06569096905EB1E
:105190004505A3EB010905EBD5757B1C4B446D1050
:1051A0009D4238BF1D46530527D5294600F060F9BA
:1051B000064660B321694A4600F056FEA38923F4EF
:1051C000906343F08003A381266165614E44A5EBA3
:1051D00009052660A5603E46BE4200D93E462068CD
:1051E0003246414600F09AFCA3689B1BA3602368EB
:1051F000334423600020BDE8F0872A4600F060FCBD
:1052000006460028E0D12169504601F0F9FC0C2344
:10521000CAF80030A38943F04003A3814FF0FF3068
:10522000E9E700002DE9F04F98468B891B069DB0F9
:1052300007460D46144610D50B6973B9402100F09E
:1052400017F92860286130B90C233B604FF0FF301C
:105250001DB0BDE8F08F40236B610023099320232C
:105260008DF82930CDF80C803023DFF89C818DF843
:105270002A304FF0010923469A4613F8012B0AB150
:10528000252AF9D1BAEB040B0BD05B4622462946FE
:105290003846FFF76BFF013000F0A780099A5A44A7
:1052A00009929AF80030002B00F09F8000234FF005
:1052B000FF32CDE905230AF1010A049307938DF823
:1052C00053301A935446052214F8011B4E48FAF73E
:1052D0007FFF049AD8B9D00644BF20238DF85330FD
:1052E000110744BF2B238DF853309AF800302A2B36
:1052F00015D0079A544600204FF00A0C214611F8A9
:10530000013B303B092B4BD9B0B1079214E0A0EB25
:10531000080309FA03F313430493A246D2E7039B5D
:10532000191D1B680391002BBBBF5B4242F00202B8
:1053300007930793B8BF049223782E2B0AD1637882
:105340002A2B32D1039B1A1D1B68039243EAE37395
:1053500002340593DFF8C0A0217803225046FAF703
:1053600037FF38B1049BA0EB0A0040228240134370
:105370000134049314F8011B24488DF828100622E8
:10538000FAF726FF002836D0214B1BBB039B0733BF
:1053900023F0070308330393099B334409936AE717
:1053A0000CFB02320C460120A8E7002301340593D0
:1053B00019464FF00A0C204610F8012B303A092A02
:1053C00003D9002BC6D00591C4E70CFB012104468C
:1053D0000123F0E703AB00932A460E4B04A938469D
:1053E000AFF30080421C0646D6D1AB895B063FF581
:1053F0002DAF09982CE703AB00932A46054B04A96F
:10540000384600F023F9EDE76A9000087490000830
:10541000000000006D51000870900008024B01462A
:10542000186800F025B800BF2000002070B50F4EAE
:105430000C463168054611B900F0BEFB30602146CC
:10544000284600F0B9FB431C03D14FF0FF3420463F
:1054500070BDC41C24F00304A042F8D0211A2846D1
:1054600000F0AAFB0130F2D1EFE700BF8C0B002067
:105470002DE9F843CD1C25F0030508350C2D38BF68
:105480000C25002D064601DBA94204D90C2333600C
:105490000020BDE8F883DFF8D48000F0AFFAD8F838
:1054A00000301C4644BB29463046FFF7BFFF431C73
:1054B000044658D1D8F800402746002F43D1002C8D
:1054C0004BD023683946304604EB030900F074FBE7
:1054D000814542D121686D1A29463046FFF7A6FF63
:1054E00001303AD023682B442360D8F800305A6842
:1054F00062BBC8F800700FE02268521B20D40B2A50
:1055000017D96119A342256018BF5960636808BFA5
:10551000C8F8001062514B60304600F075FA04F193
:105520000B00231D20F00700C21A1CBF1B1AA3503A
:10553000AFE76268A3420CBFC8F800205A60EBE7EF
:1055400023466468AEE73C467F68B6E71A465B6868
:10555000A342FBD100235360DEE70C2333603046C7
:1055600000F052FA94E70560D6E700BF900B0020E8
:105570002DE9F047164698468A680B69DDF82090B9
:105580009342B8BF1346336091F8432007460C4658
:105590000AB1013333602368990642BF336802338E
:1055A0003360256815F0060506D104F1190AE36891
:1055B00032689B1AAB4226DC94F843302268003BE9
:1055C00018BF012392062BD404F14302414638460A
:1055D000C84701301ED02368226903F00603042B5C
:1055E00002BFE5683368ED1AA3680CBF25EAE575CC
:1055F00000259342C4BF9B1AED1800261A34B54209
:105600001AD1002008E00123524641463846C847D7
:10561000013003D14FF0FF30BDE8F0870135C6E718
:10562000E1185A1C302081F84300224494F84510B8
:1056300082F843100233C7E7012322464146384629
:10564000C8470130E6D00136D9E700002DE9FF4711
:105650000F7E0C9E782F914680460C469A4601F1AB
:10566000430207D8622F0AD8002F00F0DD80582FA0
:1056700000F0C38004F1420684F842703AE0A7F1DA
:105680006303152BF6D801A151F823F0E556000865
:10569000F95600087556000875560008755600083A
:1056A00075560008F956000875560008755600082A
:1056B00075560008755600080F58000887570008EF
:1056C000C75700087556000875560008315800087D
:1056D000755600088757000875560008755600086B
:1056E000CF57000833681A1D1B68326004F1420668
:1056F00084F842300123A8E031682368081D306037
:105700001E0601D50D6803E05D06FBD5B1F900501A
:105710006168002D78DA2D20002984F84300A1600B
:105720002DDA5E486D420A231646B5FBF3F103FB02
:105730001157C75D06F8017D2F46BB420D46F4D9CF
:10574000082B0BD12368DF0708D5236961689942CC
:10575000DEBF302306F8013C06F1FF36921B2261C2
:10576000CDF800A04B4603AA21464046FFF700FFB4
:1057700001306FD14FF0FF3004B0BDE8F08723F067
:1057800004032360CDE721683368080653F8045BFF
:1057900002D4490648BFADB26F2F4048336014BFF2
:1057A0000A230823002184F843106668A660002EAF
:1057B000BADB216821F004012160002DB4D1002E54
:1057C000B2D11646BCE7236843F020032360344877
:1057D000782784F84570236831681F0651F8045B08
:1057E00002D45F0648BFADB23160D90744BF43F071
:1057F000200323601DB11023D4E72848E9E723687C
:1058000023F020032360F6E724480A23CDE733681A
:1058100025686169181D30602E061B6801D5196066
:1058200002E06806FBD5198000232361164697E73E
:1058300033681A1D32601E68626800213046FAF72C
:10584000C7FC08B1801B606063682361002384F893
:10585000433085E72369324649464046D047013008
:1058600088D023689B0714D4E068039B9842B8BF94
:10587000184681E70123324649464046D047013069
:105880003FF478AF0135E36803995B1AAB42F1DC72
:10589000EAE7002504F11906F5E700BF7B90000850
:1058A0008C900008B1F90C202DE9F041170705464E
:1058B0000C4656D44B68002B02DC0B6C002B3DDDF4
:1058C000E66A002E3AD0002312F480522F68216A33
:1058D0002B6025D0626DA389580705D56368D21A5D
:1058E000636B0BB1236CD21A216AE66A0023284647
:1058F000B047411C24D00023636023692360A3893F
:10590000DA0400D56065616B2F60B9B104F144031E
:10591000994202D0284601F073F9002363630DE039
:1059200001232846B047461C0246D4D12B68002BE1
:10593000D1D01D2B01D0162B2BD12F6000202FE0B2
:105940002A68B4F90C3042B11D2A01D0162A22D19E
:105950000023636023692360D5E7626022692260C7
:10596000CEE70F69002FE9D093070E6808BF4B6997
:105970000F6018BF0023A6EB07088B60B8F1000F7B
:10598000DCDD216AA66A43463A462846B04700282D
:1059900008DCB4F90C3043F04003A3814FF0FF3032
:1059A000BDE8F0810744A8EB0008E7E738B50B69CC
:1059B00005460C4613B90025284638BD18B1036AC0
:1059C0000BB9FFF731FAB4F90C30002BF3D0626E4B
:1059D000D00704D4990502D4A06DFFF772FB2846C6
:1059E0002146FFF75FFF636EDA070546E4D4A3891B
:1059F0009B05E1D4A06DFFF765FBDDE70148FFF7EC
:105A000060BB00BF880B00200148FFF75BBB00BFF5
:105A1000880B002010B50C46B1F90E1000F0BAF852
:105A20000028ABBF636DA3891B1823F48053ACBF60
:105A30006365A38110BD2DE9F0411F468B89DB050D
:105A400005460C46164605D5B1F90E100223002274
:105A500000F08EF8A389B4F90E1023F48053A381CB
:105A600032463B462846BDE8F04100F0B5B810B5D7
:105A70000C46B1F90E1000F07BF8431CA38915BF4A
:105A8000606523F4805343F48053A38118BFA3813E
:105A900010BDB1F90E1000F05BB800000EB403B5F4
:105AA000014603AB054853F8042B0068019301F04D
:105AB0001BF902B05DF804EB03B070472000002032
:105AC0002DE9F041804615460C4621B9BDE8F0416C
:105AD0001146FFF7CDBC2AB901F092F80024204608
