:020000040800F2
:100000000000022051260008191200081B120008E7
:100010001D1200081F120008211200080000000035
:100020000000000000000000000000002312000893
:1000300025120008000000002712000829120008FD
:10004000A1260008A1260008A1260008A126000874
:10005000A1260008A1260008A1260008A126000864
:10006000A1260008A1260008A1260008A126000854
:10007000A1260008A1260008A1260008A126000844
:10008000A1260008A1260008A12600080000000003
:10009000000000000000000000000000A126000891
:1000A000A1260008A1260008A1260008A126000814
:1000B000A1260008A1260008A1260008A126000804
:1000C000A1260008A1260008A1260008A1260008F4
:1000D000A1260008311200084112000800000000AB
:1000E000A1260008A1260008A126000800000000A3
:1000F000000000000000000000000000A126000831
:1001000000000000A1260008A1260008A126000882
:1001100000000000000000000000000000000000DF
:10012000A1260008A1260008A1260008A126000893
:10013000A1260008000000000000000000000000F0
:10014000000000000000000000000000A1260008E0
:10015000A1260008A1260008A1260008A126000863
:10016000A1260008A12600080000000000000000F1
:10017000000000000000000000000000000000007F
:1001800000000000A12600080000000000000000A0
:08019000A1260008A1260008C9
:1001A00010F8012B11F8013B012A28BF9A42F7D021
:1001B000D01A70470000000000000000000000009E
:1001C00001F0FF01102A2BDB10F0070F08D010F808
:1001D000013B013A8B422DD010F0070F42B3F6D10C
:1001E000F0B441EA012141EA014122F007047FF025
:1001F00000070023F0E80256083C85EA010586EA7C
:10020000010685FA47F5A3FA87F586FA47F6A5FAB7
:1002100087F68EB9EED1F0BC01F0FF0102F00702C3
:1002200032B110F8013B013A83EA010313B1F8D16E
:100230000020704701387047002D06BF354603384F
:10024000073815F0010F07D1013015F4807F02BF88
:10025000013015F4C03F0130F0BC0138704700BFD9
:1002600081F0004102E000BF83F0004330B54FEA67
:1002700041044FEA430594EA050F08BF90EA020FD4
:100280001FBF54EA000C55EA020C7FEA645C7FEA67
:10029000655C00F0E2804FEA5454D4EB5555B8BF8A
:1002A0006D420CDD2C4480EA020281EA030382EAFB
:1002B000000083EA010180EA020281EA0303362D8D
:1002C00088BF30BD11F0004F4FEA01314FF4801C60
:1002D0004CEA113102D0404261EB410113F0004F72
:1002E0004FEA03334CEA133302D0524263EB430329
:1002F00094EA050F00F0A780A4F10104D5F1200EC7
:100300000DDB02FA0EFC22FA05F2801841F1000121
:1003100003FA0EF2801843FA05F359410EE0A5F1F5
:1003200020050EF1200E012A03FA0EFC28BF4CF026
:10033000020C43FA05F3C01851EBE37101F00045DC
:1003400007D54FF0000EDCF1000C7EEB00006EEBE9
:100350000101B1F5801F1BD3B1F5001F0CD3490873
:100360005FEA30004FEA3C0C04F101044FEA4452CA
:1003700012F5800F80F09A80BCF1004F08BF5FEA51
:10038000500C50F1000041EB045141EA050130BD31
:100390005FEA4C0C404141EB0101013C28BFB1F543
:1003A000801FE9D291F0000F04BF01460020B1FA8E
:1003B00081F308BF2033A3F10B03B3F120020CDA61
:1003C0000C3208DD02F1140CC2F10C0201FA0CF03F
:1003D00021FA02F10CE002F11402D8BFC2F1200CA4
:1003E00001FA02F120FA0CFCDCBF41EA0C0190405A
:1003F000E41AA2BF01EB0451294330BD6FEA0404A3
:100400001F3C1CDA0C340EDC04F11404C4F120028D
:1004100020FA04F001FA02F340EA030021FA04F39F
:1004200045EA030130BDC4F10C04C4F1200220FAF6
:1004300002F001FA04F340EA0300294630BD21FA34
:1004400004F0294630BD94F0000F83F4801306BFFA
:1004500081F480110134013D4EE77FEA645C18BFEE
:100460007FEA655C29D094EA050F08BF90EA020F85
:1004700005D054EA000C04BF1946104630BD91EA7D
:10048000030F1EBF0021002030BD5FEA545C05D180
:100490004000494128BF41F0004130BD14F58004BF
:1004A0003CBF01F5801130BD01F0004545F0FE4133
:1004B00041F470014FF0000030BD7FEA645C1ABF68
:1004C000194610467FEA655C1CBF0B46024650EA9F
:1004D000013406BF52EA033591EA030F41F40021CB
:1004E00030BD00BF90F0000F04BF0021704730B551
:1004F0004FF4806404F132044FF000054FF0000126
:1005000050E700BF90F0000F04BF0021704730B5E6
:100510004FF4806404F1320410F0004548BF4042BB
:100520004FF000013EE700BF42004FEAE2014FEA10
:1005300031014FEA02701FBF12F07F4393F07F4FEB
:1005400081F06051704732F07F4208BF704793F0EE
:100550007F4F04BF41F40021704730B54FF4607401
:1005600001F0004521F000411CE700BF50EA010204
:1005700008BF704730B54FF000050AE050EA0102AD
:1005800008BF704730B511F0004502D5404261EB1D
:1005900041014FF4806404F132045FEA915C3FF45E
:1005A000D8AE4FF003025FEADC0C18BF03325FEAFB
:1005B000DC0C18BF033202EBDC02C2F1200300FAAC
:1005C00003FC20FA02F001FA03FE40EA0E0021FAD1
:1005D00002F11444BDE600BF53B94AB9002908BF6F
:1005E00000281CBF4FF0FF314FF0FF3000F00CB877
:1005F000ADF1080C6DE904CE03F014FBDDF804E066
:10060000DDE9022304B07047704700BF10B5054C08
:10061000237833B9044B13B10448AFF300800123AE
:10062000237010BD6800002000000000E03E0008BC
:1006300008B5034B1BB103490348AFF3008008BD65
:10064000000000006C000020E03E00080346406807
:10065000F0B1884215D0884215DD1A68D30F002A00
:10066000D4BF5B42C3F1010300FB03F393FBF1F33F
:1006700003EBD37302EB630290FBF1F092FBF0F01B
:100680007047186870471B6891FBF0F003FB00F09F
:100690007047000043680BB3154A934221DC154AAA
:1006A000934221DB0168642003FB00F091FBF0F230
:1006B00000FB121107EE902AB8EEE70A07EE901A37
:1006C000B8EEE77AC3EB03139B0007EE903AF8EE1F
:1006D000E77AC7EE276A30EE260A70479FED060AD2
:1006E00070479FED050A70479FED030A704700BFF2
:1006F00014AE4701EC51B8FE0000C07F30B589B0A0
:100700000024039404940594069407940094194BD0
:100710001A6B42F004021A631A6B02F00402009290
:10072000009A01941A6B42F001021A631A6B02F0EC
:1007300001020192019A02941A6B42F002021A63BA
:100740001B6B03F002030293029B0B4D22464FF4F6
:100750000051284600F092FF4FF400530393012309
:1007600004930594069403A9284600F0A3FE09B05B
:1007700030BD00BF00380240000802402DE9F041C2
:1007800096B05F4B01221A705E4C4FF400752A46FA
:100790000021204602F04CF95B4B23604FF47A7342
:1007A0002A462146594801F0CAFC5949594802F0E5
:1007B000E3F880B10546584C4FF400720021204602
:1007C00002F036F92946204602F067F9214604A8CE
:1007D00000F012FC90B94F4C4FF400752A460021EE
:1007E000204602F025F9464B00221A702A4621467F
:1007F0004A4801F0F4FE16B0BDE8F081414C4FF4D8
:1008000000752A460021204602F012F90E9B039340
:100810000D9B02930C9B01930B9B00930A9B099ADF
:100820003F49204601F03EFFDFF8E0804FF47A7345
:100830002A462146404601F082FC2A4600212046F5
:1008400002F0F6F84FF47A7109A8FFF7FFFE0646AA
:100850004FF47A710BA8FFF7F9FE07464FF47A714F
:100860000DA8FFF7F3FE00903B4632462D49204687
:1008700001F018FF4FF47A732A462146404601F0F2
:100880005EFC2A460021204602F0D2F809A8FFF7B4
:1008900001FF10EE100AFFF747FE04460D460BA8B5
:1008A000FFF7F8FE10EE100AFFF73EFE06460F4671
:1008B0000E9B13B3DDED0D7AB8EEE77A07EE903AB2
:1008C000F8EEE77AC7EE277A17EE900ADFF8348061
:1008D000FFF72AFECDE90201CDE9006722462B464B
:1008E0001149404601F0DEFE4FF47A734FF4007276
:1008F0004146064801F023FC6DE70C48E6E700BFDF
:1009000084040020840200200D0A0A0088060020CA
:10091000303F00088804002084000020CC0600201E
:10092000F83E0008343F00088C3F00080000C07FFC
:1009300072B6FEE708B50A480A4B03604FF4165337
:10094000436000238360C36003610C2242618361C2
:10095000C36101F0C5FB00B908BDFFF7E9FF00BFA7
:10096000CC0600200010014008B50A480A4B03607D
:100970004FF46133436000238360C36003610C2242
:1009800042618361C36101F0ABFB00B908BDFFF7B1
:10099000CFFF00BF880600200044004008B50A4889
:1009A0000A4B03600A4B436000238360C3604FF42B
:1009B0008042026143618361C361036200F064FEAF
:1009C00000B908BDFFF7B4FF100700200054004035
:1009D000A086010000B595B03022002108A802F0E1
:1009E00027F8002303930493059306930793019339
:1009F000184A116C41F080511164126C02F080525F
:100A00000192019A0293144A116841F44041116025
:100A1000126802F440420292029A022208920122D3
:100A20000B9210220C920E9308A800F00BFF68B9ED
:100A30000F2303930021049105910691079103A8C8
:100A400001F050F920B915B05DF804FBFFF770FF15
:100A5000FFF76EFF003802400070004008B500F05C
:100A600027FCFFF7B7FFFFF749FEFFF763FFFFF72C
:100A70007BFFFFF793FF4FF400720249024801F039
:100A8000AEFDFEE788040020CC060020084B1B5C6E
:100A900013F0970F07D02C2807D02A2801D0012067
:100AA000704700207047002070470020704700BF4B
:100AB000DA4000080EB42DE9F04F84B00D9E08B95D
:100AC000002083E204460EAB03930546002703E2B1
:100AD000002F40F00A82384678E25DB12D78284632
:100AE000FFF7D4FF00B90025039B1A1D03921B6872
:100AF0001D70E8E10025F7E7FDB12D782846FFF7E6
:100B0000C5FFE0B1453D122D00F26582DFE815F02A
:100B100013006302630263026302630263026302FF
:100B20006302130063026302630263021E00630236
:100B3000630263021E00012102E0002100E00021A7
:100B4000039B1A1D03921B681960BCE14FF0FF3133
:100B5000F6E7002D40F083804FF0000A4FF0FF3998
:100B6000D346BBF1000F02D1BAF1000F7DD0B9F12D
:100B7000FF3F00F03A82BAF1000F7BD0BBF1000FCB
:100B800001D00BFB09F9039B1A1D03921B68C3F8E4
:100B90000090C3F804A096E1BBF1000F33D1B9F186
:100BA000FF3F30D14FF0010B22E0BBF1000F2DD100
:100BB000B9F1FF3F2AD1CB461AE04FF0000930E0EF
:100BC000BAF1000FCDD1002000E2B8F12E0F40D0D5
:100BD000B8F1200F40F00182BBF1000F40F0FF811F
:100BE000B9F1FF3F40F0FD81BAF1000F40F0FB8109
:100BF000013595F800804046FFF748FF0028B0D047
:100C0000B8F12B0FC8D0B8F12D0FCED0A94B13F8E7
:100C1000083013F0040FD8D0A8F13008B9F1FF3F25
:100C2000CBD06FF00043A3EB0803A34A82FB03126F
:100C3000DB17C3EBA2034B45C2DB09EB890908EBC9
:100C40004909BAF1000FD3D00AEB8A0A4FEA4A0ADF
:100C5000CEE7BAF1000FBBD14FF0010AC8E74FF061
:100C6000000A4FF0FF39D346C3E7B9F1FF3F82D105
:100C7000D14683E74FF0010A80E795B10A2202A925
:100C8000284601F051FE0546029B1878FFF7FEFE4C
:100C900028B9039B1A1D03921B681D6013E10020F5
:100CA00094E10025F5E7039B1A1D0392D3F8008019
:100CB0001DB9002388F8003005E195F800904846FA
:100CC000FFF7E4FE0028F4D00135434603F8019B0A
:100CD0009846F2E7002D00F08A812B78242B40F013
:100CE00088814FF00008B8F1040F08DC08F1010812
:100CF00015F80800FFF7CAFE0028F4D166E1039B4F
:100D00001A1D03921B68D5F801201A606A791A71BE
:100D100000225A71D7E0039B1A1D0392D3F800807A
:100D2000002D48D095F800904846FFF7AFFE60B917
:100D30004FF0FF3005468146C8F80090C8F80450CF
:100D4000C8F80800BFE0002040E10023052B07DCC5
:100D5000EA5C58498A5C12F0040FF4D00133F5E7DD
:100D60008DF800906B788DF801304FF0000A8DF807
:100D700002A0AB788DF80430EB788DF805308DF853
:100D800006A02B798DF808306B798DF809308DF835
:100D90000AA00A225146684601F0C6FD81460A2291
:100DA000514601A801F0C0FD05460A22514602A89D
:100DB00001F0BAFDC0E74FF0FF3005468146BBE7C2
:100DC000039B1A1D0392D3F80080002D6CD095F878
:100DD00000904846FFF75AFE78B94FF0FF331846A7
:100DE00099469A46C8F800A0C8F80490C8F80800C8
:100DF000C8F80C3067E00020E8E00023052B07DC92
:100E0000EA5C2C498A5C12F0040FF4D00133F5E758
:100E10008DF800906B788DF801304FF0000B8DF855
:100E200002B0AB788DF80430EB788DF805308DF892
:100E300006B02B798DF808306B798DF809308DF874
:100E40000AB00A225946684601F06EFD82460A221F
:100E5000594601A801F068FD81460A22594602A8B8
:100E600001F062FD05F1070CAB792E2B19D05B4622
:100E7000B8E703EB83030CF1010C02EB4302A2F190
:100E800030030E4AA2FB0112D1089CF80020094D44
:100E9000AD5C15F0040F01D00129EAD801FB03F382
:100EA000A0E707490023F0E74FF0FF3318469946C3
:100EB0009A4697E7DA40000867666666CDCCCCCCE8
:100EC00040420F00013425782846FFF7DFFD002857
:100ED000F8D12C2D72D000253378002B73D0013639
:100EE0003B2B6ED0002D3FF4F3AD443B302B6CD840
:100EF00001A252F823F000BF170D0008CB0F000825
:100F0000CB0F0008CB0F0008CB0F0008CB0F000859
:100F1000CB0F0008CB0F0008CB0F0008CB0F000849
:100F2000CB0F0008CB0F0008CB0F0008CB0F000839
:100F3000CB0F0008CB0F0008C10D0008CB0F000835
:100F4000CB0F0008CB0F0008CB0F0008CB0F000819
:100F5000CB0F0008CB0F0008CB0F0008CB0F000809
:100F6000CB0F0008C70E0008CB0F0008CB0F0008FE
:100F7000CB0F0008DB0A0008F90A0008CB0F0008B5
:100F8000530B0008CB0F0008CB0F00087B0C0008A8
:100F9000CB0F0008CB0F0008CB0F0008CB0F0008C9
:100FA000CB0F0008CB0F0008CB0F0008CB0F0008B9
:100FB000CB0F0008A70C0008D50C0008013425460B
:100FC0008AE7012788E7012000E0002004B0BDE89F
:100FD000F04F03B070470020F8E70020F6E700204C
:100FE000F4E70020F2E70020F0E70020EEE7002021
:100FF000ECE70020EAE700BF30B591B004460846B0
:101000000AAB099304F14003089304F134030793F6
:1010100004F12C03069304F1240305930BAB049312
:1010200004F11C0303930CAB029304F1140301932A
:101030000DF13703009323460EAA1349FFF73AFD3B
:101040000546D8B111490DF13A00FFF7A9F8C0B92A
:101050009DF83730412B14BF0023012323746269AC
:101060000C9B02FB03F36361E2690B9B02FB03F33E
:10107000E361226C0A9B02FB03F32364284611B050
:1010800030BD0025FAE700BFF43F0008E83F000844
:1010900082B0002100910B4B5A6C42F480425A649A
:1010A0005A6C02F480420092009A01911A6C42F04C
:1010B00080521A641B6C03F080530193019B02B0B1
:1010C000704700BF0038024030B589B00023039359
:1010D00004930593069307930268144B9A4201D038
:1010E00009B030BD00250195114C236B43F002037C
:1010F0002363236B03F002030193019BC02303933B
:1011000012230493032306930423079303A9094896
:1011100000F0D0F90295236C43F400132364236C90
:1011200003F400130293029BDAE700BF005400406F
:10113000003802400004024010B58AB00023059335
:10114000069307930893099303682F4A934204D0A8
:101150002E4A93422DD00AB010BD002401942C4B8E
:101160005A6C42F010025A645A6C02F0100201925A
:10117000019A02941A6B42F001021A631B6B03F08E
:1011800001030293029B4FF4C0630593022306936D
:10119000032308930723099305A91E4800F08AF941
:1011A00022462146252000F0F5F8252000F002F91E
:1011B000D1E700240394164B1A6C42F400321A64EF
:1011C0001A6C02F400320392039A04941A6B42F0F0
:1011D00001021A631B6B03F001030493049B0C23AD
:1011E000059302230693032308930723099305A974
:1011F000084800F05FF922462146262000F0CAF890
:10120000262000F0D7F8A6E7001001400044004077
:101210000038024000000240FEE7FEE7FEE7FEE77E
:10122000FEE770477047704708B500F05BF808BDEF
:1012300008B5024801F078F808BD00BFCC060020D0
:1012400008B5024801F070F808BD00BF880600200C
:10125000034AD2F8883043F47003C2F888307047EC
:1012600000ED00E010B504460E4B1A784FF47A7387
:10127000B3FBF2F30C4A1068B0FBF3F000F0A8F8EF
:1012800068B90F2C01D901200AE0002221464FF055
:10129000FF3000F07FF8054B1C60002000E00120CB
:1012A00010BD00BF04000020000000200800002046
:1012B00008B50B4B1A6842F400721A601A6842F4BF
:1012C00080621A601A6842F480721A60032000F08B
:1012D0004FF80F20FFF7C6FFFFF7DAFE002008BD2A
:1012E000003C0240034A1168034B1B780B44136017
:1012F000704700BF6407002004000020014B1868FD
:10130000704700BF64070020002808DB0901C9B24C
:1013100000F1604000F5614080F80013704700F074
:101320000F000901C9B2014B1954704714ED00E0D8
:1013300000B500F00700C0F1070CBCF1040F28BF96
:101340004FF0040C031D062B0FD9C31E4FF0FF3EB8
:101350000EFA0CF021EA000199400EFA03FE22EA8F
:101360000E0241EA02005DF804FB0023EEE70000F4
:10137000074AD36823F4E0631B041B0C000200F44B
:10138000E060034343F0BF6343F40033D36070472E
:1013900000ED00E010B50446054BD868C0F302200C
:1013A000FFF7C6FF01462046FFF7AEFF10BD00BFA6
:1013B00000ED00E0002807DB00F01F0240090123D8
:1013C0009340024A42F82030704700BF00E100E03D
:1013D0000138B0F1807F0BD24FF0E0235861054A0D
:1013E000F02182F823100020986107221A617047CB
:1013F0000120704700ED00E070B50446866DFFF7F0
:101400007DFF94F83530DBB2022B06D08023636574
:10141000002384F83430012070BD0546226813682B
:1014200023F0160313602268536923F0800353618D
:10143000236CE3B12268136823F008031360226869
:10144000136823F00103136023681B6813F0010F76
:1014500011D0FFF753FF431B052BF5D920236365FC
:10146000032084F83500002384F83430D4E7A36CDB
:10147000002BDFD1E3E7E26D3F239340B36001230C
:1014800084F83530002084F83400C5E790F8353012
:10149000DBB2022B03D08023436501207047052374
:1014A00080F835300268136823F0010313600020D0
:1014B0007047000000230F2B00F2D78070B582B078
:1014C00065E085684FEA430E032404FA0EF425EA2A
:1014D0000405CC6804FA0EF42C438460446824EAC2
:1014E00002044A68C2F300129A40224342605CE060
:1014F000DC08083450F8242003F00705AD004FF055
:101500000F0E0EFA05FE22EA0E0E0A69AA4042EA02
:101510000E0240F824205CE0042200E0002202FADF
:101520000EF22A430234514D45F82420504A946863
:101530006FEA0C0224EA0C054E6816F4801F01D0F5
:101540004CEA04054A4CA560E46802EA04054E68CA
:1015500016F4001F01D04CEA0405454CE5606468B0
:1015600002EA04054E6816F4003F01D04CEA040577
:101570003F4C6560246822404D6815F4803F01D0DF
:101580004CEA04023A4C226001330F2B6BD8012243
:101590009A400C6804EA020C32EA0404F4D14C6864
:1015A00004F00304013C012C8BD94A6802F00302C9
:1015B000032A09D0C4685D000322AA4024EA020479
:1015C0008A68AA402243C2604A6802F00302022AE3
:1015D0008ED004684FEA430E032202FA0EF224EA88
:1015E00002044A6802F0030202FA0EF22243026089
:1015F0004A6812F4403FC7D0002201921D4A546C41
:1016000044F480445464526C02F480420192019A82
:101610009C08A51C154A52F8255003F0030E4FEA0A
:101620008E0E0F2202FA0EF225EA0205124A9042AD
:101630003FF474AF02F5806290420ED002F58062F2
:1016400090420CD002F5806290420AD002F580628E
:1016500090423FF461AF072261E701225FE7022277
:101660005DE703225BE702B070BD704700380140C0
:10167000003C014000380240000002400AB1816194
:101680007047090481617047002800F0CC8070B574
:10169000044690F83D30002B77D0242384F83D3069
:1016A0002268136823F0010313602268136843F46F
:1016B000004313602268136823F40043136000F0B2
:1016C000C7FB62685A4B9A4264D85A4B98428CBF07
:1016D00000230123002B40F0A8805749A1FB0031D3
:1016E0008B0C25686A6822F03F0242EA91426A60E8
:1016F00021680A6A22F03F0266684D4DAE424FD81B
:10170000013313430B622168CA6922F44F4222F06D
:10171000FF026568464B9D424CD8431E6D00B3FBEB
:10172000F5F3013340F6FC70034278D0C3F30B03AA
:101730001A43CA6121680B6823F0C003E269206A7A
:10174000024313430B6021688B6823F4034323F0A7
:10175000FF032269E068024313438B602168CB6872
:1017600023F0FF036269A06902431343CB60226840
:10177000136843F00103136000202064202384F8E1
:101780003D30206384F83E0070BD80F83C30FFF7A8
:101790009BFC82E7294B98428CBF0023012399E7E9
:1017A0004FF4967505FB03F3254DA5FB03539B09E9
:1017B0000133A6E7A668BEB9431E05EB450CB3FB93
:1017C000FCF30133C3F30B03B3FA83F35B0943BBAD
:1017D000C6B9431E05EB4505B3FBF5F30133C3F36F
:1017E0000B0343F40043A3E7431E05EB850C0CEB0E
:1017F0008C0CB3FBFCF30133C3F30B03B3FA83F399
:101800005B09E4E7431E05EB850505EB8505B3FBA6
:10181000F5F30133C3F30B0343F4404388E7042398
:1018200086E7012384E7012070470120ACE700BF71
:10183000A08601007F841E0083DE1B43FF083D005D
:10184000D34D6210002800F0E08170B582B00446EC
:10185000036813F0010F3BD09F4B9B6803F00C0310
:10186000042B2CD09C4B9B6803F00C03082B21D03D
:101870006368B3F5803F4FD0B3F5A02F52D0964B9D
:101880001A6822F480321A601A6822F480221A60E0
:101890006368002B50D0FFF731FD05468E4B1B6867
:1018A00013F4003F14D1FFF729FD401B6428F5D93C
:1018B0000320B1E1884B5B6813F4800FD8D0864BCE
:1018C0001B6813F4003F03D06368002B00F09F8176
:1018D000236813F0020F54D07F4B9B6813F00C0F5A
:1018E0003ED07D4B9B6803F00C03082B33D0E3689C
:1018F000002B68D0794B01221A60FFF7FFFC0546E8
:10190000754B1B6813F0020F54D1FFF7F7FC401B17
:101910000228F5D903207FE16F4A136843F480332E
:101920001360B5E76C4B1A6842F480221A601A689B
:1019300042F480321A60ABE7FFF7E0FC0546664BE5
:101940001B6813F4003FC3D0FFF7D8FC401B64288A
:10195000F5D9032060E1604B5B6813F4800FC6D1BA
:101960005D4B1B6813F0020F03D0E368012B40F0BE
:101970005081594A136823F0F803216943EAC103EF
:101980001360236813F0080F42D063696BB3534BA5
:101990000122C3F8802EFFF7B1FC05464E4B5B6F6A
:1019A00013F0020F34D1FFF7A9FC401B0228F5D930
:1019B000032031E1484A136823F0F803216943EA20
:1019C000C1031360DDE7454B00221A60FFF796FC68
:1019D0000546414B1B6813F0020FD2D0FFF78EFC77
:1019E000401B0228F5D9032016E13C4B0022C3F826
:1019F000802EFFF783FC0546374B5B6F13F0020F19
:101A000006D0FFF77BFC401B0228F5D9032003E139
:101A1000236813F0040F77D02F4B1B6C13F0805FFB
:101A200033D1002301932C4B1A6C42F080521A647C
:101A30001B6C03F080530193019B0125284B1B680D
:101A400013F4807F23D0A368012B34D0052B38D02A
:101A5000214B1A6F22F001021A671A6F22F004025A
:101A60001A67A368002B3DD0FFF748FC06461A4BC7
:101A70001B6F13F0020F46D1FFF740FC801B41F2B1
:101A800088339842F3D90320C6E00025D6E7144AEC
:101A9000136843F480731360FFF730FC0646104B65
:101AA0001B6813F4807FCED1FFF728FC801B02282F
:101AB000F5D90320B0E0084A136F43F00103136720
:101AC000CFE7054B1A6F42F004021A671A6F42F013
:101AD00001021A67C5E700BF003802400000474214
:101AE00000700040FFF70AFC0646524B1B6F13F0D4
:101AF000020F08D0FFF702FC801B41F288339842A6
:101B0000F3D9032088E0EDB9A369002B00F08380AE
:101B1000484A926802F00C02082A51D0022B17D0D2
:101B2000454B00221A66FFF7E9FB0446414B1B6850
:101B300013F0007F42D0FFF7E1FB001B0228F5D92C
:101B4000032069E03B4A136C23F080531364DBE706
:101B5000394B00221A66FFF7D1FB0546354B1B684F
:101B600013F0007F06D0FFF7C9FB401B0228F5D910
:101B7000032051E0E369226A1343626A43EA821355
:101B8000A26A5208013A43EA0243E26A43EA026364
:101B9000284A5360284B01221A66FFF7AFFB044620
:101BA000244B1B6813F0007F06D1FFF7A7FB001B37
:101BB0000228F5D903202FE000202DE000202BE0A3
:101BC000012B2BD01B4B5B6803F48001E26991422F
:101BD00026D103F03F02216A8A4223D1616A47F687
:101BE000C0721A40B2EB811F1ED103F44031A26AC9
:101BF0005208013AB1EB024F18D103F07063E26A68
:101C0000B3EB026F14D1002006E0012070470120E1
:101C100002E0012000E0002002B070BD0120FBE7DF
:101C20000120F9E70120F7E70120F5E70120F3E7BC
:101C30000120F1E7003802400000474208B5264B7A
:101C40009B6803F00C03042B41D0082B41D1224B9D
:101C50005A6802F03F025B6813F4800F12D01E4BEB
:101C60005968C1F388111D480023A1FB0001FEF74C
:101C7000B3FC194B5B68C3F3014301335B00B0FB5A
:101C8000F3F027E0144B5868C0F388104FEA401C6B
:101C9000BCEB000C6EEB0E0E4FEA8E1343EA9C6316
:101CA0004FEA8C11B1EB0C0163EB0E03DB0043EA4E
:101CB0005173C90011EB000C43F10003990200239A
:101CC0004FEA8C2041EA9C51FEF786FCD1E703489D
:101CD00000E0034808BD00BF0038024040787D01A5
:101CE0000024F400002800F09B8070B50D460446E7
:101CF0004F4B1B6803F007038B4208D2CBB24C4A10
:101D00001370136803F007038B4240F08B80236845
:101D100013F0020F17D013F0040F04D0454A936854
:101D200043F4E0539360236813F0080F04D0414A52
:101D3000936843F4604393603E4A936823F0F00352
:101D4000A1680B439360236813F0010F32D06368DE
:101D5000012B21D09A1E012A25D9364A126812F089
:101D6000020F61D033498A6822F0030213438B606B
:101D7000FFF7C4FA06462F4B9B6803F00C0362681A
:101D8000B3EB820F16D0FFF7B9FA801B41F288330C
:101D90009842F0D9032042E0264A126812F4003F2C
:101DA000E0D101203BE0234A126812F0007FD9D134
:101DB000012034E01E4B1B6803F00703AB4207D938
:101DC000EAB21B4B1A701B6803F00703AB422DD11C
:101DD000236813F0040F06D0164A936823F4E053E7
:101DE000E1680B439360236813F0080F07D0114A92
:101DF000936823F46043216943EAC1039360FFF7CA
:101E00001DFF0C4B9B68C3F303130B4AD35CD840F4
:101E10000A4B18600A4B1868FFF724FA002070BDBF
:101E2000012070470120FAE70120F8E70120F6E7DA
:101E3000003C0240003802400C4000080000002036
:101E400008000020014B1868704700BF0000002008
:101E500008B5FFF7F7FF044B9B68C3F38223034ADF
:101E6000D35CD84008BD00BF0038024004400008E1
:101E700008B5FFF7E7FF044B9B68C3F34233034AFF
:101E8000D35CD84008BD00BF0038024004400008C1
:101E9000026802F10C0353E8003F23F490730C3204
:101EA00042E800310029F3D1026802F1140353E83B
:101EB000003F23F00103143242E800310029F3D13E
:101EC000036B012B05D0202380F83E3000230363F1
:101ED0007047026802F10C0353E8003F23F010033F
:101EE0000C3242E800310029F3D1ECE790F83D30A4
:101EF000DBB2212B01D0022070478368B3F5805FED
:101F000017D0036A5A1C02621A7803685A60C38C9D
:101F10009BB2013B9BB2C3844BB90268D36823F0E8
:101F20008003D3600268D36843F04003D36000208D
:101F300070470369002BE4D1036A1B880268C3F36E
:101F400008035360036A02330362E0E710B50446F6
:101F50000268136923F44053C1680B43136183681B
:101F600002691A4343691A43C3691A430168CB687B
:101F700023F4164323F00C031343CB600268536928
:101F800023F4407381690B4353610368314A9342E0
:101F900006D002F58062934202D0FFF759FF01E0BC
:101FA000FFF766FFE369B3F5004F29D0002103185E
:101FB00049411B1841F10001C90041EA5371DB009E
:101FC000181863684FEA83024FEA937341F10001E6
:101FD000FEF702FB204AA2FB00314909642303FB00
:101FE00011031B013233A2FB03235B0903F0F00250
:101FF00002EB011203F00F03216813448B6010BD44
:102000000023021843EB0301121841F10001C9003B
:1020100041EA5271D200101841F100016268921831
:102020005B41FEF7D9FA0C4AA2FB0031490964234F
:1020300003FB1103DB003233A2FB03235B095A00CD
:1020400002F4F87202EB011203F007032168134453
:102050008B60D4E7001001401F85EB512DE9F84358
:1020600005460F4616469946DDF820802B681C6809
:1020700037EA04040CBF01240024B4422DD1B8F186
:10208000FF3FF3D0B8F1000F05D0FFF737F9A0EB11
:1020900009004045EAD92A6802F10C0353E8003FE1
:1020A00023F4D0730C3242E800310029F3D12A68BE
:1020B00002F1140353E8003F23F00103143242E815
:1020C00000310029F3D1202385F83D3085F83E30DA
:1020D000002385F83C30032000E00020BDE8F883B1
:1020E00058B310B5044690F83D300BB3242384F860
:1020F0003D302268D36823F40053D3602046FFF7B5
:1021000025FF2268136923F4904313612268536901
:1021100023F02A0353612268D36843F40053D36049
:1021200000202064202384F83D3084F83E3010BD28
:1021300080F83C30FFF700F8D8E7012070472DE920
:10214000F04182B01E4690F83D30DBB2202B54D1D6
:1021500004460D469046002953D0002A53D090F8EB
:102160003C30012B51D0012380F83C300023036424
:10217000212380F83D30FFF7C1F80746A4F82480FA
:10218000A4F82680A368B3F5805F05D04FF000085F
:10219000002384F83C3012E0236913B14FF00008AB
:1021A000F6E7A8460025F3E738F8023B2268C3F3B8
:1021B00008035360E28C92B2013A92B2E284E38C5B
:1021C0009BB273B100963B46002280212046FFF768
:1021D00045FFE0B9002DE7D015F8012B23685A60C0
:1021E000E8E700963B46002240212046FFF736FFF5
:1021F00078B9202384F83D3000E0022002B0BDE829
:10220000F0810120FAE70120F8E70220F6E7032039
:10221000F4E70320F2E7704708B50168CA6822F0C6
:102220004002CA60202280F83D20FFF7F4FF002022
:1022300008BD7047704708B5806B0023C385C38411
:10224000FFF7F8FF08BD90F83E30DBB2222B67D1D4
:102250008368B3F5805F4DD0826AB3F5805F04D0A8
:10226000002B54D10369002B51D103685B681370B4
:10227000836A01338362C38D9BB2013B9BB2C385EA
:10228000002B4FD100B583B00268D36823F0200340
:10229000D3600268D36823F48073D3600268536903
:1022A00023F001035361202380F83E30036B012BA0
:1022B00033D100230363026802F10C0353E8003FAB
:1022C00023F010030C3242E800310029F3D10368F7
:1022D0001A6812F0100F06D0002201921A680192BB
:1022E0005B680193019B818DFEF748FA002003B0E3
:1022F0005DF804FB0269002AAED1826A03685B685C
:10230000C3F308031380836A02338362B3E703686D
:102310005B6803F07F031370AAE7FFF78AFFE5E726
:10232000022070470020704710B582B00446026852
:102330001368D068516913F00F0F09D113F0200F03
:102340000CD010F0200F09D02046FFF77CFF16E0DC
:1023500011F0010115D110F4907F12D1216B0129E8
:1023600079D013F0800F03D010F0800F40F010816F
:1023700013F0400F03D010F0400F40F00D8102B079
:1023800010BD13F0010F06D010F4807F03D0226C33
:1023900042F00102226413F0040F04D019B1226C40
:1023A00042F00202226413F0020F04D019B1226C31
:1023B00042F00402226413F0080F07D010F0200F3F
:1023C00000D119B1226C42F008022264226C002A6A
:1023D000D5D013F0200F02D010F0200F29D12368A0
:1023E0005B6903F04003226C12F0080F00D163B365
:1023F0002046FFF74DFD23685B6913F0400F20D0A6
:10240000226802F1140353E8003F23F04003143222
:1024100042E800310029F3D1A36B73B1604A1A6519
:10242000A06BFFF733F80028A9D0A06B036D984785
:10243000A5E72046FFF707FFD1E72046FFF7FAFEA2
:102440009DE72046FFF7F6FE99E72046FFF7F2FEEC
:102450000023236493E713F0100F82D010F0100FC5
:102460003FF47FAF002301931368019353680193F6
:10247000019B536913F0400F50D0A26B13685B6847
:102480009BB2002B3FF47BAFA18D99427FF677AFD3
:10249000E385D369B3F5807F37D0226802F10C035E
:1024A00053E8003F23F480730C3242E800310029E6
:1024B000F3D1226802F1140353E8003F23F0010333
:1024C000143242E800310029F3D1226802F11403EA
:1024D00053E8003F23F04003143242E80031002962
:1024E000F3D1202384F83E3000232363226802F1D5
:1024F0000C0353E8003F23F010030C3242E8003194
:102500000029F3D1A06BFEF777FFA18DE38D9BB27D
:10251000C91A89B22046FEF731F930E7A18DE38D63
:102520009BB2C91A89B2E38D9BB2002B3FF427AF4F
:1025300000293FF424AF226802F10C0353E8003F66
:1025400023F490730C3242E800300028F3D1226863
:1025500002F1140353E8003F23F00103143242E870
:1025600000300028F3D1202384F83E300023236379
:10257000226802F10C0353E8003F23F010030C32F1
:1025800042E800300028F3D12046FEF7F7F8F6E6DF
:102590002046FFF7ABFCF2E62046FFF73DFEEEE6F5
:1025A0003722000881628285C285002303642222CB
:1025B00080F83E2080F83C30036923B10268D3687C
:1025C00043F48073D3600268536943F0010353619D
:1025D0000268D36843F02003D3600020704790F86E
:1025E0003E30DBB2202B29D110B582B0044639B37E
:1025F00042B390F83C30012B27D0012380F83C30C7
:102600000363FFF7CFFFF0B9236B012B01D001204B
:1026100019E00023019323681A6801925B68019313
:10262000019B226802F10C0353E8003F43F01003C2
:102630000C3242E800310029F3D104E00220704757
:10264000012000E0012002B010BD0220FBE70000E5
:10265000DFF834D00D480E490E4A002302E0D4586A
:10266000C4500433C4188C42F9D30B4A0B4C0023DA
:1026700001E013600432A242FBD3FEF7E9FD00F053
:10268000E5F9FEF7EBF9704700000220000000209A
:10269000680000205C42000868000020B8080020A4
:1026A000FEE700000EB400B59CB01DAB0290069092
:1026B0006FF00041094807910491094953F8042B30
:1026C00005910068019302A900F06AFA029B0022BA
:1026D0001A701CB05DF804EB03B0704718000020BE
:1026E0000802FFFF002310B50446C0E90033C0E92B
:1026F0000433836081814366C28183611946082265
:102700005C3000F095F90D4B63620D4BA3620D4BED
:10271000E3620D4B23630D4B24629C4206D003F110
:102720006802944202D0D0339C4205D104F1580093
:10273000BDE8104000F0AEB910BD00BF91330008F5
:10274000B3330008EB3300080F340008680700209B
:10275000024A0349034800F0F1B800BF0C00002012
:10276000293300081C00002041680C4B994210B529
:10277000044601D000F0D8FDA168094B994202D06F
:10278000204600F0D1FDE168064B994204D0204676
:10279000BDE8104000F0C8BD10BD00BF68070020B4
:1027A000D00700203808002010B50B4B0B4C0C4A0A
:1027B0001A60204600220421FFF794FF04F168000C
:1027C00001220921FFF78EFF04F1D0000222BDE8AB
:1027D00010401221FFF786BFA008002068070020E4
:1027E00051270008014800F056B900BFA508002095
:1027F000014800F051B900BFA508002010B50446FB
:10280000FFF7F0FF236A1BB1BDE81040FFF7F0BFF0
:10281000044B2362044B1B68002BF5D1FFF7C4FF68
:10282000F2E700BF69270008A0080020242B2DE94B
:10283000F0478646904601D8012B06D100F000F9FA
:10284000162303600020BDE8F08736480D462A466F
:1028500015F8014B065D16F00806F8D12D2C24D191
:102860002C780126951C2BBB302C30D00A2306F186
:10287000004C0CF1FF3C0022BCFBF3F9104603FBBB
:1028800019CAA4F13007092F28D83C46A34234DDE9
:10289000571C07D081452DD301D1A2452ADB00FB6F
:1028A0000340012215F8014BEBE72B2C04BF2C78D9
:1028B000951CD8E7102BDAD1302CD8D12A7802F029
:1028C000DF02582AD3D16C7810230235CFE72B785A
:1028D00003F0DF03582BF6D00823C8E7A4F1410723
:1028E000192F01D8373CD1E7A4F16107192F04D87B
:1028F000573CCBE74FF0FF32D4E7531C08D12223DB
:10290000CEF800306046B8F1000F9CD0691E06E09A
:1029100006B14042B8F1000F95D0002AF6D1C8F8B0
:10292000001090E7DA40000813460A4601460248C4
:102930000068FFF77BBF00BF180000202DE9F843B7
:102940000746884614460026D4E90195B9F10109E5
:1029500005D52468002CF7D13046BDE8F883AB8953
:10296000012B07D9B5F90E30013303D0294638467B
:10297000C04706436835E9E7164B2DE9F0411F686B
:102980007C6C05460E46ECB9502000F005FA024674
:10299000786420B9104B11485B2100F087F8C0E93A
:1029A0000044C0E90244C0E90444C0E90A44C0E963
:1029B0000C44C0E90E44C0E91044C0E912448461EB
:1029C000047744627A6C314628460123BDE8F04121
:1029D00000F006B8180000201C4000083340000832
:1029E000F0B5044608B9146844B1204614F8015BF8
:1029F0000F4617F8016B1EB965B91560002005E098
:102A0000B542F6D1002BF0D114600370F0BD1C4626
:102A10000CE015B914F8013B0E4616F8015BAB4209
:102A2000F7D1002BF3D0002304F8013C1460EDE74C
:102A300002440346934200D1704703F8011BF9E7B3
:102A4000014B1868704700BF1800002070B50D4D8D
:102A50000D4C641BA4100026A64209D10B4D0C4C52
:102A600001F03EFA641BA4100026A64205D170BDF9
:102A700055F8043B98470136EEE755F8043B984774
:102A80000136F2E75442000854420008544200085C
:102A900058420008704770477047034611F8012BF1
:102AA00003F8012B002AF9D1704700001FB5144626
:102AB0001A46094B1B680546D86854B9074B1C4693
:102AC000CDE9013400912B46054900F0A5FC00F04A
:102AD00061FD044BF4E700BF180000201542000818
:102AE000E7410008DA4100082DE9F0478E681F46EB
:102AF000BE420B6882460C4690462DD8B1F90C2098
:102B000012F4906F26D06569096905EB4505A3EBC2
:102B1000010905EBD5757B1C4B446D109D4238BFF8
:102B20001D46530527D5294600F060F9064660B3D7
:102B300021694A4600F020FDA38923F4906343F005
:102B40008003A381266165614E44A5EB09052660DB
:102B5000A5603E46BE4200D93E4620683246414608
:102B600000F09AFCA3689B1BA36023683344236096
:102B70000020BDE8F0872A4600F060FC06460028E9
:102B8000E0D12169504600F00DFD0C23CAF8003059
:102B9000A38943F04003A3814FF0FF30E9E7000031
:102BA0002DE9F04F98468B891B069DB007460D46D0
:102BB000144610D50B6973B9402100F017F928604D
:102BC000286130B90C233B604FF0FF301DB0BDE8E9
:102BD000F08F40236B610023099320238DF8293067
:102BE000CDF80C803023DFF89C818DF82A304FF02F
:102BF000010923469A4613F8012B0AB1252AF9D177
:102C0000BAEB040B0BD05B46224629463846FFF749
:102C10006BFF013000F0A780099A5A4409929AF894
:102C20000030002B00F09F8000234FF0FF32CDE9F1
:102C300005230AF1010A049307938DF853301A9380
:102C40005446052214F8011B4E48FDF7B9FA049AC0
:102C5000D8B9D00644BF20238DF85330110744BFA4
:102C60002B238DF853309AF800302A2B15D0079A71
:102C7000544600204FF00A0C214611F8013B303B2E
:102C8000092B4BD9B0B1079214E0A0EB080309FA65
:102C900003F313430493A246D2E7039B191D1B6859
:102CA0000391002BBBBF5B4242F0020207930793E4
:102CB000B8BF049223782E2B0AD163782A2B32D105
:102CC000039B1A1D1B68039243EAE37302340593C6
:102CD000DFF8C0A0217803225046FDF771FA38B121
:102CE000049BA0EB0A00402282401343013404936A
:102CF00014F8011B24488DF828100622FDF760FA0D
:102D0000002836D0214B1BBB039B073323F007035E
:102D100008330393099B334409936AE70CFB02329F
:102D20000C460120A8E700230134059319464FF013
:102D30000A0C204610F8012B303A092A03D9002B3F
:102D4000C6D00591C4E70CFB012104460123F0E73E
:102D500003AB00932A460E4B04A93846AFF300801C
:102D6000421C0646D6D1AB895B063FF52DAF0998CC
:102D70002CE703AB00932A46054B04A9384600F024
:102D800023F9EDE716420008204200080000000089
:102D9000E92A00081C420008024B0146186800F0AE
:102DA00025B800BF1800002070B50F4E0C463168E2
:102DB000054611B900F0BEFB30602146284600F000
:102DC000B9FB431C03D14FF0FF34204670BDC41C37
:102DD00024F00304A042F8D0211A284600F0AAFBF0
:102DE0000130F2D1EFE700BFA80800202DE9F84339
:102DF000CD1C25F0030508350C2D38BF0C25002D02
:102E0000064601DBA94204D90C2333600020BDE84B
:102E1000F883DFF8D48000F0AFFAD8F800301C4611
:102E200044BB29463046FFF7BFFF431C044658D138
:102E3000D8F800402746002F43D1002C4BD0236800
:102E40003946304604EB030900F074FB814542D15A
:102E500021686D1A29463046FFF7A6FF01303AD0A7
:102E600023682B442360D8F800305A6862BBC8F846
:102E700000700FE02268521B20D40B2A17D9611969
:102E8000A342256018BF5960636808BFC8F80010E6
:102E900062514B60304600F075FA04F10B00231DBF
:102EA00020F00700C21A1CBF1B1AA350AFE76268CC
:102EB000A3420CBFC8F800205A60EBE723466468C1
:102EC000AEE73C467F68B6E71A465B68A342FBD193
:102ED00000235360DEE70C233360304600F052FAE3
:102EE00094E70560D6E700BFAC0800202DE9F04765
:102EF000164698468A680B69DDF820909342B8BF61
:102F00001346336091F8432007460C460AB101335B
:102F100033602368990642BF336802333360256803
:102F200015F0060506D104F1190AE36832689B1A08
:102F3000AB4226DC94F843302268003B18BF0123E3
:102F400092062BD404F1430241463846C84701306B
:102F50001ED02368226903F00603042B02BFE56834
:102F60003368ED1AA3680CBF25EAE5750025934286
:102F7000C4BF9B1AED1800261A34B5421AD100209E
:102F800008E00123524641463846C847013003D184
:102F90004FF0FF30BDE8F0870135C6E7E1185A1C55
:102FA000302081F84300224494F8451082F8431001
:102FB0000233C7E70123224641463846C84701305D
:102FC000E6D00136D9E700002DE9FF470F7E0C9EC1
:102FD000782F914680460C469A4601F1430207D865
:102FE000622F0AD8002F00F0DD80582F00F0C38038
:102FF00004F1420684F842703AE0A7F16303152B0E
:10300000F6D801A151F823F06130000875300008AE
:10301000F12F0008F12F0008F12F0008F12F000810
:1030200075300008F12F0008F12F0008F12F00087B
:10303000F12F00088B3100080331000843310008EC
:10304000F12F0008F12F0008AD310008F12F000822
:1030500003310008F12F0008F12F00084B31000860
:1030600033681A1D1B68326004F1420684F842304E
:103070000123A8E031682368081D30601E0601D5D1
:103080000D6803E05D06FBD5B1F900506168002DC5
:1030900078DA2D20002984F84300A1602DDA5E48FB
:1030A0006D420A231646B5FBF3F103FB1157C75DCA
:1030B00006F8017D2F46BB420D46F4D9082B0BD1F3
:1030C0002368DF0708D5236961689942DEBF302392
:1030D00006F8013C06F1FF36921B2261CDF800A0F4
:1030E0004B4603AA21464046FFF700FF01306FD14F
:1030F0004FF0FF3004B0BDE8F08723F004032360F5
:10310000CDE721683368080653F8045B02D449060A
:1031100048BFADB26F2F4048336014BF0A23082365
:10312000002184F843106668A660002EBADB21688F
:1031300021F004012160002DB4D1002EB2D1164639
:10314000BCE7236843F0200323603448782784F8E1
:103150004570236831681F0651F8045B02D45F068E
:1031600048BFADB23160D90744BF43F020032360AC
:103170001DB11023D4E72848E9E7236823F0200392
:103180002360F6E724480A23CDE7336825686169A0
:10319000181D30602E061B6801D5196002E0680614
:1031A000FBD5198000232361164697E733681A1D63
:1031B00032601E68626800213046FDF701F808B1F0
:1031C000801B606063682361002384F8433085E7D7
:1031D0002369324649464046D047013088D02368AB
:1031E0009B0714D4E068039B9842B8BF184681E758
:1031F0000123324649464046D04701303FF478AF7C
:103200000135E36803995B1AAB42F1DCEAE700257C
:1032100004F11906F5E700BF27420008384200080C
:10322000B1F90C202DE9F041170705460C4656D49C
:103230004B68002B02DC0B6C002B3DDDE66A002E98
:103240003AD0002312F480522F68216A2B6025D0D7
:10325000626DA389580705D56368D21A636B0BB1F9
:10326000236CD21A216AE66A00232846B047411C23
:1032700024D00023636023692360A389DA0400D586
:103280006065616B2F60B9B104F14403994202D0CB
:10329000284600F087F9002363630DE001232846E8
:1032A000B047461C0246D4D12B68002BD1D01D2B31
:1032B00001D0162B2BD12F6000202FE02A68B4F903
:1032C0000C3042B11D2A01D0162A22D1002363609E
:1032D00023692360D5E7626022692260CEE70F6927
:1032E000002FE9D093070E6808BF4B690F6018BF25
:1032F0000023A6EB07088B60B8F1000FDCDD216A24
:10330000A66A43463A462846B047002808DCB4F986
:103310000C3043F04003A3814FF0FF30BDE8F08153
:103320000744A8EB0008E7E738B50B6905460C46EB
:1033300013B90025284638BD18B1036A0BB9FFF749
:103340005DFAB4F90C30002BF3D0626ED00704D4D0
:10335000990502D4A06DFFF79EFB28462146FFF792
:103360005FFF636EDA070546E4D4A3899B05E1D4C9
:10337000A06DFFF791FBDDE70148FFF78CBB00BFB5
:10338000A40800200148FFF787BB00BFA408002065
:1033900010B50C46B1F90E1000F0BAF80028ABBF1A
:1033A000636DA3891B1823F48053ACBF6365A381AD
:1033B00010BD2DE9F0411F468B89DB0505460C4603
:1033C000164605D5B1F90E100223002200F08EF842
:1033D000A389B4F90E1023F48053A38132463B46EF
:1033E0002846BDE8F04100F0B5B810B50C46B1F97B
:1033F0000E1000F07BF8431CA38915BF606523F411
:10340000805343F48053A38118BFA38110BDB1F949
:103410000E1000F05BB800000EB403B5014603AB1C
:10342000054853F8042B0068019300F02FF902B00F
:103430005DF804EB03B07047180000202DE9F0415F
:10344000804615460C4621B9BDE8F0411146FFF70C
:10345000CDBC2AB900F0A6F800242046BDE8F081D2
:1034600000F02CFA8542064602D8B5EB500FF4D88E
:1034700029464046FFF7BAFC07460028ECD0B54283
:103480002A46214628BF324600F076F821464046BB
:1034900000F088F83C46E0E7884210B501EB0204F2
:1034A00002D98442234607D8431EA14208D011F80E
:1034B000012B03F8012FF8E7024401468A4200D1AC
:1034C00010BD13F8014D02F8014DF7E738B5064D70
:1034D0000023044608462B6000F054FB431C02D135
:1034E0002B6803B1236038BDB008002038B5074D04
:1034F00004460846114600222A601A4600F06AFB7C
:10350000431C02D12B6803B1236038BDB0080020F2
:1035100038B5074D04460846114600222A601A466F
:1035200000F060FB431C02D12B6803B1236038BD5F
:10353000B008002038B5064D0023044608462B602D
:1035400000F058FB431C02D12B6803B1236038BD47
:10355000B008002038B5074D044608461146002241
:103560002A601A4600F054FB431C02D12B6803B1B9
:10357000236038BDB00800200A44914200F1FF33B7
:1035800000D1704710B511F8014B03F8014F91427B
:10359000F9D110BD08B5062000F0D8FA012000F0DE
:1035A0003FFB000038B50546002941D051F8043CE6
:1035B0000C1F002BB8BFE418FFF7DEFE1D4A13688E
:1035C00033B9636014602846BDE83840FFF7DABEBF
:1035D000A34208D9206821188B4201BF19685B6893
:1035E00009182160EDE71A465B680BB1A342FAD9CE
:1035F00011685018A0420BD1206801445018834232
:103600001160E0D118685B68536008441060DAE725
:1036100002D90C232B60D6E7206821188B4204BF07
:1036200019685B68636004BF091821605460CAE7C9
:1036300038BD00BFAC0800209368013B002B10B4DC
:10364000936008DA9469A34201DB0A2903D15DF88B
:10365000044B00F03BB91368581C10601970084601
:103660005DF8044B7047F8B506460F461446D5186A
:10367000AC4201D1002007E014F8011B3A46304665
:10368000FFF7DAFF431CF3D1F8BD00002DE9F04F3E
:103690000D469DB014469846064618B1036A0BB90C
:1036A000FFF7ACF86B6ED90705D4AB899A0502D445
:1036B000A86DFFF7F0F9AB891B0701D52B699BB902
:1036C0002946304600F040F970B16B6EDC0704D536
:1036D0004FF0FF301DB0BDE8F08FAB899805F7D4EF
:1036E000A86DFFF7D9F9F3E70023099320238DF89C
:1036F0002930CDF80C803023DFF8AC818DF82A30EA
:103700004FF0010923469A4613F8012B0AB1252AE6
:10371000F9D1BAEB040B0BD05B4622462946304662
:10372000FFF7A1FF013000F0A780099A5A440992DF
:103730009AF80030002B00F09F8000234FF0FF32FA
:10374000CDE905230AF1010A049307938DF853305C
:103750001A935446052214F8011B5348FCF730FD18
:10376000049AD8B9D10644BF20238DF853301307EB
:1037700044BF2B238DF853309AF800302A2B15D0F4
:10378000079A544600204FF00A0C214611F8013BDD
:10379000303B092B4BD9B0B1079214E0A0EB0803E2
:1037A00009FA03F313430493A246D2E7039B191DBE
:1037B0001B680391002BBBBF5B4242F002020793E0
:1037C0000793B8BF049223782E2B0AD163782A2B53
:1037D00032D1039B1A1D1B68039243EAE373023440
:1037E0000593DFF8D4A0217803225046FCF7E8FCCB
:1037F00038B1049BA0EB0A004022824013430134FD
:10380000049314F8011B29488DF828100622FCF7B0
:10381000D7FC00283FD0264B1BBB039B073323F06C
:10382000070308330393099B3B4409936AE70CFBA6
:1038300002320C460120A8E7002301340593194603
:103840004FF00A0C204610F8012B303A092A03D910
:10385000002BC6D00591C4E70CFB012104460123CF
:10386000F0E703AB00932A46124B04A93046AFF3AE
:1038700000800746781CD6D16B6ED90705D4AB897A
:103880009A0502D4A86DFFF707F9AB895B063FF5EF
:103890001FAF09981EE703AB00932A46054B04A906
:1038A0003046FFF791FBE4E716420008204200088B
:1038B00000000000673600081C42000851F8043C74
:1038C000181F002BBCBF0B58C0187047F8B50E4628
:1038D0001446054618B1036A0BB9FEF78FFFA369BA
:1038E000A360A3891A0701D5236943B92146284655
:1038F00000F02AF818B14FF0FF373846F8BD2368BA
:103900002269981A6369F6B28342374605DC21467C
:103910002846FFF709FD0028EDD1A368013BA3600D
:1039200023685A1C22601E706269431C9A4204D0AC
:10393000A389DB07E1D50A2EDFD121462846FFF710
:10394000F3FC0028D9D0D6E738B5294B05461868CE
:103950000C4618B1036A0BB9FEF750FFB4F90C30EE
:10396000190722D4DA0607D409222A6043F040035B
:10397000A3814FF0FF3033E0580712D5616B41B19E
:1039800004F14403994202D02846FFF70BFE0023BE
:103990006363A38923F02403A38100236360236965
:1039A0002360A38943F00803A38123694BB9A3894A
:1039B00003F42073B3F5007F03D02146284600F0BE
:1039C0003FF8B4F90C3013F001020AD00022A260D3
:1039D00062695242A261226942B913F08000C5D1E6
:1039E00038BD990758BF6269A260F4E70020F7E785
:1039F0001800002070B50C46B1F90E10002996B0E1
:103A000015461E460DDAA38913F0800F4FF0000112
:103A100014BF40234FF48063002031602B6016B048
:103A200070BD6A4600F048F80028ECDB019901F40B
:103A30007041A1F50053594259414FF48063EBE7BF
:103A40008B89F7B59D0706460C4607D504F1470359
:103A5000236023610123636103B0F0BD01AB6A46BB
:103A6000FFF7C8FF009F054639463046FFF7BEF90D
:103A700048B9B4F90C309A05EED423F0030343F0AF
:103A80000203A381E2E7A389206043F08003A381BE
:103A9000019BC4E904075BB1B4F90E10304600F095
:103AA0001DF828B1A38923F0030343F00103A38188
:103AB000A3891D43A581CFE738B5074D00230446F0
:103AC000084611462B6000F065F8431C02D12B68B4
:103AD00003B1236038BD00BFB008002038B5064DE3
:103AE0000023044608462B6000F064F8431C02D112
:103AF0002B6803B1236038BDB00800201F2938B5FA
:103B000005460C4604D9162303604FF0FF3038BD3C
:103B1000C26B12B152F821304BB9284600F030F890
:103B2000224601462846BDE8384000F017B8012B70
:103B30000AD0591C03D1162303600120E7E70021B6
:103B400042F82410204698470020E0E7024B014647
:103B50001868FFF7D3BF00BF1800002038B5074D25
:103B600000230446084611462B6000F02BF8431C46
:103B700002D12B6803B1236038BD00BFB00800201C
:103B800000F010B8024B58221A604FF0FF30704717
:103B9000B0080020024B58221A604FF0FF307047E7
:103BA000B0080020024B58221A604FF0FF307047D7
:103BB000B0080020024B58221A600020704700BF56
:103BC000B0080020024B58221A604FF0FF307047B7
:103BD000B0080020024B58221A604FF0FF307047A7
:103BE000B0080020024B58221A604FF0FF30704797
:103BF000B0080020044A05491368002B08BF0B4693
:103C00001844106018467047B4080020B808002017
:103C1000024B58221A604FF0FF307047B008002066
:103C2000FEE700BF2DE9F047089D0C46002B4ED162
:103C300094468C458646B2FA82F262D94AB1C2F104
:103C40002003914020FA03F30CFA02FC194300FA16
:103C500002FE4FEA1C471FFA8CF6B1FBF7F44FEA5D
:103C60001E4307FB141143EA014304FB06F199428A
:103C70000AD91CEB030304F1FF3080F01281994252
:103C800040F20F81023C6344591A1FFA8EF3B1FBD4
:103C9000F7F007FB101143EA014300FB06F69E42D2
:103CA0000AD91CEB030300F1FF3180F0FC809E4237
:103CB00040F2F980634402389B1B40EA0440002133
:103CC0001DB1D3400022C5E90032BDE8F0878B4228
:103CD00005D90DB1C5E9000100210846F5E7B3FAA1
:103CE00083F1002946D1A34202D39042C0F0F08074
:103CF000861A64EB03030120002DE6D0C5E90063BA
:103D0000E3E7002A40F09080A1EB0C044FEA1C4846
:103D10001FFA8CF70121B4FBF8F64FEA1E4308FBAB
:103D2000164443EA044307FB06F0984208D91CEB0B
:103D3000030306F1FF3402D2984200F2CD802646FA
:103D40001C1A1FFA8EF3B4FBF8F008FB104443EA88
:103D5000044300FB07F79F4208D91CEB030300F163
:103D6000FF3402D29F4200F2B0802046DB1B40EAC3
:103D70000640A5E7C1F120068B4022FA06F71F4353
:103D800020FA06FC04FA01F343EA0C03F44000FABB
:103D900001F8380C4FEA1349B4FBF0FE1FFA87FC18
:103DA00000FB1E4449EA04440EFB0CF9A14502FA4B
:103DB00001F20AD93C190EF1FF3A80F08480A14546
:103DC00040F28180AEF1020E3C44A4EB09041FFADC
:103DD00083F9B4FBF0F300FB134449EA044403FB0A
:103DE0000CFCA44507D93C1903F1FF3067D2A44568
:103DF00065D9023B3C4443EA0E40A0FB0293A4EB8E
:103E00000C049C42CE469C4651D34ED055B1B8EBE3
:103E10000E0364EB0C0404FA06F6CB401E43CC40C0
:103E2000C5E90064002150E7C2F1200320FA03F144
:103E30000CFA02FC24FA03F394400C434FEA1C48AA
:103E400000FA02FE1FFA8CF7B3FBF8F008FB103102
:103E5000230C43EA014300FB07F1994208D91CEB0C
:103E6000030300F1FF362CD299422AD90238634469
:103E70005B1AA4B2B3FBF8F108FB113344EA034424
:103E800001FB07F3A34208D91CEB040401F1FF3640
:103E900013D2A34211D902396444E41A41EA004121
:103EA00039E70446F0E6084606E7C845AED2B9EB66
:103EB000020E63EB070C0138A8E73146EDE7034635
:103EC00099E73046D4E7D6467FE7634402384DE7AA
:103ED0000646234608460FE7023E634430E700BF2C
:103EE000F8B500BFF8BC08BC9E467047F8B500BFE7
:083EF000F8BC08BC9E467047B7
:103EF8000A2020247878524D432072617720636F1E
:103F08006F7264696E6174657320616E642073708A
:103F18006565643A202825642F25642C25642F259F
:103F280064292025642F25640A00000020202478B5
:103F380078524D432066697865642D706F696E7498
:103F480020636F6F7264696E6174657320616E645B
:103F5800207370656564207363616C656420746F99
:103F680020746872656520646563696D616C207092
:103F78006C616365733A202825642C256429202503
:103F8800640A00002020247878524D4320666C6F24
:103F98006174696E6720706F696E742064656772FA
:103FA800656520636F6F7264696E61746573206103
:103FB8006E642073706565643A202825662C256632
:103FC800292025660A000000474253004747410060
:103FD800474C4C0047534100475354004753560041
:103FE800524D4300565447005A4441007454636686
:103FF80064666466664466640000000000000000B1
:104008000102030400000000000000000102030494
:10401800060708095245454E54206D616C6C6F6364
:1040280020737563636565646564002F55736572F5
:10403800732F696C672F616374696F6E732D727566
:104048006E6E6572732F787061636B2D6465762D63
:10405800746F6F6C732F5F776F726B2F61726D2D3A
:104068006E6F6E652D656162692D6763632D78706B
:1040780061636B2F61726D2D6E6F6E652D65616268
:10408800692D6763632D787061636B2F6275696C46
:10409800642F64617277696E2D61726D36342F7387
:1040A8006F75726365732F6E65776C69622D6379BE
:1040B8006777696E2F6E65776C69622F6C696263CA
:1040C8002F737472696E672F737472746F6B2E63BB
:1040D80000002020202020202020202828282828F0
:1040E80020202020202020202020202020202020C8
:1040F8002020881010101010101010101010101020
:10410800101004040404040404040404101010101F
:1041180010101041414141414101010101010101DA
:10412800010101010101010101010101011010104A
:1041380010101042424242424202020202020202AD
:10414800020202020202020202020202021010101D
:104158001020000000000000000000000000000027
:104168000000000000000000000000000000000047
:104178000000000000000000000000000000000037
:104188000000000000000000000000000000000027
:104198000000000000000000000000000000000017
:1041A8000000000000000000000000000000000007
:1041B80000000000000000000000000000000000F7
:1041C80000000000000000000000000000000000E7
:1041D80000002C2066756E6374696F6E3A2000616A
:1041E8007373657274696F6E20222573222066616D
:1041F800696C65643A2066696C6520222573222CF7
:10420800206C696E65202564257325730A00232DAB
:10421800302B2000686C4C006566674546470030C7
:104228003132333435363738394142434445460014
:104238003031323334353637383961626364656614
:044248000000000072
:08424C0054BFFF7F01000000D8
:044254003106000827
:044258000D06000847
:10425C000024F40001000000100000000000000029
:10426C0003000000680700201C0000200000000074
:10427C0068070020D007002038080020000000004C
:10428C000000000000000000000000000000000022
:10429C000000000000000000000000000000000012
:1042AC000000000000000000000000000000000002
:0842BC000000000000000000FA
:040000050800265178
:00000001FF
