:020000040800F2
:1000000000000220315F0008D5390008D739000808
:10001000D9390008DB390008DD390008000000008C
:10002000000000000000000000000000DF390008B0
:10003000E139000800000000E3390008E539000854
:10004000815F0008815F0008815F0008815F000810
:10005000815F0008815F0008815F0008815F000800
:10006000815F0008815F0008815F0008815F0008F0
:10007000815F0008815F0008815F0008815F0008E0
:10008000815F0008815F0008815F000800000000B8
:10009000000000000000000000000000ED39000832
:1000A000815F0008815F0008815F0008815F0008B0
:1000B000815F0008815F0008815F0008815F0008A0
:1000C000815F0008815F0008815F0008815F000890
:1000D000815F0008013A0008815F0008000000000D
:1000E000113A0008815F0008815F000800000000ED
:1000F000000000000000000000000000815F000818
:1001000000000000815F0008815F0008815F000837
:1001100000000000000000000000000000000000DF
:10012000815F0008815F0008815F0008815F00082F
:10013000815F0008000000000000000000000000D7
:10014000000000000000000000000000815F0008C7
:10015000815F0008815F0008815F0008815F0008FF
:10016000815F0008815F00080000000000000000BF
:10017000000000000000000000000000000000007F
:1001800000000000815F0008000000000000000087
:08019000815F0008815F000897
:1001A000034613F8012B002AFBD1181A01387047B7
:1001B00010F8012B11F8013B012A28BF9A42F7D011
:1001C000D01A70470000000000000000000000008E
:1001D00001F0FF01102A2BDB10F0070F08D010F8F8
:1001E000013B013A8B422DD010F0070F42B3F6D1FC
:1001F000F0B441EA012141EA014122F007047FF015
:1002000000070023F0E80256083C85EA010586EA6B
:10021000010685FA47F5A3FA87F586FA47F6A5FAA7
:1002200087F68EB9EED1F0BC01F0FF0102F00702B3
:1002300032B110F8013B013A83EA010313B1F8D15E
:100240000020704701387047002D06BF354603383F
:10025000073815F0010F07D1013015F4807F02BF78
:10026000013015F4C03F0130F0BC0138704700BFC9
:1002700081F0004102E000BF83F0004330B54FEA57
:1002800041044FEA430594EA050F08BF90EA020FC4
:100290001FBF54EA000C55EA020C7FEA645C7FEA57
:1002A000655C00F0E2804FEA5454D4EB5555B8BF7A
:1002B0006D420CDD2C4480EA020281EA030382EAEB
:1002C000000083EA010180EA020281EA0303362D7D
:1002D00088BF30BD11F0004F4FEA01314FF4801C50
:1002E0004CEA113102D0404261EB410113F0004F62
:1002F0004FEA03334CEA133302D0524263EB430319
:1003000094EA050F00F0A780A4F10104D5F1200EB6
:100310000DDB02FA0EFC22FA05F2801841F1000111
:1003200003FA0EF2801843FA05F359410EE0A5F1E5
:1003300020050EF1200E012A03FA0EFC28BF4CF016
:10034000020C43FA05F3C01851EBE37101F00045CC
:1003500007D54FF0000EDCF1000C7EEB00006EEBD9
:100360000101B1F5801F1BD3B1F5001F0CD3490863
:100370005FEA30004FEA3C0C04F101044FEA4452BA
:1003800012F5800F80F09A80BCF1004F08BF5FEA41
:10039000500C50F1000041EB045141EA050130BD21
:1003A0005FEA4C0C404141EB0101013C28BFB1F533
:1003B000801FE9D291F0000F04BF01460020B1FA7E
:1003C00081F308BF2033A3F10B03B3F120020CDA51
:1003D0000C3208DD02F1140CC2F10C0201FA0CF02F
:1003E00021FA02F10CE002F11402D8BFC2F1200C94
:1003F00001FA02F120FA0CFCDCBF41EA0C0190404A
:10040000E41AA2BF01EB0451294330BD6FEA040492
:100410001F3C1CDA0C340EDC04F11404C4F120027D
:1004200020FA04F001FA02F340EA030021FA04F38F
:1004300045EA030130BDC4F10C04C4F1200220FAE6
:1004400002F001FA04F340EA0300294630BD21FA24
:1004500004F0294630BD94F0000F83F4801306BFEA
:1004600081F480110134013D4EE77FEA645C18BFDE
:100470007FEA655C29D094EA050F08BF90EA020F75
:1004800005D054EA000C04BF1946104630BD91EA6D
:10049000030F1EBF0021002030BD5FEA545C05D170
:1004A0004000494128BF41F0004130BD14F58004AF
:1004B0003CBF01F5801130BD01F0004545F0FE4123
:1004C00041F470014FF0000030BD7FEA645C1ABF58
:1004D000194610467FEA655C1CBF0B46024650EA8F
:1004E000013406BF52EA033591EA030F41F40021BB
:1004F00030BD00BF90F0000F04BF0021704730B541
:100500004FF4806404F132044FF000054FF0000115
:1005100050E700BF90F0000F04BF0021704730B5D6
:100520004FF4806404F1320410F0004548BF4042AB
:100530004FF000013EE700BF42004FEAE2014FEA00
:1005400031014FEA02701FBF12F07F4393F07F4FDB
:1005500081F06051704732F07F4208BF704793F0DE
:100560007F4F04BF41F40021704730B54FF46074F1
:1005700001F0004521F000411CE700BF50EA0102F4
:1005800008BF704730B54FF000050AE050EA01029D
:1005900008BF704730B511F0004502D5404261EB0D
:1005A00041014FF4806404F132045FEA915C3FF44E
:1005B000D8AE4FF003025FEADC0C18BF03325FEAEB
:1005C000DC0C18BF033202EBDC02C2F1200300FA9C
:1005D00003FC20FA02F001FA03FE40EA0E0021FAC1
:1005E00002F11444BDE600BF70B54FF0FF0C4CF4AF
:1005F000E06C1CEA11541DBF1CEA135594EA0C0F61
:1006000095EA0C0F00F0DEF82C4481EA030621EA9B
:100610004C5123EA4C5350EA013518BF52EA0335D6
:1006200041F4801143F4801338D0A0FB02CE4FF088
:100630000005E1FB02E506F00042E0FB03E54FF0B8
:100640000006E1FB03569CF0000F18BF4EF0010EB0
:10065000A4F1FF04B6F5007F64F5407404D25FEAAC
:100660004E0E6D4146EB060642EAC62141EA55515F
:100670004FEAC52040EA5E504FEACE2EB4F1FD0CA1
:1006800088BFBCF5E06F1ED8BEF1004F08BF5FEA1F
:10069000500E50F1000041EB045170BD06F00046D1
:1006A00046EA010140EA020081EA0301B4EB5C047E
:1006B000C2BFD4EB0C0541EA045170BD41F4801176
:1006C0004FF0000E013C00F3AB8014F1360FDEBF9B
:1006D000002001F0004170BDC4F10004203C35DA77
:1006E0000C341BDC04F11404C4F1200500FA05F3FA
:1006F00020FA04F001FA05F240EA020001F000429B
:1007000021F0004110EBD37021FA04F642EB060110
:100710005EEA430E08BF20EAD37070BDC4F10C043A
:10072000C4F1200500FA04F320FA05F001FA04F2FE
:1007300040EA020001F0004110EBD37041F10001EA
:100740005EEA430E08BF20EAD37070BDC4F12005F5
:1007500000FA05F24EEA020E20FA04F301FA05F25D
:1007600043EA020321FA04F001F0004121FA04F205
:1007700020EA020000EBD3705EEA430E08BF20EAD5
:10078000D37070BD94F0000F0FD101F0004640000F
:1007900041EB010111F4801F08BF013CF7D041EA91
:1007A000060195F0000F18BF704703F00046520095
:1007B00043EB030313F4801F08BF013DF7D043EA66
:1007C0000603704794EA0C0F0CEA135518BF95EA1C
:1007D0000C0F0CD050EA410618BF52EA4306D1D1A3
:1007E00081EA030101F000414FF0000070BD50EAC2
:1007F000410606BF1046194652EA430619D094EA4C
:100800000C0F02D150EA013613D195EA0C0F05D135
:1008100052EA03361CBF104619460AD181EA030189
:1008200001F0004141F0FE4141F470014FF0000041
:1008300070BD41F0FE4141F4780170BD70B54FF0DC
:10084000FF0C4CF4E06C1CEA11541DBF1CEA13555C
:1008500094EA0C0F95EA0C0F00F0A7F8A4EB05043E
:1008600081EA030E52EA03354FEA013100F0888035
:100870004FEA03334FF0805545EA131343EA1263FE
:100880004FEA022245EA111545EA10654FEA0026B3
:100890000EF000419D4208BF964244F1FD0404F56C
:1008A000407402D25B084FEA3202B61A65EB0305C8
:1008B0005B084FEA32024FF480104FF4002CB6EB85
:1008C000020E75EB030E22BFB61A754640EA0C0005
:1008D0005B084FEA3202B6EB020E75EB030E22BF45
:1008E000B61A754640EA5C005B084FEA3202B6EB86
:1008F000020E75EB030E22BFB61A754640EA9C0045
:100900005B084FEA3202B6EB020E75EB030E22BF14
:10091000B61A754640EADC0055EA060E18D04FEAD2
:10092000051545EA16754FEA06164FEAC30343EA72
:1009300052734FEAC2025FEA1C1CC0D111F4801F3F
:100940000BD141EA00014FF000004FF0004CB6E738
:1009500011F4801F04BF01430020B4F1FD0C88BFD7
:10096000BCF5E06F3FF6AFAEB5EB030C04BFB6EBE2
:10097000020C5FEA500C50F1000041EB045170BDD5
:100980000EF0004E4EEA113114EB5C04C2BFD4EB02
:100990000C0541EA045170BD41F480114FF0000E86
:1009A000013C90E645EA060E8DE60CEA135594EA02
:1009B0000C0F08BF95EA0C0F3FF43BAF94EA0C0F05
:1009C0000AD150EA01347FF434AF95EA0C0F7FF47A
:1009D00025AF104619462CE795EA0C0F06D152EACE
:1009E00003353FF4FDAE1046194622E750EA4106B2
:1009F00018BF52EA43067FF4C5AE50EA41047FF4C3
:100A00000DAF52EA43057FF4EBAE12E74FF0FF3C27
:100A100006E000BF4FF0010C02E000BF4FF0010CF8
:100A20004DF804CD4FEA410C7FEA6C5C4FEA430C71
:100A300018BF7FEA6C5C1BD001B050EA410C0CBFC0
:100A400052EA430C91EA030F02BF90EA020F002022
:100A5000704710F1000F91EA030F58BF994208BF89
:100A600090422CBFD8176FEAE37040F00100704746
:100A70004FEA410C7FEA6C5C02D150EA013C07D19D
:100A80004FEA430C7FEA6C5CD6D152EA033CD3D0E8
:100A90005DF8040B704700BF8446104662468C46E2
:100AA0001946634600E000BF01B5FFF7B7FF002815
:100AB00048BF10F1000F01BD4DF808EDFFF7F4FF3E
:100AC0000CBF012000205DF808FB00BF4DF808EDC9
:100AD000FFF7EAFF34BF012000205DF808FB00BFEC
:100AE0004DF808EDFFF7E0FF94BF012000205DF80E
:100AF00008FB00BF4DF808EDFFF7CEFF94BF0120C3
:100B000000205DF808FB00BF4DF808EDFFF7C4FFBB
:100B100034BF012000205DF808FB00BF4FEA410C04
:100B20007FEA6C5C02D150EA013C0AD14FEA430CE7
:100B30007FEA6C5C02D152EA033C02D14FF0000024
:100B400070474FF0010070474FEA410212F5001262
:100B500015D211D56FF47873B3EB625212D94FEA04
:100B6000C12343F0004343EA505311F0004F23FAEE
:100B700002F018BF404270474FF00000704750EA43
:100B8000013005D111F0004008BF6FF00040704700
:100B90004FF00000704700BF4FEA4102B2F1E0435E
:100BA00024BFB3F5001CDCF1FE5C0DD901F0004C54
:100BB0004FEAC0024CEA5070B2F1004F40EB8300A4
:100BC00008BF20F00100704711F0804F21D113F1D0
:100BD0003872BCBF01F00040704741F480114FEA09
:100BE0005252C2F11802C2F1200C10FA0CF320FA92
:100BF00002F018BF40F001004FEAC1234FEAD323AF
:100C000003FA0CFC40EA0C0023FA02F34FEA430318
:100C1000CCE77FEA625307D150EA01331EBF4FF0A1
:100C2000FE4040F44000704701F0004040F0FE40BC
:100C300040F40000704700BF7BB972B90029BEBF05
:100C400000204FF0004106E008BF00281CBF6FF0F5
:100C500000414FF0FF3000F057B8ADF1080C6DE9DE
:100C600004CE002909DB002B1ADB09F095F8DDF82A
:100C700004E0DDE9022304B07047404261EB41012A
:100C8000002B1BDB09F088F8DDF804E0DDE9022326
:100C900004B0404261EB4101524263EB43037047B1
:100CA000524263EB430309F077F8DDF804E0DDE935
:100CB000022304B0404261EB41017047524263EBB2
:100CC000430309F069F8DDF804E0DDE9022304B02C
:100CD000524263EB4303704753B94AB9002908BF36
:100CE00000281CBF4FF0FF314FF0FF3000F00CB870
:100CF000ADF1080C6DE904CE09F04EF8DDF804E022
:100D0000DDE9022304B07047704700BF10B5054C01
:100D1000237833B9044B13B10448AFF300800123A7
:100D2000237010BD900000200000000054A00008B7
:100D300008B5034B1BB103490348AFF3008008BD5E
:100D4000000000009400002054A0000840F2B112FE
:100D50000262072280F8242080F82520012280F8F2
:100D60002620FF2280F82A20642280F82B200822E7
:100D700002857047F8B504460E4617461D46002208
:100D80008188006803F074F84FF4FA633A463146FC
:100D9000A06904F032FAA06904F0E7FC0128FAD156
:100DA0004FF4FA63BDF818202946A06904F01DFC31
:100DB000A06904F0DAFC0128FAD10122A188206898
:100DC00003F056F8F8BDF8B504460E4617461D4622
:100DD00000228188006803F04BF84FF4FA633A462A
:100DE0003146A06904F009FAA06904F0BEFC0128AC
:100DF000FAD14FF4FA63BDF818202946A06904F02F
:100E0000FCF9A06904F0B1FC0128FAD10122A18803
:100E1000206803F02DF8F8BD00B585B001F07F0122
:100E20008DF80E10012200920DF10F030DF10E014D
:100E3000FFF7A0FF9DF80F0005B05DF804FB00B5BB
:100E400085B061F07F018DF80E108DF80F20012222
:100E500000920DF10F030DF10E01FFF7B4FF05B085
:100E60005DF804FB38B504460D460121FFF7D4FFB9
:100E7000024645B900F0F8020023E3610121204653
:100E8000FFF7DDFF38BD013D052DF7D801A353F86D
:100E900025F000BFAD0E00087D0E0008BD0E000855
:100EA0007D0E0008CD0E0008DD0E000820F00702C0
:100EB00042F00102D2B20123E361DFE720F0070232
:100EC00042F00302D2B20323E361D7E720F0070226
:100ED00042F00502D2B20523E361CFE720F007021A
:100EE00042F00602D2B20623E361C7E738B50446F2
:100EF000CA045511C2F347520621FFF7A0FF05208F
:100F000002F0E8FD2A0AD2B207212046FFF797FF38
:100F1000052002F0DFFD002208212046FFF78FFFA9
:100F2000052002F0D7FD38BD70B506460C2904DC5B
:100F30000C46062902DC072400E00C241E21304662
:100F4000FFF76AFF05460A2002F0C4FD2201D2B273
:100F500005F00F052A44D2B21E213046FFF76FFF7D
:100F60000A2002F0B7FD70BD08B50A460921FFF757
:100F700066FF0A2002F0AEFD08BD000008B52C296E
:100F80000DD9F0290CD9F021F0291CD81E310F4BB6
:100F900083FB0123CA17C2EBA302D2B20AE02D21C0
:100FA0007829F1D82D39094B83FB0123CA17C2EBED
:100FB0006302D2B22032D2B20B21FFF740FF0A20E7
:100FC00002F088FD08BD0022F4E700BF6766666690
:100FD00010B504461E21FFF71FFF40F00702D2B2F2
:100FE0001E212046FFF72BFF0A2002F073FD10BDE3
:100FF00070B582B0044615461E4661F07F018DF83B
:10100000071000228188006802F032FF4FF4FA6373
:1010100001220DF10701A06904F0EFF8A06904F0C6
:10102000A4FB0128FAD14FF4FA6332462946A0699D
:1010300004F0E3F8A06904F098FB0128FAD101223A
:10104000A188206802F014FF02B070BD0120704733
:101050002DE9F04106460F4615461C46D0F81C8087
:101060000121FFF7FFFE0E213046FFF7D5FE0246B5
:101070000D213046FFF7E3FE2A4622213046FFF7D6
:10108000DEFE2B463A4600213046FFF7B1FF032132
:101090003046FFF7E7FE0FE0FF2212213046FFF750
:1010A000CEFE41463046FFF7DDFE01252846BDE86D
:1010B000F081012002F00EFD12213046FFF7ACFE58
:1010C00010F00805E8D1013CA4B2002CF1D1414652
:1010D0003046FFF7C7FEE9E738B50446FFF7B6FF2D
:1010E00010B940F2F71038BD00212046FFF7BAFED4
:1010F0000A2002F0EFFC01212046FFF78DFE054695
:101100000A2002F0E7FC65F07F02D2B201212046FE
:10111000FFF795FE642002F0DDFC216A2046FFF710
:10112000E5FE94F82A102046FFF71EFF94F82B10D6
:101130002046FFF723FF23220C212046FFF77FFEE6
:101140002046FFF745FF94F824102046FFF7ECFEF9
:10115000FF221F212046FFF772FE94F8252012017E
:10116000D2B294F826305B00DBB21A4402F0FE02E1
:101170001D212046FFF763FE228D120A2021204602
:10118000FFF75DFE94F8282021212046FFF757FE47
:1011900040212046FFF740FE40F03F02D2B24021FE
:1011A0002046FFF74CFE01212046FFF75BFE01239E
:1011B000E3610A2002F08EFC42212046FFF72CFE5C
:1011C000122802D04FF4CA708DE7C8208BE700B513
:1011D00003884FEA430CCCEBE10CB0F902E00EFBC4
:1011E0000CFCC3EB211101FB01F10913B0F9043030
:1011F00003FB01F0801300EBEC20106000EB80009B
:10120000803000125DF804FB2DE9F0410446D3174D
:10121000B2F5FA3243F1FF3302FB03F0A2FB02C73F
:1012200007EB4007B4F910004FEAE07E0CFB0EFE1E
:1012300000FB07EEACFB00608644B4F90E004FEAF9
:10124000E07800FB03F502FB0855A0FB02084544CB
:101250006D0445EAD035400480194EEB050EB4F913
:101260000C500EEBC50EB4F90A50EE170CFB06F647
:1012700005FB0766ACFB05C52E444FEA1C2C4CEA67
:10128000066CB4F90850EF1705FB03F302FB0733B4
:10129000A5FB025213441B0343EA15532D031CEB19
:1012A000050C43EB262303F50043E288ACFB02C5A3
:1012B00002FB03556A10EB1753EA650561D0C1F5CF
:1012C00080156910ED072D1A61EB0E0E15EB050C5C
:1012D0004EEB0E011CEB050C4EEB0101880140EAC0
:1012E0009C604FEA8C161CEB060C41EB0001890058
:1012F00041EA9C714FEA8C0C1CEB050C4EEB010192
:10130000890041EA9C714FEA8C0040194EEB0101C3
:10131000FFF792FC0346B4F916604FEAE67C420BF5
:1013200042EAC1424F1306FB07F502FB0C55A6FB30
:10133000026C654402FB05F506FB0755A2FB062679
:101340003544520E42EAC512B4F914604FEAE67C05
:1013500006FB01F70CFB0070A6FB03673844F60C94
:1013600046EA40369B1841EB65619B1941EBE04131
:10137000180A40EA0160B4F9123000EB0310BDE82E
:10138000F0810020FBE7A2F5963CB0F91E301B056A
:10139000C3EB8133B0F920200CFB123303F58043FB
:1013A000D91390F922300CFB03F39B12027F0CFB44
:1013B00002F2D21202F5004202FB03F39B1203F584
:1013C0000013B0F91A2002FB03F303F500539B133B
:1013D00001FB03F3DA1302FB02F2D211017E01FBDF
:1013E00002F2A3EB221020EAE070B0F1C85FA8BFC0
:1013F0004FF0C8500013704710B584B08E46B0F857
:1014000024C04FEA4C0C1FFA8CF141F2883402944C
:101410000193009201237246806A03F019F900B12A
:10142000012004B010BD10B586B08C461446838CE4
:101430005B0099B241F2883302930223019305AB1A
:10144000009301236246806A03F002F948B99DF8CF
:1014500015209DF8143043EA02232380012006B0B2
:1014600010BD0020FBE710B5044602468821FFF7B7
:10147000DAFF00B910BDA21C8A212046FFF7D3FF76
:101480000028F7D0221D8C212046FFF7CCFF002832
:10149000F0D0A21D8E212046FFF7C5FF0028E9D01D
:1014A00004F1080290212046FFF7BDFF0028E1D09B
:1014B00004F10A0292212046FFF7B5FF0028D9D097
:1014C00004F10C0294212046FFF7ADFF0028D1D093
:1014D00004F10E0296212046FFF7A5FF0028C9D08F
:1014E00004F1100298212046FFF79DFF0028C1D08B
:1014F00004F112029A212046FFF795FF0028B9D087
:1015000004F114029C212046FFF78DFF0028B1D082
:1015100004F116029E212046FFF785FFAAE730B5A9
:1015200083B00446012300F11802A121FFF764FFF4
:1015300018B10025284603B030BD04F11A02E1219C
:101540002046FFF770FF05460028F3D0012304F181
:101550001C02E3212046FFF74FFF08B10025E9E711
:101560000DF10602E4212046FFF75DFF0546002845
:10157000E0D001AAE5212046FFF755FF05460028E7
:10158000D8D0012304F12202E7212046FFF734FFDF
:1015900008B10025CEE7BDF80620130103F47F63F0
:1015A000C2F303221343E383BDF804301B092384F1
:1015B000C0E700B587B08C468DF81720838C5B00A0
:1015C00099B242F210730293012301930DF11702B5
:1015D00000926246806A02F089FF00B1012007B0E4
:1015E0005DF804FB03230370002242708370C37014
:1015F000037143717047F0B583B0838C763B9BB227
:10160000012B03D90025284603B0F0BD04460E4641
:10161000012300F13202D021FFF7EEFE00285CD159
:1016200094F83230582B01D0602B58D1B622E021EB
:101630002046FFF7BEFF002853D101230DF107021A
:10164000F3212046FFF7D8FE0028F6D19DF8073099
:1016500013F0010FF1D12046FFF705FF05460028E2
:10166000D1D094F83230602B24D073797278920004
:1016700042EA431202F0FC02F5212046FFF799FFEF
:1016800088BB3378012B1CD0F278B3789B0043EAF7
:1016900042135BB232781343DFB294F83230602BDE
:1016A00012D03A46F4212046FFF783FF0028AAD043
:1016B0000025A8E72046FFF732FF0028D5D10546D0
:1016C000A1E700233370DFE73279F2212046FFF7EC
:1016D00070FF0028E5D0002595E7002593E7002559
:1016E00091E700258FE700258DE72DE9F04184B0D3
:1016F0000446884617461D4690F83230602B0ED0BF
:1017000085B100232B601D46062302AAF72120463F
:10171000FFF772FE50B1002004B0BDE8F0811DB1AA
:101720000823F2E70623F0E70623EEE79DF80830EA
:101730009DF80960360146EA03369DF80A3046EA0C
:1017400013169DF80B209DF80C301B0143EA023361
:101750009DF80D1001AA43EA11112046FFF737FD4D
:10176000C8F80000019A31462046FFF74DFD386069
:1017700065B19DF80E109DF80F30019A43EA0121E2
:101780002046FFF700FE28600120C5E70120C3E7DF
:1017900070B584B00D4614461E4603B101AB02AAD3
:1017A00003A9FFF7A2FF08B904B070BDDDED037A0D
:1017B000F8EEE77ADFED0E6A87EEA67A85ED007A1D
:1017C000DDED027AF8EE677A9FED0A7A67EE877AA6
:1017D000C4ED007A002EE7D0DDED017AF8EE677AED
:1017E0009FED057A67EE877AC6ED007ADCE700BFE9
:1017F0000000C8420000803B0000803A0346406879
:10180000F0B1884215D0884215DD1A68D30F002A3E
:10181000D4BF5B42C3F1010300FB03F393FBF1F37D
:1018200003EBD37302EB630290FBF1F092FBF0F059
:101830007047186870471B6891FBF0F003FB00F0DD
:10184000704700002DE9F04389B00024039404940C
:101850000594069407940094414B1A6B42F00402DD
:101860001A631A6B02F004020092009A01941A6B38
:1018700042F001021A631A6B02F001020192019A0E
:1018800002941A6B42F002021A631B6B03F002030C
:101890000293029BDFF8D48022464FF40051404669
:1018A00002F0E6FA2F4F01221021384602F0E0FA4A
:1018B0002D4E01224FF48071304602F0D9FA4FF4D8
:1018C0000059CDF80C90012504950594069403A9C0
:1018D000404602F0E9F91023039304950594069419
:1018E00003A9384602F0E0F9202303934FF40418CB
:1018F000CDF81080059503A9384602F0D5F9CDF84A
:101900000C90CDF81080059503A9304602F0CCF973
:101910004FF48073039304950594069403A930460D
:1019200002F0C2F94FF4007303934FF48813049349
:10193000059403A9304602F0B7F922460221172088
:1019400002F022F9172002F02FF922460221282066
:1019500002F01AF9282002F027F909B0BDE8F08357
:10196000003802400000024000040240000802402B
:101970002DE9F04194B0664B01221A704FF4807249
:101980000021644804F0F8FC6349644804F098FCC2
:1019900048B10146624C204604F050FD214602A8A1
:1019A00001F004FD30B94FF4007200215B4804F0EF
:1019B000E3FC42E0574C2046FEF7F2FB049B009309
:1019C000039B029A5749204404F010FB2046FEF77F
:1019D000E7FB05464FF47A7107A8FFF70FFF0646AD
:1019E0004FF47A7109A8FFF709FF034632464E49C2
:1019F000601904F0FBFAD6E7464C2046FEF7D0FB10
:101A00004A4D04EB000C05F1200E2C460FCCCCF80F
:101A10000000CCF80410CCF80820CCF80C30254697
:101A20000CF1100C7445F0D12068CCF8000023793B
:101A30008CF8043024223E4B1A603E4B3E4A3F490C
:101A40003F48FFF7A5FE0028D6D03B4C94ED007A26
:101A50003C4BD3ED007AC7EE277A17EE900AFEF7DB
:101A60006BFD9FED271B41EC100B07F001F953ECC8
:101A7000102B00203449FEF7FFFB23A3D3E90023FA
:101A8000FEF7B2FDFFF788F8304B1860DFF8D08022
:101A9000FEF752FD41EC100B4146062004F0A2FC7B
:101AA0002B4D2068FEF748FD41EC100B294608201D
:101AB00004F098FC274E214B1868FEF73DFD41ECE1
:101AC000100B3146042004F08DFC234F194B18688D
:101AD000FEF732FD41EC100B3946042004F082FC85
:101AE0000C4C2046FEF75CFBCDF804800097334693
:101AF0002A461A49204404F079FA14B0BDE8F0816E
:101B00006C45D9CC955BC83F0000000040A5E5407E
:101B1000400700204004002074B40008440700205F
:101B200040050020BCB30008C8B30008D4B30008C7
:101B3000AC010020B0030020B8030020B403002053
:101B4000BC030020080000200000F03FF00300204C
:101B500030030020B002002030020020FCB3000857
:101B6000B00100202DE9F0410446B0F5005F07D038
:101B7000202C73D0724B1A68724B1A60BDE8F0814A
:101B800001F0A2FF6E4B18606E4B1B68C01AC8288C
:101B9000EEDD6D4F4FF4807842460021384604F068
:101BA000EBFB3D46694E0FCE0FC533682B604FF4FB
:101BB0007A7342463946664803F031FF42460021B7
:101BC000384604F0D9FB634B01221A70624B1B6844
:101BD000934221D0013B604F3B600021084601F059
:101BE000B9FD5E4D012395E806005D4801F09AFDC0
:101BF0002321002001F0AEFD5A4E3A685A49304682
:101C000004F0F4F9012395E80600304601F08AFD5E
:101C1000564801F039FCABE74F4F3C233B600021B5
:101C2000084601F097FD4D4D012395E806004C480C
:101C300001F078FD2321002001F08CFD494E3A6827
:101C40004949304604F0D2F9012395E806003046B0
:101C500001F068FD454801F017FC89E701F034FF09
:101C6000374B1860374B1B68C01AC82882DD364EC8
:101C70004FF480773A460021304604F07DFB34462D
:101C80003B4D0FCD0FC495E8030044F8040B2170C1
:101C90004FF47A733A4631462D4803F0C0FE3A4677
:101CA0000021304604F068FB2A4B01221A702A4BAF
:101CB0001B683C2B21D00133274E3360002108469E
:101CC00001F048FD254C012394E80600244801F06A
:101CD00029FD2321002001F03DFD224D32682249DB
:101CE000284604F083F9012394E80600284601F011
:101CF00019FD1E4801F0C8FB3CE7174F15463A6036
:101D00000021084601F026FD144C2B4694E80600FD
:101D1000134801F007FD2321002001F01BFD114EA7
:101D20003A681149304604F061F92B4694E8060000
:101D3000304601F0F7FC0D4801F0A6FB1AE700BFA2
:101D40000C040020100400204004002008B4000807
:101D500044090020FC0300200C00002000000020AB
:101D60001CB400080004002024B40008240A002049
:101D700030B4000872B6FEE708B50A480A4B0360A3
:101D80004FF41653436000238360C36003610C2249
:101D900042618361C36103F013FE00B908BDFFF720
:101DA000E9FF00BF880900200010014008B50A487B
:101DB0000A4B03604FF46133436000238360C360C8
:101DC00003610C2242618361C36103F0F9FD00B934
:101DD00008BDFFF7CFFF00BF4409002000440040CA
:101DE00008B50A480A4B03600A4B4360002383602E
:101DF000C3604FF48042026143618361C361036247
:101E000002F096FA00B908BDFFF7B4FF780A002087
:101E100000540040A086010008B50D480D4B03603A
:101E20004FF48273436000238360C36003614361A6
:101E30004FF400728261C3610362436283620A23CA
:101E4000C36203F07BF900B908BDFFF793FF00BF41
:101E5000CC090020003C004008B50A480A4B03604A
:101E60000A4B436000238360C3604FF480420261E9
:101E700043618361C361036202F05AFA00B908BD8D
:101E8000FFF778FF240A002000580040A0860100D8
:101E900000B595B03022002108A804F06DFA0023A7
:101EA000039304930593069307930193184A116CC7
:101EB00041F080511164126C02F080520192019A3B
:101EC0000293144A116841F440411160126802F40F
:101ED00040420292029A0222089201220B921022A0
:101EE0000C920E9308A802F025FD68B90F23039306
:101EF0000021049105910691079103A802F06AFF61
:101F000020B915B05DF804FBFFF734FFFFF732FF8F
:101F1000003802400070004070B5ACB001F0AEFD7A
:101F2000FFF7B6FFFFF78EFCFFF726FFFFF73EFF38
:101F3000FFF756FFFFF770FFFFF78EFF784C204644
:101F4000FFF750FB772324F8083C764B44F8043C19
:101F500018E0754CA446754D0FCDACE80F0095E820
:101F60000F00ACE80700ACF800301D22704B1A607F
:101F70004FF47A7321466F4803F051FD4FF4FA6035
:101F800001F0A8FD6649A1F12C00FFF734FB002801
:101F9000DFD0694B93F83230602B00F08480674AC1
:101FA000614C6749204604F021F81622604B1A6004
:101FB0004FF47A7321465F4803F031FD614D684666
:101FC000FEF7C4FEAC466C460FCCACE80F000FCC5D
:101FD000ACE80F0094E807008CE807005A4B2B6030
:101FE0001023AB80594BAB604FF48072AA812B61F8
:101FF0004FF40073AB82564BAB6140F2B1132B62CE
:10200000072385F82430002685F82560012385F80C
:102010002630FF2385F82A30642385F82B300823E7
:102020002B852846FFF758F804460C967C2231464B
:102030000DA804F0A1F9C82C37D02346454A8021C9
:102040000CA803F09FFF0CA8FEF7AAF8384B186005
:102050004FF47A7382B20CA9364803F0E0FC3E4D8F
:10206000284601F03BFA0021084601F073FB3B4C87
:10207000012394E806003A4801F054FB2321002094
:1020800001F068FB374E384B1A683849304603F088
:10209000ADFF012394E80600304601F043FB2846DB
:1020A00001F0F2F98CE0324A7AE70CAC314D0FCDF9
:1020B0000FC495E8070003C422700CA8FEF770F85F
:1020C0001B4C20606423C2B20CA91E48FEF7C0FF5F
:1020D0004FF47A7322880CA9164803F0A0FCBEE7DF
:1020E000254C2046FEF75CF8114D28606423012240
:1020F00022491448FEF7ACFF2046FEF751F828604D
:102100004FF47A7382B221460A4803F088FC00211A
:102110001B4B19704FF48072204604F02DF968E0D3
:10212000E8030020780A0020AC00002058B4000822
:10213000AC01002044090020BC03002050B400087A
:1021400078B400081404002000000240000402409B
:10215000CC090020A8B40008240A002000000020B8
:102160001CB40008000400200C000020D0B40008BB
:1021700048B400088CB4000840040020D4B400081F
:1021800040070020D34840F2B1130362072380F8D0
:102190002430002380F82530012380F82630FF23E7
:1021A00080F82A30642380F82B3008230385FEF75B
:1021B00093FFC94B00221A70C84B1A68C84B1A60AB
:1021C00001F082FCC54B1860C54B1B68C01AB0F506
:1021D000FA6FF5D3C34B1B78002BEDD04FF4007290
:1021E000C149C24803F06BFEC14B1B78012B3FF481
:1021F00077AFB94B1B78002BDED0BE4B1B68013B81
:102200003B2BD6D801A252F823F000BF852100084D
:10221000FD2200082B2300085B2300088B23000805
:10222000BB230008EB2300081B24000849240008F6
:1022300077240008A7240008F924000825250008B1
:102240005325000881250008AF250008DD2500087A
:102250000B2600083926000865260008932600088A
:10226000C3260008F126000821270008512700088E
:1022700081270008B1270008E1270008112800087D
:102280004528000873280008A3280008D128000862
:102290000129000831290008612900089129000856
:1022A000C3290008F5290008252A0008572A000834
:1022B000892A0008B92A0008EB2A00081D2B00080B
:1022C0004F2B0008812B0008B92B0008EB2B0008CE
:1022D0001B2C00084D2C00087F2C0008AF2C000898
:1022E000E12C0008132D0008452D0008772D00086B
:1022F000A92D0008DB2D00080B2E0008754840F2C0
:10230000B1130362072380F82430012380F82530BD
:1023100080F82630FF2380F82A30642380F82B30A1
:1023200008230385FEF7D8FE43E76A4840F2B1135D
:102330000362072380F82430022380F8253001232C
:1023400080F82630FF2380F82A30642380F82B3071
:1023500008230385FEF7C0FE2BE75E4840F2B11369
:102360000362072380F82430032380F825300123FB
:1023700080F82630FF2380F82A30642380F82B3041
:1023800008230385FEF7A8FE13E7524840F2B11375
:102390000362072380F82430042380F825300123CA
:1023A00080F82630FF2380F82A30642380F82B3011
:1023B00008230385FEF790FEFBE6464840F2B11382
:1023C0000362072380F82430052380F82530012399
:1023D00080F82630FF2380F82A30642380F82B30E1
:1023E00008230385FEF778FEE3E63A4840F2B1138E
:1023F0000362072380F82430062380F82530012368
:1024000080F82630FF2380F82A30642380F82B30B0
:1024100008230385FEF760FECBE62E4840F2B11399
:102420000362072380F8243080F82530012380F8E8
:102430002630FF2380F82A30642380F82B300823CD
:102440000385FEF749FEB4E6224840F2B113036269
:10245000072380F82430082380F82530012280F8F3
:102460002620FF2280F82A20642280F82B20038572
:10247000FEF732FE9DE6174840F2B11303620723D0
:1024800080F82430092380F82530012380F8263095
:10249000FF2380F82A30642380F82B30082303853B
:1024A000FEF71AFE85E60B4840F2B11303620823DB
:1024B00080F82430002280F82520012280F8262090
:1024C000FF2280F82A20642280F82B200385FEF763
:1024D00003FE6EE614040020FC030020F803002035
:1024E000F403002010000020440700208809002089
:1024F000400700200C000020D14840F2B1130362D5
:10250000082380F82430012280F8252080F8262036
:10251000FF2280F82A20642280F82B200385FEF712
:10252000DBFD46E6C64840F2B1130362082380F89B
:102530002430022280F82520012280F82620FF2264
:1025400080F82A20642280F82B200385FEF7C4FD42
:102550002FE6BB4840F2B1130362082380F8243011
:10256000032280F82520012280F82620FF2280F80F
:102570002A20642280F82B200385FEF7ADFD18E6A3
:10258000AF4840F2B1130362082380F824300422DC
:1025900080F82520012280F82620FF2280F82A20BA
:1025A000642280F82B200385FEF796FD01E6A448FF
:1025B00040F2B1130362082380F82430052280F82A
:1025C0002520012280F82620FF2280F82A2064227C
:1025D00080F82B200385FEF77FFDEAE5984840F25E
:1025E000B1130362082380F82430062280F82520E6
:1025F000012280F82620FF2280F82A20642280F819
:102600002B200385FEF768FDD3E58D4840F2B1131A
:102610000362082380F82430072280F82520012255
:1026200080F82620FF2280F82A20642280F82B20C0
:102630000385FEF751FDBCE5814840F2B11303620A
:10264000082380F8243080F82530012280F82620E5
:10265000FF2280F82A20642280F82B200385FEF7D1
:102660003BFDA6E5764840F2B1130362082380F8EB
:102670002430092280F82520012280F82620FF221C
:1026800080F82A20642280F82B200385FEF724FDA1
:102690008FE56B4840F2B1130362092380F82430C0
:1026A000002380F82530012380F82630FF2380F8AE
:1026B0002A30642380F82B3008230385FEF70CFDB5
:1026C00077E55F4840F2B1130362092380F82430B4
:1026D000012380F8253080F82630FF2380F82A3047
:1026E000642380F82B3008230385FEF7F5FC60E5B2
:1026F000534840F2B1130362092380F824300223C7
:1027000080F82530012380F82630FF2380F82A3016
:10271000642380F82B3008230385FEF7DDFC48E5B1
:10272000474840F2B1130362092380F824300323A1
:1027300080F82530012380F82630FF2380F82A30E6
:10274000642380F82B3008230385FEF7C5FC30E5B1
:102750003B4840F2B1130362092380F8243004237C
:1027600080F82530012380F82630FF2380F82A30B6
:10277000642380F82B3008230385FEF7ADFC18E5B1
:102780002F4840F2B1130362092380F82430052357
:1027900080F82530012380F82630FF2380F82A3086
:1027A000642380F82B3008230385FEF795FC00E5B1
:1027B000234840F2B1130362092380F82430062332
:1027C00080F82530012380F82630FF2380F82A3056
:1027D000642380F82B3008230385FEF77DFCE8E4B2
:1027E000174840F2B1130362092380F8243007230D
:1027F00080F82530012380F82630FF2380F82A3026
:10280000642380F82B3008230385FEF765FCD0E4B1
:102810000B4840F2B1130362092380F824300823E7
:1028200080F82530012280F82620FF2280F82A2017
:10283000642280F82B200385FEF74EFCB9E400BF2C
:1028400014040020DB4840F2B1130362092380F82E
:10285000243080F82530012380F82630FF2380F8CB
:102860002A30642380F82B3008230385FEF734FCDC
:102870009FE4D04840F2B11303620A2380F8243069
:10288000002380F82530012380F82630FF2380F8CC
:102890002A30642380F82B3008230385FEF71CFCC4
:1028A00087E4C44840F2B11303620A2380F824305D
:1028B000012380F8253080F82630FF2380F82A3065
:1028C000642380F82B3008230385FEF705FC70E4B1
:1028D000B84840F2B11303620A2380F8243002237F
:1028E00080F82530012380F82630FF2380F82A3035
:1028F000642380F82B3008230385FEF7EDFB58E4B2
:10290000AC4840F2B11303620A2380F82430032359
:1029100080F82530012380F82630FF2380F82A3004
:10292000642380F82B3008230385FEF7D5FB40E4B1
:10293000A04840F2B11303620A2380F82430042334
:1029400080F82530012380F82630FF2380F82A30D4
:10295000642380F82B3008230385FEF7BDFB28E4B1
:10296000944840F2B11303620A2380F8243005230F
:1029700080F82530012380F82630FF2380F82A30A4
:10298000642380F82B3008230385FEF7A5FB10E4B1
:10299000884840F2B11303620A2380F824300623EA
:1029A00080F82530012380F82630FF2380F82A3074
:1029B000642380F82B3008230385FEF78DFBFFF797
:1029C000F8BB7C4840F2B11303620A2380F824303C
:1029D000072380F82530012380F82630FF2380F874
:1029E0002A30642380F82B3008230385FEF774FB1C
:1029F000FFF7DFBB6F4840F2B11303620A2380F890
:102A00002430082380F82530012280F82620FF2278
:102A100080F82A20642280F82B200385FEF75CFBD7
:102A2000FFF7C7BB634840F2B11303620A2380F883
:102A30002430092380F82530012380F82630FF2335
:102A400080F82A30642380F82B3008230385FEF7B2
:102A500043FBFFF7AEBB574840F2B11303620B23B1
:102A600080F82430002380F82530012380F82630B8
:102A7000FF2380F82A30642380F82B300823038555
:102A8000FEF72AFBFFF795BB4A4840F2B1130362F9
:102A90000B2380F82430012380F8253080F826307D
:102AA000FF2380F82A30642380F82B300823038525
:102AB000FEF712FBFFF77DBB3E4840F2B113036205
:102AC0000B2380F82430022380F82530012380F87E
:102AD0002630FF2380F82A30642380F82B30082327
:102AE0000385FEF7F9FAFFF764BB324840F2B113F1
:102AF00003620B2380F82430032380F82530012360
:102B000080F82630FF2380F82A30642380F82B30A9
:102B100008230385FEF7E0FAFFF74BBB254840F298
:102B2000B11303620B2380F82430042380F825308E
:102B3000012380F82630FF2380F82A30642380F8B0
:102B40002B3008230385FEF7C7FAFFF732BB19487D
:102B500040F2B11303620B2380F82430052380F880
:102B60002530012380F82630FF2380F82A306423A3
:102B700080F82B3008230385FEF7AEFAFFF719BB68
:102B80000C4840F2B11303620B2380F82430062373
:102B900080F82530012380F82630FF2380F82A3082
:102BA000642380F82B3008230385FEF795FAFFF79E
:102BB00000BB00BF14040020A04840F2B113036220
:102BC0000B2380F82430072380F82530012380F878
:102BD0002630FF2380F82A30642380F82B30082326
:102BE0000385FEF779FAFFF7E4BA944840F2B1138F
:102BF00003620B2380F82430082380F8253001225B
:102C000080F82620FF2280F82A20642280F82B20DA
:102C10000385FEF761FAFFF7CCBA884840F2B1139A
:102C200003620B2380F82430092380F82530012328
:102C300080F82630FF2380F82A30642380F82B3078
:102C400008230385FEF748FAFFF7B3BA7B4840F242
:102C5000B11303620C2380F82430002380F8253060
:102C6000012380F82630FF2380F82A30642380F87F
:102C70002B3008230385FEF72FFAFFF79ABA6F4827
:102C800040F2B11303620C2380F82430012380F852
:102C9000253080F82630FF2380F82A30642380F81E
:102CA0002B3008230385FEF717FAFFF782BA634833
:102CB00040F2B11303620C2380F82430022380F821
:102CC0002530012380F82630FF2380F82A30642342
:102CD00080F82B3008230385FEF7FEF9FFF769BA69
:102CE000564840F2B11303620C2380F824300323CA
:102CF00080F82530012380F82630FF2380F82A3021
:102D0000642380F82B3008230385FEF7E5F9FFF7ED
:102D100050BA4A4840F2B11303620C2380F82430C1
:102D2000042380F82530012380F82630FF2380F823
:102D30002A30642380F82B3008230385FEF7CCF972
:102D4000FFF737BA3D4840F2B11303620C2380F815
:102D50002430052380F82530012380F82630FF2316
:102D600080F82A30642380F82B3008230385FEF78F
:102D7000B3F9FFF71EBA314840F2B11303620C23D6
:102D800080F82430062380F82530012380F826308F
:102D9000FF2380F82A30642380F82B300823038532
:102DA000FEF79AF9FFF705BA244840F2B11303621F
:102DB0000C2380F82430072380F82530012380F885
:102DC0002630FF2380F82A30642380F82B30082334
:102DD0000385FEF781F9FFF7ECB9184840F2B1130B
:102DE00003620C2380F82430082380F82530012268
:102DF00080F82620FF2280F82A20642280F82B20E9
:102E00000385FEF769F9FFF7D4B90C4840F2B11316
:102E100003620C2380F82430092380F82530012335
:102E200080F82630FF2380F82A30642380F82B3086
:102E300008230385FEF750F9FFF7BBB914040020FF
:102E4000084B1B5C13F0970F07D02C2807D02A28BB
:102E500001D00120704700207047002070470020FB
:102E6000704700BFE2B500080EB42DE9F04F84B002
:102E70000D9E08B9002083E204460EAB039305467D
:102E8000002703E2002F40F00A82384678E25DB165
:102E90002D782846FFF7D4FF00B90025039B1A1DA3
:102EA00003921B681D70E8E10025F7E7FDB12D785E
:102EB0002846FFF7C5FFE0B1453D122D00F26582BF
:102EC000DFE815F01300630263026302630263022A
:102ED000630263026302130063026302630263021C
:102EE0001E006302630263021E00012102E0002152
:102EF00000E00021039B1A1D03921B681960BCE1CE
:102F00004FF0FF31F6E7002D40F083804FF0000ACC
:102F10004FF0FF39D346BBF1000F02D1BAF1000FD9
:102F20007DD0B9F1FF3F00F03A82BAF1000F7BD0BB
:102F3000BBF1000F01D00BFB09F9039B1A1D039293
:102F40001B68C3F80090C3F804A096E1BBF1000F22
:102F500033D1B9F1FF3F30D14FF0010B22E0BBF18B
:102F6000000F2DD1B9F1FF3F2AD1CB461AE04FF027
:102F7000000930E0BAF1000FCDD1002000E2B8F135
:102F80002E0F40D0B8F1200F40F00182BBF1000FAE
:102F900040F0FF81B9F1FF3F40F0FD81BAF1000F31
:102FA00040F0FB81013595F800804046FFF748FF6F
:102FB0000028B0D0B8F12B0FC8D0B8F12D0FCED06B
:102FC000A94B13F8083013F0040FD8D0A8F130083B
:102FD000B9F1FF3FCBD06FF00043A3EB0803A34A46
:102FE00082FB0312DB17C3EBA2034B45C2DB09EBE9
:102FF000890908EB4909BAF1000FD3D00AEB8A0A14
:103000004FEA4A0ACEE7BAF1000FBBD14FF0010AEE
:10301000C8E74FF0000A4FF0FF39D346C3E7B9F1D4
:10302000FF3F82D1D14683E74FF0010A80E795B197
:103030000A2202A9284603F01BF90546029B1878CC
:10304000FFF7FEFE28B9039B1A1D03921B681D6043
:1030500013E1002094E10025F5E7039B1A1D03927C
:10306000D3F800801DB9002388F8003005E195F8F9
:1030700000904846FFF7E4FE0028F4D001354346AF
:1030800003F8019B9846F2E7002D00F08A812B7827
:10309000242B40F088814FF00008B8F1040F08DCC1
:1030A00008F1010815F80800FFF7CAFE0028F4D15E
:1030B00066E1039B1A1D03921B68D5F801201A6074
:1030C0006A791A7100225A71D7E0039B1A1D039284
:1030D000D3F80080002D48D095F800904846FFF7BF
:1030E000AFFE60B94FF0FF3005468146C8F800904A
:1030F000C8F80450C8F80800BFE0002040E10023F1
:10310000052B07DCEA5C58498A5C12F0040FF4D006
:103110000133F5E78DF800906B788DF801304FF0B2
:10312000000A8DF802A0AB788DF80430EB788DF8AA
:1031300005308DF806A02B798DF808306B798DF865
:1031400009308DF80AA00A225146684603F090F82B
:1031500081460A22514601A803F08AF805460A2250
:10316000514602A803F084F8C0E74FF0FF3005464F
:103170008146BBE7039B1A1D0392D3F80080002D04
:103180006CD095F800904846FFF75AFE78B94FF09A
:10319000FF33184699469A46C8F800A0C8F804902C
:1031A000C8F80800C8F80C3067E00020E8E0002309
:1031B000052B07DCEA5C2C498A5C12F0040FF4D082
:1031C0000133F5E78DF800906B788DF801304FF002
:1031D000000B8DF802B0AB788DF80430EB788DF8E9
:1031E00005308DF806B02B798DF808306B798DF8A5
:1031F00009308DF80AB00A225946684603F038F8BB
:1032000082460A22594601A803F032F881460A2272
:10321000594602A803F02CF805F1070CAB792E2BC8
:1032200019D05B46B8E703EB83030CF1010C02EB0A
:103230004302A2F130030E4AA2FB0112D1089CF80E
:103240000020094DAD5C15F0040F01D00129EAD82A
:1032500001FB03F3A0E707490023F0E74FF0FF333A
:10326000184699469A4697E7E2B50008676666668B
:10327000CDCCCCCC40420F00013425782846FFF756
:10328000DFFD0028F8D12C2D72D000253378002BDB
:1032900073D001363B2B6ED0002D3FF4F3AD443B91
:1032A000302B6CD801A252F823F000BFCB300008BD
:1032B0007F3300087F3300087F3300087F33000826
:1032C0007F3300087F3300087F3300087F33000816
:1032D0007F3300087F3300087F3300087F33000806
:1032E0007F3300087F3300087F3300087531000802
:1032F0007F3300087F3300087F3300087F330008E6
:103300007F3300087F3300087F3300087F330008D5
:103310007F3300087F3300087B3200087F330008CA
:103320007F3300087F3300088F2E0008AD2E000881
:103330007F330008072F00087F3300087F33000821
:103340002F3000087F3300087F3300087F330008E8
:103350007F3300087F3300087F3300087F33000885
:103360007F3300087F3300085B3000088930000895
:10337000013425468AE7012788E7012000E0002084
:1033800004B0BDE8F04F03B070470020F8E700201C
:10339000F6E70020F4E70020F2E70020F0E7002045
:1033A000EEE70020ECE70020EAE700BF30B591B07F
:1033B000044608460AAB099304F14003089304F15C
:1033C0003403079304F12C03069304F124030593BB
:1033D0000BAB049304F11C0303930CAB029304F1B5
:1033E000140301930DF13703009323460EAA1349EA
:1033F000FFF73AFD0546D8B111490DF13A00FCF747
:10340000D7FEC0B99DF83730412B14BF00230123EC
:10341000237462690C9B02FB03F36361E2690B9BFB
:1034200002FB03F3E361226C0A9B02FB03F32364B8
:10343000284611B030BD0025FAE700BFFCB40008F3
:10344000F0B4000800B587B08DF817100A23029376
:10345000012301930DF1170200920022782101F05F
:1034600045F807B05DF804FB002303E0FF21054A9F
:10347000D1540133B3F5806F03D20028F6D1014651
:10348000F5E77047D40A002030B585B00546002422
:103490001DE0A4F15001C9B22846FFF7D3FF002177
:1034A0002846FFF7CFFF10212846FFF7CBFF642304
:1034B000029380230193084B03EBC4130093012371
:1034C00040227821284601F011F80134E4B2072C9B
:1034D000DFD905B030BD00BFD40A002038B504469E
:1034E000642000F0F7FAAE212046FFF7ABFF054657
:1034F00020212046FFF7A6FF054410212046FFF7B4
:10350000A1FF0544B0212046FFF79CFF0544C821D8
:103510002046FFF797FF054400212046FFF792FF62
:10352000054410212046FFF78DFF05444021204629
:10353000FFF788FF054481212046FFF783FF0544FC
:10354000FF212046FFF77EFF0544A1212046FFF71B
:1035500079FF0544A6212046FFF774FF0544A82102
:103560002046FFF76FFF05443F212046FFF76AFF23
:103570000544A4212046FFF765FF0544D3212046DA
:10358000FFF760FF054400212046FFF75BFF05447D
:10359000D5212046FFF756FF0544F0212046FFF7CE
:1035A00051FF0544D9212046FFF74CFF0544222155
:1035B0002046FFF747FF0544DA212046FFF742FF88
:1035C000054412212046FFF73DFF0544DB2120463C
:1035D000FFF738FF054420212046FFF733FF05445D
:1035E0008D212046FFF72EFF054414212046FFF7CA
:1035F00029FF0544AF212046FFF724FFE84201D010
:10360000012038BD0020FFF72FFF2046FFF73CFFC9
:10361000034B00201880588001225A71F1E700BF47
:10362000CC0A002010F0800F25D13F2923D810B4F8
:10363000114B1B7913B1B2FA82F25209012A0FD051
:10364000CB0800EBC3100D4C225C01F007010123F5
:103650008B40DB435BB2134023545DF8044B70474F
:10366000CB0800EBC310054C235C01F007018A4036
:1036700013432354F1E77047CC0A0020D40A0020FA
:103680002DE9F04782B0814602A800E9060098467D
:10369000234B1B889DF8006033447F2B3BDC204B81
:1036A0005B889DF801A053443F2B36DC00251FE0CA
:1036B0001B4B1888598829442044B8FA88F25209CB
:1036C000C9B2C0B2FFF7AEFF0134A6420FD907FA64
:1036D00004F313F4004FEBD0114B18885988294498
:1036E00020444246C9B2C0B2FFF79CFFECE7013567
:1036F000AA4508D9A9F1200303FB0A53019A32F81D
:1037000013700024E1E7064A1388334413804846C7
:1037100002B0BDE8F0870020FAE70020F8E700BF1C
:10372000CC0A002030B583B0044602A800E90600A8
:103730001D4600E00134207848B12B4602AA12E968
:103740000600FFF79DFF024620788242F2D003B0C8
:1037500030BD0000014B188059807047CC0A002012
:1037600082B0002100910B4B5A6C42F480425A64A3
:103770005A6C02F480420092009A01911A6C42F055
:1037800080521A641B6C03F080530193019B02B0BA
:10379000704700BF003802402DE9F0418AB0002395
:1037A0000593069307930893099303682F4A93425E
:1037B00005D02F4A934225D00AB0BDE8F0810025FC
:1037C00001952C4C236B43F002032363236B03F01E
:1037D00002030193019BC023059312230693032345
:1037E00008930423099305A9234800F05DFA029584
:1037F000236C43F400132364236C03F4001302933B
:10380000029BD9E7002503951A4C236B43F0020372
:103810002363236B03F002030393039B4FF4806342
:1038200005934FF01208CDF818800327089704235A
:103830000993114E05A9304600F036FA0823059386
:10384000CDF81880079508970923099305A93046F4
:1038500000F02AFA0495236C43F480032364236C5C
:1038600003F480030493049BA6E700BF00540040C8
:10387000005800400038024000040240F0B589B012
:1038800000230393049305930693079302681B4B4D
:103890009A4201D009B0F0BD0024019403F5FE3333
:1038A0001A6C42F400421A641A6C02F4004201924B
:1038B000019A02941A6B42F002021A631B6B03F026
:1038C00002030293029B4FF4805303930227049751
:1038D0000326069607230793094D03A9284600F0FF
:1038E000E3F9302303930497059406960623079380
:1038F00003A9284600F0D8F9CCE700BF003C0040FF
:103900000004024010B58AB0002305930693079384
:103910000893099303682B4A934204D02A4A93429E
:103920002DD00AB010BD00240194284B5A6C42F0EF
:1039300010025A645A6C02F010020192019A029429
:103940001A6B42F001021A631B6B03F0010302932E
:10395000029B4FF4C063059302230693032308934D
:103960000723099305A91A4800F09EF92246012170
:10397000252000F009F9252000F016F9D1E70021F3
:103980000391124B1A6C42F400321A641A6C02F45E
:1039900000320392039A04911A6B42F001021A63F7
:1039A0001B6B03F001030493049B0C230593022378
:1039B0000693032308930723099305A9044800F0FD
:1039C00073F9AEE7001001400044004000380240A7
:1039D00000000240FEE7FEE7FEE7FEE7FEE7704775
:1039E0007047704708B500F063F808BD08B520209F
:1039F00000F044FA4FF4007000F040FA08BD0000F7
:103A000008B5024802F000F908BD00BF880900208F
:103A100008B54FF4005000F031FA08BD034AD2F85F
:103A2000883043F47003C2F88830704700ED00E03E
:103A300010B504460E4B1A784FF47A73B3FBF2F3C9
:103A40000C4A1068B0FBF3F000F0BCF868B90F2C1A
:103A500001D901200AE0002221464FF0FF3000F09A
:103A600093F8054B1C60002000E0012010BD00BF52
:103A700018000020140000201C00002008B50B4B8B
:103A80001A6842F400721A601A6842F480621A607E
:103A90001A6842F480721A60032000F063F80F2065
:103AA000FFF7C6FFFFF75CFE002008BD003C0240A8
:103AB000034A1168034B1B780B441360704700BF27
:103AC000D40E002018000020014B1868704700BF7A
:103AD000D40E002038B50446FFF7F6FF0546B4F1D2
:103AE000FF3F02D0044B1B781C44FFF7EDFF401B47
:103AF000A042FAD338BD00BF18000020002808DB20
:103B00000901C9B200F1604000F5614080F800137E
:103B1000704700F00F000901C9B2014B19547047FA
:103B200014ED00E000B500F00700C0F1070CBCF197
:103B3000040F28BF4FF0040C031D062B0FD9C31E22
:103B40004FF0FF3E0EFA0CF021EA000199400EFA08
:103B500003FE22EA0E0241EA02005DF804FB0023A4
:103B6000EEE70000074AD36823F4E0631B041B0C54
:103B7000000200F4E060034343F0BF6343F400330A
:103B8000D360704700ED00E010B50446054BD868DF
:103B9000C0F30220FFF7C6FF01462046FFF7AEFF45
:103BA00010BD00BF00ED00E0002807DB00F01F02A1
:103BB000400901239340024A42F82030704700BF79
:103BC00000E100E00138B0F1807F0BD24FF0E0233C
:103BD0005861054AF02182F82310002098610722DD
:103BE0001A6170470120704700ED00E070B504468F
:103BF000866DFFF769FF94F83530DBB2022B06D0F3
:103C000080236365002384F83430012070BD0546AD
:103C10002268136823F0160313602268536923F0A7
:103C200080035361236CE3B12268136823F0080317
:103C300013602268136823F00103136023681B6874
:103C400013F0010F11D0FFF73FFF431B052BF5D9F0
:103C500020236365032084F83500002384F8343082
:103C6000D4E7A36C002BDFD1E3E7E26D3F23934061
:103C7000B360012384F83530002084F83400C5E7B0
:103C800090F83530DBB2022B03D08023436501204E
:103C90007047052380F835300268136823F001036C
:103CA000136000207047000000230F2B00F2D78024
:103CB00070B582B065E085684FEA430E032404FACC
:103CC0000EF425EA0405CC6804FA0EF42C43846053
:103CD000446824EA02044A68C2F300129A4022436C
:103CE00042605CE0DC08083450F8242003F007054B
:103CF000AD004FF00F0E0EFA05FE22EA0E0E0A6915
:103D0000AA4042EA0E0240F824205CE0042200E0CF
:103D1000002202FA0EF22A430234514D45F82420C3
:103D2000504A94686FEA0C0224EA0C054E6816F4B7
:103D3000801F01D04CEA04054A4CA560E46802EA01
:103D400004054E6816F4001F01D04CEA0405454CEA
:103D5000E560646802EA04054E6816F4003F01D08D
:103D60004CEA04053F4C6560246822404D6815F418
:103D7000803F01D04CEA04023A4C226001330F2B01
:103D80006BD801229A400C6804EA020C32EA04045F
:103D9000F4D14C6804F00304013C012C8BD94A682F
:103DA00002F00302032A09D0C4685D000322AA407E
:103DB00024EA02048A68AA402243C2604A6802F0E8
:103DC0000302022A8ED004684FEA430E032202FA4D
:103DD0000EF224EA02044A6802F0030202FA0EF22A
:103DE000224302604A6812F4403FC7D00022019289
:103DF0001D4A546C44F480445464526C02F4804272
:103E00000192019A9C08A51C154A52F8255003F00E
:103E1000030E4FEA8E0E0F2202FA0EF225EA020579
:103E2000124A90423FF474AF02F5806290420ED085
:103E300002F5806290420CD002F5806290420AD076
:103E400002F5806290423FF461AF072261E70122F0
:103E50005FE702225DE703225BE702B070BD7047B7
:103E600000380140003C01400038024000000240A0
:103E70000AB18161704709048161704708B5054B3B
:103E80005B69034200D108BD024B5861FDF76AFE31
:103E9000F9E700BF003C014003685A6912F4806FE3
:103EA00001D1002070476FF480625A6100230363E0
:103EB000202280F83D2080F83E30026C42F004025F
:103EC000026480F83C30012070472DE9F04107463C
:103ED0000D4690461E4624E0FFF7F6FD069BC01AED
:103EE000B04200D8EEB900233B63202287F83D2082
:103EF00087F83E303A6C42F020023A6487F83C3052
:103F000001201EE03B689C6925EA040C1FFA8CFC2A
:103F1000BCFA8CFC4FEA5C1CE04511D1B6F1FF3FC6
:103F2000DAD1C5F30743012BECD13B685B6925EA85
:103F3000030C1FFA8CFCBCFA8CFC4FEA5C1CEBE710
:103F40000020BDE8F0812DE9F04105460E461746F8
:103F500098463DE01A6842F400721A602B686FF4CC
:103F600080625A6100232B63202285F83D2085F86A
:103F70003E302A6C42F004022A6485F83C3001206D
:103F800034E0FFF7A1FDA0EB0800B84200D8FFB96C
:103F900000232B63202285F83D2085F83E302A6CD3
:103FA00042F020022A6485F83C3001201EE02B6894
:103FB0009C6926EA0404A4B2003C18BF0124A4B101
:103FC0002B685A6912F4806FC4D1B7F1FF3FD8D182
:103FD000C6F30743012BEAD12B685C6926EA040487
:103FE000A4B2003C18BF0124E9E70020BDE8F0813D
:103FF00070B504460D46164623685B6913F0800FC2
:104000001CD12046FFF748FFD0B9B5F1FF3FF3D0F0
:10401000FFF75AFD801BA84201D8002DECD10023E8
:104020002363202284F83D2084F83E30226C42F045
:104030002002226484F83C30012000E0002070BDA2
:104040000120FCE72DE9F04385B004460D4691467A
:104050001F46DDF830800D9E0368196841F48071B9
:1040600019600096434600224FF00111FFF72DFF23
:1040700060B9236805F0FE051D61334642462649B6
:104080002046FFF760FF68B1012008E023681B6845
:1040900013F4807F02D04FF400732364032005B033
:1040A000BDE8F0830023039323685A6903929B6958
:1040B0000393039B324641462046FFF799FF30B9F0
:1040C000012F0FD123685FFA89F61E61E7E7236CA1
:1040D000042B01D00120E2E72268136843F4007347
:1040E0001360F7E723684FEA19221A613246414606
:1040F0002046FFF77DFF20B923685FFA89F61E612D
:10410000CDE7236C042B01D00120C8E72268136897
:1041100043F400731360F7E7020001002DE9F04754
:1041200084B004460D46164699460C9FDDF834804F
:104130000268136843F4806313600368196841F4EC
:1041400080711960CDF800803B4600224FF00111CC
:10415000FFF7BBFE70B95FFA85FA236805F0FE052C
:104160001D6143463A4641492046FFF7ECFE68B1DF
:10417000012008E023681B6813F4807F02D04FF40D
:1041800000732364032004B0BDE8F0870023039389
:1041900023685A6903929B690393039B42463946FD
:1041A0002046FFF725FF80B9B9F1010F18D1236828
:1041B000F6B21E61424639462046FFF719FF68B342
:1041C000236C042B24D00120DDE7236C042B01D0C9
:1041D0000120D8E72268136843F400731360F7E7FF
:1041E0002368320A1A61424639462046FFF700FF2B
:1041F00018B92368F6B21E61DCE7236C042B01D0EA
:104200000120C0E72268136843F400731360F7E7E6
:104210002268136843F400731360D4E722681368BC
:1042200043F480731360CDF800803B4600224FF0CA
:1042300001112046FFF749FE68B922684AF00103E0
:10424000136143463A4609492046FFF77CFE0028A1
:1042500099D0012097E723681B6813F4807F02D070
:104260004FF40073236403208DE700BF02000100B8
:1042700070B504460D46164623685B6913F0040FBB
:104280001CD12046FFF708FED0B9B5F1FF3FF3D0AF
:10429000FFF71AFC801BA84201D8002DECD10023A7
:1042A0002363202284F83D2084F83E30226C42F0C3
:1042B0002002226484F83C30012000E0002070BD20
:1042C0000120FCE770B505460C4616462B68596977
:1042D00011F0400F29D1596911F0100F15D1FFF7D6
:1042E000F3FB801BA04201D8002CEFD100232B63ED
:1042F000202285F83D2085F83E302A6C42F02002CD
:104300002A6485F83C30012070BD6FF010025A61BC
:1043100000232B63202285F83D2085F83E302A6C4F
:104320002A6485F83C300120EEE70020ECE700002D
:10433000002800F0CC8070B5044690F83D30002B8A
:1043400077D0242384F83D302268136823F00103DA
:1043500013602268136843F40043136022681368F3
:1043600023F40043136000F0EBFD62685A4B9A425D
:1043700064D85A4B98428CBF00230123002B40F095
:10438000A8805749A1FB00318B0C25686A6822F090
:104390003F0242EA91426A6021680A6A22F03F02C3
:1043A00066684D4DAE424FD8013313430B6221680E
:1043B000CA6922F44F4222F0FF026568464B9D42D3
:1043C0004CD8431E6D00B3FBF5F3013340F6FC708F
:1043D000034278D0C3F30B031A43CA6121680B6808
:1043E00023F0C003E269206A024313430B60216893
:1043F0008B6823F4034323F0FF032269E068024340
:1044000013438B602168CB6823F0FF036269A069C6
:1044100002431343CB602268136843F00103136027
:1044200000202064202384F83D30206384F83E007F
:1044300070BD80F83C30FFF7AFF982E7294B984216
:104440008CBF0023012399E74FF4967505FB03F316
:10445000254DA5FB03539B090133A6E7A668BEB90A
:10446000431E05EB450CB3FBFCF30133C3F30B0315
:10447000B3FA83F35B0943BBC6B9431E05EB45059D
:10448000B3FBF5F30133C3F30B0343F40043A3E79A
:10449000431E05EB850C0CEB8C0CB3FBFCF30133DA
:1044A000C3F30B03B3FA83F35B09E4E7431E05EBA5
:1044B000850505EB8505B3FBF5F30133C3F30B036A
:1044C00043F4404388E7042386E7012384E701207F
:1044D00070470120ACE700BFA08601007F841E006A
:1044E00083DE1B43FF083D00D34D62102DE9F043EE
:1044F00083B004460F46904699460C9EFFF7E4FAB7
:10450000054694F83D00C0B2202803D0022003B035
:10451000BDE8F0830095192301224B492046FFF79F
:10452000D4FC002840F0898094F83C30012B00F046
:104530008680012384F83C3023681A6812F0010F4A
:1045400003D11A6842F001021A602268136823F44A
:1045500000631360212384F83D30402384F83E300B
:10456000002323640A9B6362BDF82C306385638D4E
:104570002385364BE362019500964B464246394609
:104580002046FFF75FFD00285BD1238D002B35D03F
:104590002A4631462046FFF72BFD20BB626A23687E
:1045A00012781A61626A531C6362218D013989B2E3
:1045B0002185638D9BB2013B9BB26385236858695B
:1045C00010F0040FE1D00029DFD052781A61636A3D
:1045D00001336362238D013B2385638D9BB2013BD5
:1045E0009BB26385D1E7236C042B01D001208EE7B9
:1045F0002268136843F400731360F7E72A463146D4
:104600002046FFF735FE50B1236C042B01D001206A
:104610007DE72268136843F400731360F7E72268AC
:10462000136843F400731360202384F83D300023A3
:1046300084F83E3084F83C3069E7022067E70220C6
:1046400065E7012063E700BF020010000000FFFFE4
:104650002DE9F04387B004460F4690469946109ED8
:10466000FFF732FA054694F83D00C0B2202804D086
:104670000227384607B0BDE8F083009519230122D0
:1046800088492046FFF721FC002840F0438194F838
:104690003C30012B00F04081012384F83C3023683A
:1046A0001A6812F0010F03D11A6842F001021A6071
:1046B0002268136823F400631360222384F83D30DA
:1046C000402384F83E30002323640E9B6362BDF8D0
:1046D0003C306385638D2385734BE36201950096BF
:1046E0004B46424639462046FFF718FD074600284C
:1046F00040F01481238D5BB9029323685A690292BA
:104700009A690292029A1A6842F400721A6075E07D
:10471000012B0AD0022B1AD00023059323685A6973
:1047200005929B690593059B68E02268136823F452
:10473000806313600023039323685A6903929A6984
:104740000392039A1A6842F400721A6056E02268D3
:10475000136823F4806313602268136843F40063D2
:1047600013600023049323685A6904929B6904939D
:10477000049B43E02A4631462046FFF7A3FD00286C
:1047800040F0CE8023681A69636A1A70636A013345
:104790006362238D013B2385638D9BB2013B9BB2FA
:1047A00063852BE000953346002240492046FFF701
:1047B0008CFB002840F0B6802268136843F4007335
:1047C000136023681A69636A1A70626A531C636211
:1047D000238D013B2385638D9BB2013B9BB2638597
:1047E00023681B695370636A01336362238D013B45
:1047F0002385638D9BB2013B9BB26385238D002B88
:104800007FD0032B54D8012BB4D0022BCAD00095F3
:104810003346002225492046FFF757FB002840F089
:1048200083802268136823F48063136023681A6905
:10483000636A1A70636A01336362238D013B2385C7
:10484000638D9BB2013B9BB263850095334600228A
:1048500016492046FFF739FB002867D12268136804
:1048600043F40073136023681A69636A1A70626AFA
:10487000531C6362238D013B2385638D9BB2013BF7
:104880009BB2638523681B695370636A013363625B
:10489000238D013B2385638D9BB2013B9BB26385D6
:1048A000ACE700BF020010000000FFFF04000100A1
:1048B0002A4631462046FFF705FD002838D12368F7
:1048C0001A69636A1A70626A531C6362238D013B22
:1048D0002385638D9BB2013B9BB263852368596935
:1048E00011F0040F8AD01B695370636A013363624D
:1048F000238D013B2385638D9BB2013B9BB2638576
:104900007CE7202384F83D30002384F83E3084F88F
:104910003C30AEE60227ACE60227AAE60127A8E66D
:104920000127A6E60127A4E60127A2E60127A0E6C3
:1049300001279EE6002800F0E08170B582B00446B1
:10494000036813F0010F3BD09F4B9B6803F00C03EF
:10495000042B2CD09C4B9B6803F00C03082B21D01C
:104960006368B3F5803F4FD0B3F5A02F52D0964B7C
:104970001A6822F480321A601A6822F480221A60BF
:104980006368002B50D0FFF79FF805468E4B1B68DD
:1049900013F4003F14D1FFF797F8401B6428F5D9B2
:1049A0000320B1E1884B5B6813F4800FD8D0864BAD
:1049B0001B6813F4003F03D06368002B00F09F8155
:1049C000236813F0020F54D07F4B9B6813F00C0F39
:1049D0003ED07D4B9B6803F00C03082B33D0E3687B
:1049E000002B68D0794B01221A60FFF76DF805465D
:1049F000754B1B6813F0020F54D1FFF765F8401B8D
:104A00000228F5D903207FE16F4A136843F480330D
:104A10001360B5E76C4B1A6842F480221A601A687A
:104A200042F480321A60ABE7FFF74EF80546664B5A
:104A30001B6813F4003FC3D0FFF746F8401B6428FF
:104A4000F5D9032060E1604B5B6813F4800FC6D199
:104A50005D4B1B6813F0020F03D0E368012B40F09D
:104A60005081594A136823F0F803216943EAC103CE
:104A70001360236813F0080F42D063696BB3534B84
:104A80000122C3F8802EFFF71FF805464E4B5B6FDF
:104A900013F0020F34D1FFF717F8401B0228F5D9A5
:104AA000032031E1484A136823F0F803216943EAFF
:104AB000C1031360DDE7454B00221A60FFF704F8DD
:104AC0000546414B1B6813F0020FD2D0FEF7FCFFE6
:104AD000401B0228F5D9032016E13C4B0022C3F805
:104AE000802EFEF7F1FF0546374B5B6F13F0020F88
:104AF00006D0FEF7E9FF401B0228F5D9032003E1A9
:104B0000236813F0040F77D02F4B1B6C13F0805FDA
:104B100033D1002301932C4B1A6C42F080521A645B
:104B20001B6C03F080530193019B0125284B1B68EC
:104B300013F4807F23D0A368012B34D0052B38D009
:104B4000214B1A6F22F001021A671A6F22F0040239
:104B50001A67A368002B3DD0FEF7B6FF06461A4B36
:104B60001B6F13F0020F46D1FEF7AEFF801B41F220
:104B700088339842F3D90320C6E00025D6E7144ACB
:104B8000136843F480731360FEF79EFF0646104BD4
:104B90001B6813F4807FCED1FEF796FF801B02289E
:104BA000F5D90320B0E0084A136F43F001031367FF
:104BB000CFE7054B1A6F42F004021A671A6F42F0F2
:104BC00001021A67C5E700BF0038024000004742F3
:104BD00000700040FEF778FF0646524B1B6F13F043
:104BE000020F08D0FEF770FF801B41F28833984215
:104BF000F3D9032088E0EDB9A369002B00F083808E
:104C0000484A926802F00C02082A51D0022B17D0B1
:104C1000454B00221A66FEF757FF0446414B1B68BE
:104C200013F0007F42D0FEF74FFF001B0228F5D99A
:104C3000032069E03B4A136C23F080531364DBE7E5
:104C4000394B00221A66FEF73FFF0546354B1B68BD
:104C500013F0007F06D0FEF737FF401B0228F5D97E
:104C6000032051E0E369226A1343626A43EA821334
:104C7000A26A5208013A43EA0243E26A43EA026343
:104C8000284A5360284B01221A66FEF71DFF04468E
:104C9000244B1B6813F0007F06D1FEF715FF001BA5
:104CA0000228F5D903202FE000202DE000202BE082
:104CB000012B2BD01B4B5B6803F48001E26991420E
:104CC00026D103F03F02216A8A4223D1616A47F666
:104CD000C0721A40B2EB811F1ED103F44031A26AA8
:104CE0005208013AB1EB024F18D103F07063E26A47
:104CF000B3EB026F14D1002006E0012070470120C1
:104D000002E0012000E0002002B070BD0120FBE7BE
:104D10000120F9E70120F7E70120F5E70120F3E79B
:104D20000120F1E7003802400000474208B5264B59
:104D30009B6803F00C03042B41D0082B41D1224B7C
:104D40005A6802F03F025B6813F4800F12D01E4BCA
:104D50005968C1F388111D480023A1FB0001FBF72E
:104D6000BBFF194B5B68C3F3014301335B00B0FB2E
:104D7000F3F027E0144B5868C0F388104FEA401C4A
:104D8000BCEB000C6EEB0E0E4FEA8E1343EA9C63F5
:104D90004FEA8C11B1EB0C0163EB0E03DB0043EA2D
:104DA0005173C90011EB000C43F100039902002379
:104DB0004FEA8C2041EA9C51FBF78EFFD1E7034874
:104DC00000E0034808BD00BF0038024040787D0184
:104DD0000024F400002800F09B8070B50D460446C6
:104DE0004F4B1B6803F007038B4208D2CBB24C4AEF
:104DF0001370136803F007038B4240F08B80236825
:104E000013F0020F17D013F0040F04D0454A936833
:104E100043F4E0539360236813F0080F04D0414A31
:104E2000936843F4604393603E4A936823F0F00331
:104E3000A1680B439360236813F0010F32D06368BD
:104E4000012B21D09A1E012A25D9364A126812F068
:104E5000020F61D033498A6822F0030213438B604A
:104E6000FEF732FE06462F4B9B6803F00C03626888
:104E7000B3EB820F16D0FEF727FE801B41F288337A
:104E80009842F0D9032042E0264A126812F4003F0B
:104E9000E0D101203BE0234A126812F0007FD9D113
:104EA000012034E01E4B1B6803F00703AB4207D917
:104EB000EAB21B4B1A701B6803F00703AB422DD1FB
:104EC000236813F0040F06D0164A936823F4E053C6
:104ED000E1680B439360236813F0080F07D0114A71
:104EE000936823F46043216943EAC1039360FFF7A9
:104EF0001DFF0C4B9B68C3F303130B4AD35CD840D4
:104F00000A4B18600A4B1868FEF792FD002070BD2E
:104F1000012070470120FAE70120F8E70120F6E7B9
:104F2000003C02400038024014B500081400002084
:104F30001C000020014B1868704700BF14000020BF
:104F400008B5FFF7F7FF044B9B68C3F38223034ABE
:104F5000D35CD84008BD00BF003802400CB5000843
:104F600008B5FFF7E7FF044B9B68C3F34233034ADE
:104F7000D35CD84008BD00BF003802400CB5000823
:104F80002DE9F04782B00546884617461E46FEF7D3
:104F90009BFD0A9B1B1A03EB0609FEF795FD824653
:104FA000284B1B68C3F3CB3309FB03F301932B6836
:104FB0009C6838EA04040CBF01230023BB423DD0A7
:104FC000B6F1FF3FF3D0FEF77FFDA0EB0A004845A6
:104FD00007D2019A02B14A46019B013B01939146D7
:104FE000E5E72A68536823F0E00353606B68B3F584
:104FF000827F0BD0AB6AB3F5005F14D0012385F834
:105000005130002385F85030032018E0AB68B3F529
:10501000004F02D0B3F5806FECD12A68136823F0FB
:1050200040031360E6E72A68136823F40053136013
:105030002A68136843F400531360DFE7002002B0CE
:10504000BDE8F0871400002010B584B00446164B6C
:105050001868164BA3FB0030400D4FF47A7303FB26
:1050600000F003906368B3F5827F0BD0039BBBB164
:10507000039B013B039323689B6813F0800FF5D1DA
:1050800000200EE000920B46002280212046FFF710
:1050900077FF30B1636D43F020036365032000E0C8
:1050A000002004B010BD00BF14000020819F5E16D8
:1050B00010B582B004460B464168B1F5827F14D02A
:1050C0006168B1F5827F2AD1A168B1F5806F19D0EE
:1050D0000092002280212046FFF752FF30B3636D1B
:1050E00043F020036365032020E08168B1F5004FA1
:1050F00002D0B1F5806FE3D12068016821F0400152
:105100000160DDE70092002201212046FFF738FF11
:1051100060B1636D43F020036365032006E00092F5
:10512000002201212046FFF72BFF08B902B010BD75
:10513000636D43F0200363650320F7E700285AD02E
:1051400010B50446436A33B94368B3F5827F05D08E
:105150000023C36102E00023036143610023A362D3
:1051600094F85130002B40D0022384F8513022684B
:10517000136823F040031360636803F48273A2682A
:1051800002F404421343E26802F40062134322690A
:1051900002F002021343626902F001021343A269A2
:1051A00002F400721343E26902F038021343226AE8
:1051B00002F080021343A26A02F4005221681343F2
:1051C0000B60638B03F00403626A02F01002216833
:1051D00013434B602268D36923F40063D36100203A
:1051E0006065012384F8513010BD84F850302046AA
:1051F000FEF744FBB8E7012070472DE9F04383B088
:105200001D4690F85030012B00F0D18004468846AE
:105210009146012380F85030FEF756FC074694F87B
:105220005160F6B2012E40F0AF80B8F1000F00F0EF
:10523000AC80B9F1000F00F0A880032384F851304E
:1052400000236365C4F83080A4F83490A4F8369045
:10525000A363A387E38763642364A368B3F5004F64
:105260001ED023681A6812F0400F03D11A6842F06A
:1052700040021A60E368B3F5006F1CD0636813B195
:10528000B9F1010F52D1226B236812781A73236B84
:1052900001332363E38E9BB2013B9BB2E38645E07F
:1052A0002268136823F0400313602268136843F4F4
:1052B00080431360D5E7636813B1B9F1010F16D1CC
:1052C000226B23681288DA60236B02332363E38E38
:1052D0009BB2013B9BB2E38609E0FEF7F5FBC01BE6
:1052E000A84202D3B5F1FF3F59D1002D59D0E38E2A
:1052F0009BB2002B33D023689A6812F0020FECD0D7
:10530000226B1288DA60236B02332363E38E9BB235
:10531000013B9BB2E386EAE7FEF7D6FBC01BA8423F
:1053200002D3B5F1FF3F3ED1002D3ED0E38E9BB2BC
:10533000ABB123689A6812F0020FEDD0226B12789D
:105340001A73236B01332363B4F836C01FFA8CFC45
:105350000CF1FF3C1FFA8CFCA4F836C0E6E73A4695
:1053600029462046FFF770FE08B120236365A36835
:1053700033B901932368DA6801929B680193019B1A
:10538000636D13B9002600E00226012384F8513032
:10539000002384F85030304603B0BDE8F083032684
:1053A000F3E70326F1E70326EFE70326EDE70226FE
:1053B000F1E72DE9F04383B01F460A9D90F8503085
:1053C000012B00F01081044688469146012380F8A5
:1053D0005030FEF779FB064694F85130DBB2626834
:1053E000012B0AD0B2F5827F40F0E380A268002A48
:1053F00040F0E980042B40F0E880B8F1000F00F0A5
:10540000E680B9F1000F00F0E480002F00F0E380A7
:1054100094F85130DBB2042B02D0052384F85130CC
:1054200000236365C4F83890E787A787C4F8308005
:10543000E786A7862364636423681A6812F0400F26
:1054400003D11A6842F040021A60E368B3F5006FB6
:1054500011D063680BB1012F0BD1226B2368127836
:105460001A73236B01332363E38E9BB2013B9BB220
:10547000E38601276BE063680BB1012F0BD1226B30
:1054800023681288DA60236B02332363E38E9BB2B6
:10549000013B9BB2E38601271CE023689A6812F067
:1054A000010F0ED0E28F92B25AB1DA68A36B1A8064
:1054B000A36B0233A363E38F9BB2013B9BB2E387F1
:1054C0000127FEF701FB801BA84203D3B5F1FF3F84
:1054D00040F08380E38E9BB21BB9E38F9BB2002B1D
:1054E00053D023689A6812F0020FD6D0E28E92B29F
:1054F000002AD2D0002FD0D0226B1288DA60236B22
:1055000002332363E38E9BB2013B9BB2E386002709
:10551000C3E723689A6812F0010F0ED0E28F92B2AF
:105520005AB1DA68A36B1A70A36B0133A363E38FDC
:105530009BB2013B9BB2E3870127FEF7C5FA831BB1
:10554000AB4202D3B5F1FF3F49D1002D49D0E38EE4
:105550009BB213B9E38F9BB2BBB123689A6812F078
:10556000020FD6D0E28E92B2002AD2D0002FD0D035
:10557000226B12781A73236B01332363E38E9BB281
:10558000013B9BB2E3860027C3E73246294620460B
:10559000FFF75AFD48B9A36863B901932368DA6835
:1055A00001929B680193019B04E020236365012025
:1055B00000E00220012384F85130002384F85030A9
:1055C00003B0BDE8F0830220F4E70220F2E70120F7
:1055D000F0E70120EEE70120ECE70320EAE70320F3
:1055E000E8E70320E6E70220EAE72DE9F04383B08D
:1055F0000446884691461D464068B0F5827F38D003
:1056000094F85030012B00F0AE80012384F8503024
:10561000FEF75AFA074694F85160F6B2012E40F0B0
:105620008F80B8F1000F00F08C80B9F1000F00F00E
:105630008880042384F8513000236365C4F83880DF
:10564000A4F83C90A4F83E902363A386E3862364E9
:105650006364A368B3F5004F19D023681A6812F089
:10566000400F03D11A6842F040021A60E3681BB38E
:1056700041E0A368002BC3D1042384F85130009586
:1056800013460A462046FFF794FE06465FE022686E
:10569000136823F0400313602268136823F48043E7
:1056A0001360DAE7FEF710FAC01BA84202D3B5F187
:1056B000FF3F50D1002D50D0E38F9BB2002B33D051
:1056C00023689A6812F0010FECD0A26B1B7B137059
:1056D000A36B0133A363E38F9BB2013B9BB2E387D0
:1056E000EAE7FEF7F1F9C01BA84202D3B5F1FF3F8C
:1056F00035D1002D35D0E38F9BB2ABB123689A68CA
:1057000012F0010FEDD0DA68A36B1A80A36B02339D
:10571000A363B4F83EC01FFA8CFC0CF1FF3C1FFAE7
:105720008CFCA4F83EC0E6E73A4629462046FFF73F
:10573000BFFC08B120236365636D13B9002600E048
:105740000226012384F85130002384F8503030467B
:1057500003B0BDE8F0830326F3E70326F1E7032651
:10576000EFE70326EDE70226F1E790F851007047D6
:10577000026802F10C0353E8003F23F490730C32EB
:1057800042E800310029F3D1026802F1140353E822
:10579000003F23F00103143242E800310029F3D125
:1057A000036B012B05D0202380F83E3000230363D8
:1057B0007047026802F10C0353E8003F23F0100326
:1057C0000C3242E800310029F3D1ECE790F83D308B
:1057D000DBB2212B01D0022070478368B3F5805FD4
:1057E00017D0036A5A1C02621A7803685A60C38C85
:1057F0009BB2013B9BB2C3844BB90268D36823F0D0
:105800008003D3600268D36843F04003D360002074
:1058100070470369002BE4D1036A1B880268C3F355
:1058200008035360036A02330362E0E710B50446DD
:105830000268136923F44053C1680B431361836802
:1058400002691A4343691A43C3691A430168CB6862
:1058500023F4164323F00C031343CB60026853690F
:1058600023F4407381690B4353610368314A9342C7
:1058700006D002F58062934202D0FFF761FB01E09F
:10588000FFF76EFBE369B3F5004F29D00021031841
:1058900049411B1841F10001C90041EA5371DB0085
:1058A000181863684FEA83024FEA937341F10001CD
:1058B000FBF712FA204AA2FB00314909642303FBDB
:1058C00011031B013233A2FB03235B0903F0F00237
:1058D00002EB011203F00F03216813448B6010BD2B
:1058E0000023021843EB0301121841F10001C90023
:1058F00041EA5271D200101841F100016268921819
:105900005B41FBF7E9F90C4AA2FB0031490964232A
:1059100003FB1103DB003233A2FB03235B095A00B4
:1059200002F4F87202EB011203F00703216813443A
:105930008B60D4E7001001401F85EB512DE9F8433F
:1059400005460F4616469946DDF820802B681C68F0
:1059500037EA04040CBF01240024B4422DD1B8F16D
:10596000FF3FF3D0B8F1000F05D0FEF7ADF8A0EB84
:1059700009004045EAD92A6802F10C0353E8003FC8
:1059800023F4D0730C3242E800310029F3D12A68A5
:1059900002F1140353E8003F23F00103143242E8FC
:1059A00000310029F3D1202385F83D3085F83E30C1
:1059B000002385F83C30032000E00020BDE8F88398
:1059C00058B310B5044690F83D300BB3242384F847
:1059D0003D302268D36823F40053D3602046FFF79C
:1059E00025FF2268136923F49043136122685369E9
:1059F00023F02A0353612268D36843F40053D36031
:105A000000202064202384F83D3084F83E3010BD0F
:105A100080F83C30FDF776FFD8E7012070472DE98C
:105A2000F04182B01E4690F83D30DBB2202B54D1BD
:105A300004460D469046002953D0002A53D090F8D2
:105A40003C30012B51D0012380F83C30002303640B
:105A5000212380F83D30FEF737F80746A4F824806C
:105A6000A4F82680A368B3F5805F05D04FF0000846
:105A7000002384F83C3012E0236913B14FF0000892
:105A8000F6E7A8460025F3E738F8023B2268C3F39F
:105A900008035360E28C92B2013A92B2E284E38C42
:105AA0009BB273B100963B46002280212046FFF74F
:105AB00045FFE0B9002DE7D015F8012B23685A60A7
:105AC000E8E700963B46002240212046FFF736FFDC
:105AD00078B9202384F83D3000E0022002B0BDE810
